{
  "_format": "hh-sol-artifact-1",
  "contractName": "RadarEditions",
  "sourceName": "src/RadarEditions.sol",
  "abi": [
    {
      "inputs": [],
      "stateMutability": "nonpayable",
      "type": "constructor"
    },
    {
      "inputs": [],
      "name": "EditionFeeExceedsProtocolFee",
      "type": "error"
    },
    {
      "inputs": [],
      "name": "EditionNotCreated",
      "type": "error"
    },
    {
      "inputs": [],
      "name": "EditionNotEnoughBalance",
      "type": "error"
    },
    {
      "inputs": [],
      "name": "EditionNotLaunched",
      "type": "error"
    },
    {
      "inputs": [],
      "name": "EditionNotStopped",
      "type": "error"
    },
    {
      "inputs": [],
      "name": "NotEditionOwner",
      "type": "error"
    },
    {
      "inputs": [],
      "name": "NotEnoughFunds",
      "type": "error"
    },
    {
      "inputs": [],
      "name": "TransactionFailed",
      "type": "error"
    },
    {
      "anonymous": false,
      "inputs": [
        {
          "indexed": false,
          "internalType": "address",
          "name": "previousAdmin",
          "type": "address"
        },
        {
          "indexed": false,
          "internalType": "address",
          "name": "newAdmin",
          "type": "address"
        }
      ],
      "name": "AdminChanged",
      "type": "event"
    },
    {
      "anonymous": false,
      "inputs": [
        {
          "indexed": true,
          "internalType": "address",
          "name": "account",
          "type": "address"
        },
        {
          "indexed": true,
          "internalType": "address",
          "name": "operator",
          "type": "address"
        },
        {
          "indexed": false,
          "internalType": "bool",
          "name": "approved",
          "type": "bool"
        }
      ],
      "name": "ApprovalForAll",
      "type": "event"
    },
    {
      "anonymous": false,
      "inputs": [
        {
          "indexed": true,
          "internalType": "address",
          "name": "beacon",
          "type": "address"
        }
      ],
      "name": "BeaconUpgraded",
      "type": "event"
    },
    {
      "anonymous": false,
      "inputs": [
        {
          "indexed": false,
          "internalType": "uint256",
          "name": "editionId",
          "type": "uint256"
        }
      ],
      "name": "EditionApproved",
      "type": "event"
    },
    {
      "anonymous": false,
      "inputs": [
        {
          "indexed": false,
          "internalType": "uint256",
          "name": "editionId",
          "type": "uint256"
        },
        {
          "indexed": false,
          "internalType": "uint256",
          "name": "amount",
          "type": "uint256"
        },
        {
          "indexed": false,
          "internalType": "address",
          "name": "owner",
          "type": "address"
        }
      ],
      "name": "EditionBalanceWithdrawn",
      "type": "event"
    },
    {
      "anonymous": false,
      "inputs": [
        {
          "indexed": false,
          "internalType": "uint256",
          "name": "editionId",
          "type": "uint256"
        },
        {
          "indexed": false,
          "internalType": "uint256",
          "name": "fee",
          "type": "uint256"
        },
        {
          "indexed": false,
          "internalType": "address",
          "name": "owner",
          "type": "address"
        }
      ],
      "name": "EditionCreated",
      "type": "event"
    },
    {
      "anonymous": false,
      "inputs": [
        {
          "indexed": false,
          "internalType": "uint256",
          "name": "editionId",
          "type": "uint256"
        }
      ],
      "name": "EditionResumed",
      "type": "event"
    },
    {
      "anonymous": false,
      "inputs": [
        {
          "indexed": false,
          "internalType": "uint256",
          "name": "editionId",
          "type": "uint256"
        }
      ],
      "name": "EditionStopped",
      "type": "event"
    },
    {
      "anonymous": false,
      "inputs": [
        {
          "indexed": false,
          "internalType": "uint8",
          "name": "version",
          "type": "uint8"
        }
      ],
      "name": "Initialized",
      "type": "event"
    },
    {
      "anonymous": false,
      "inputs": [
        {
          "indexed": false,
          "internalType": "address",
          "name": "account",
          "type": "address"
        }
      ],
      "name": "Paused",
      "type": "event"
    },
    {
      "anonymous": false,
      "inputs": [
        {
          "indexed": true,
          "internalType": "bytes32",
          "name": "role",
          "type": "bytes32"
        },
        {
          "indexed": true,
          "internalType": "bytes32",
          "name": "previousAdminRole",
          "type": "bytes32"
        },
        {
          "indexed": true,
          "internalType": "bytes32",
          "name": "newAdminRole",
          "type": "bytes32"
        }
      ],
      "name": "RoleAdminChanged",
      "type": "event"
    },
    {
      "anonymous": false,
      "inputs": [
        {
          "indexed": true,
          "internalType": "bytes32",
          "name": "role",
          "type": "bytes32"
        },
        {
          "indexed": true,
          "internalType": "address",
          "name": "account",
          "type": "address"
        },
        {
          "indexed": true,
          "internalType": "address",
          "name": "sender",
          "type": "address"
        }
      ],
      "name": "RoleGranted",
      "type": "event"
    },
    {
      "anonymous": false,
      "inputs": [
        {
          "indexed": true,
          "internalType": "bytes32",
          "name": "role",
          "type": "bytes32"
        },
        {
          "indexed": true,
          "internalType": "address",
          "name": "account",
          "type": "address"
        },
        {
          "indexed": true,
          "internalType": "address",
          "name": "sender",
          "type": "address"
        }
      ],
      "name": "RoleRevoked",
      "type": "event"
    },
    {
      "anonymous": false,
      "inputs": [
        {
          "indexed": true,
          "internalType": "address",
          "name": "operator",
          "type": "address"
        },
        {
          "indexed": true,
          "internalType": "address",
          "name": "from",
          "type": "address"
        },
        {
          "indexed": true,
          "internalType": "address",
          "name": "to",
          "type": "address"
        },
        {
          "indexed": false,
          "internalType": "uint256[]",
          "name": "ids",
          "type": "uint256[]"
        },
        {
          "indexed": false,
          "internalType": "uint256[]",
          "name": "values",
          "type": "uint256[]"
        }
      ],
      "name": "TransferBatch",
      "type": "event"
    },
    {
      "anonymous": false,
      "inputs": [
        {
          "indexed": true,
          "internalType": "address",
          "name": "operator",
          "type": "address"
        },
        {
          "indexed": true,
          "internalType": "address",
          "name": "from",
          "type": "address"
        },
        {
          "indexed": true,
          "internalType": "address",
          "name": "to",
          "type": "address"
        },
        {
          "indexed": false,
          "internalType": "uint256",
          "name": "id",
          "type": "uint256"
        },
        {
          "indexed": false,
          "internalType": "uint256",
          "name": "value",
          "type": "uint256"
        }
      ],
      "name": "TransferSingle",
      "type": "event"
    },
    {
      "anonymous": false,
      "inputs": [
        {
          "indexed": false,
          "internalType": "string",
          "name": "value",
          "type": "string"
        },
        {
          "indexed": true,
          "internalType": "uint256",
          "name": "id",
          "type": "uint256"
        }
      ],
      "name": "URI",
      "type": "event"
    },
    {
      "anonymous": false,
      "inputs": [
        {
          "indexed": false,
          "internalType": "address",
          "name": "account",
          "type": "address"
        }
      ],
      "name": "Unpaused",
      "type": "event"
    },
    {
      "anonymous": false,
      "inputs": [
        {
          "indexed": true,
          "internalType": "address",
          "name": "implementation",
          "type": "address"
        }
      ],
      "name": "Upgraded",
      "type": "event"
    },
    {
      "stateMutability": "payable",
      "type": "fallback"
    },
    {
      "inputs": [],
      "name": "DEFAULT_ADMIN_ROLE",
      "outputs": [
        {
          "internalType": "bytes32",
          "name": "",
          "type": "bytes32"
        }
      ],
      "stateMutability": "view",
      "type": "function"
    },
    {
      "inputs": [
        {
          "internalType": "uint256",
          "name": "editionId",
          "type": "uint256"
        }
      ],
      "name": "approveEdition",
      "outputs": [],
      "stateMutability": "nonpayable",
      "type": "function"
    },
    {
      "inputs": [
        {
          "internalType": "address",
          "name": "account",
          "type": "address"
        },
        {
          "internalType": "uint256",
          "name": "id",
          "type": "uint256"
        }
      ],
      "name": "balanceOf",
      "outputs": [
        {
          "internalType": "uint256",
          "name": "",
          "type": "uint256"
        }
      ],
      "stateMutability": "view",
      "type": "function"
    },
    {
      "inputs": [
        {
          "internalType": "address[]",
          "name": "accounts",
          "type": "address[]"
        },
        {
          "internalType": "uint256[]",
          "name": "ids",
          "type": "uint256[]"
        }
      ],
      "name": "balanceOfBatch",
      "outputs": [
        {
          "internalType": "uint256[]",
          "name": "",
          "type": "uint256[]"
        }
      ],
      "stateMutability": "view",
      "type": "function"
    },
    {
      "inputs": [
        {
          "internalType": "address",
          "name": "account",
          "type": "address"
        },
        {
          "internalType": "uint256",
          "name": "id",
          "type": "uint256"
        },
        {
          "internalType": "uint256",
          "name": "value",
          "type": "uint256"
        }
      ],
      "name": "burn",
      "outputs": [],
      "stateMutability": "nonpayable",
      "type": "function"
    },
    {
      "inputs": [
        {
          "internalType": "address",
          "name": "account",
          "type": "address"
        },
        {
          "internalType": "uint256[]",
          "name": "ids",
          "type": "uint256[]"
        },
        {
          "internalType": "uint256[]",
          "name": "values",
          "type": "uint256[]"
        }
      ],
      "name": "burnBatch",
      "outputs": [],
      "stateMutability": "nonpayable",
      "type": "function"
    },
    {
      "inputs": [
        {
          "internalType": "uint256",
          "name": "fee",
          "type": "uint256"
        },
        {
          "internalType": "address",
          "name": "owner",
          "type": "address"
        }
      ],
      "name": "createEdition",
      "outputs": [
        {
          "internalType": "uint256",
          "name": "editionId",
          "type": "uint256"
        }
      ],
      "stateMutability": "nonpayable",
      "type": "function"
    },
    {
      "inputs": [],
      "name": "editionCounter",
      "outputs": [
        {
          "internalType": "uint256",
          "name": "",
          "type": "uint256"
        }
      ],
      "stateMutability": "view",
      "type": "function"
    },
    {
      "inputs": [
        {
          "internalType": "uint256",
          "name": "",
          "type": "uint256"
        }
      ],
      "name": "editions",
      "outputs": [
        {
          "internalType": "enum EditionsStructs.EditionStatus",
          "name": "status",
          "type": "uint8"
        },
        {
          "internalType": "uint256",
          "name": "fee",
          "type": "uint256"
        },
        {
          "internalType": "uint256",
          "name": "balance",
          "type": "uint256"
        },
        {
          "internalType": "address",
          "name": "owner",
          "type": "address"
        }
      ],
      "stateMutability": "view",
      "type": "function"
    },
    {
      "inputs": [
        {
          "internalType": "uint256",
          "name": "id",
          "type": "uint256"
        }
      ],
      "name": "exists",
      "outputs": [
        {
          "internalType": "bool",
          "name": "",
          "type": "bool"
        }
      ],
      "stateMutability": "view",
      "type": "function"
    },
    {
      "inputs": [
        {
          "internalType": "bytes32",
          "name": "role",
          "type": "bytes32"
        }
      ],
      "name": "getRoleAdmin",
      "outputs": [
        {
          "internalType": "bytes32",
          "name": "",
          "type": "bytes32"
        }
      ],
      "stateMutability": "view",
      "type": "function"
    },
    {
      "inputs": [
        {
          "internalType": "bytes32",
          "name": "role",
          "type": "bytes32"
        },
        {
          "internalType": "address",
          "name": "account",
          "type": "address"
        }
      ],
      "name": "grantRole",
      "outputs": [],
      "stateMutability": "nonpayable",
      "type": "function"
    },
    {
      "inputs": [
        {
          "internalType": "bytes32",
          "name": "role",
          "type": "bytes32"
        },
        {
          "internalType": "address",
          "name": "account",
          "type": "address"
        }
      ],
      "name": "hasRole",
      "outputs": [
        {
          "internalType": "bool",
          "name": "",
          "type": "bool"
        }
      ],
      "stateMutability": "view",
      "type": "function"
    },
    {
      "inputs": [],
      "name": "initialize",
      "outputs": [],
      "stateMutability": "nonpayable",
      "type": "function"
    },
    {
      "inputs": [
        {
          "internalType": "address",
          "name": "account",
          "type": "address"
        },
        {
          "internalType": "address",
          "name": "operator",
          "type": "address"
        }
      ],
      "name": "isApprovedForAll",
      "outputs": [
        {
          "internalType": "bool",
          "name": "",
          "type": "bool"
        }
      ],
      "stateMutability": "view",
      "type": "function"
    },
    {
      "inputs": [
        {
          "internalType": "uint256",
          "name": "editionId",
          "type": "uint256"
        },
        {
          "internalType": "uint256",
          "name": "amount",
          "type": "uint256"
        },
        {
          "internalType": "address",
          "name": "buyer",
          "type": "address"
        },
        {
          "internalType": "bytes",
          "name": "data",
          "type": "bytes"
        }
      ],
      "name": "mintEdition",
      "outputs": [],
      "stateMutability": "payable",
      "type": "function"
    },
    {
      "inputs": [],
      "name": "pause",
      "outputs": [],
      "stateMutability": "nonpayable",
      "type": "function"
    },
    {
      "inputs": [],
      "name": "paused",
      "outputs": [
        {
          "internalType": "bool",
          "name": "",
          "type": "bool"
        }
      ],
      "stateMutability": "view",
      "type": "function"
    },
    {
      "inputs": [],
      "name": "protocolFee",
      "outputs": [
        {
          "internalType": "uint256",
          "name": "",
          "type": "uint256"
        }
      ],
      "stateMutability": "view",
      "type": "function"
    },
    {
      "inputs": [],
      "name": "proxiableUUID",
      "outputs": [
        {
          "internalType": "bytes32",
          "name": "",
          "type": "bytes32"
        }
      ],
      "stateMutability": "view",
      "type": "function"
    },
    {
      "inputs": [
        {
          "internalType": "bytes32",
          "name": "role",
          "type": "bytes32"
        },
        {
          "internalType": "address",
          "name": "account",
          "type": "address"
        }
      ],
      "name": "renounceRole",
      "outputs": [],
      "stateMutability": "nonpayable",
      "type": "function"
    },
    {
      "inputs": [
        {
          "internalType": "uint256",
          "name": "editionId",
          "type": "uint256"
        }
      ],
      "name": "resumeEdition",
      "outputs": [],
      "stateMutability": "nonpayable",
      "type": "function"
    },
    {
      "inputs": [
        {
          "internalType": "bytes32",
          "name": "role",
          "type": "bytes32"
        },
        {
          "internalType": "address",
          "name": "account",
          "type": "address"
        }
      ],
      "name": "revokeRole",
      "outputs": [],
      "stateMutability": "nonpayable",
      "type": "function"
    },
    {
      "inputs": [
        {
          "internalType": "address",
          "name": "from",
          "type": "address"
        },
        {
          "internalType": "address",
          "name": "to",
          "type": "address"
        },
        {
          "internalType": "uint256[]",
          "name": "ids",
          "type": "uint256[]"
        },
        {
          "internalType": "uint256[]",
          "name": "amounts",
          "type": "uint256[]"
        },
        {
          "internalType": "bytes",
          "name": "data",
          "type": "bytes"
        }
      ],
      "name": "safeBatchTransferFrom",
      "outputs": [],
      "stateMutability": "nonpayable",
      "type": "function"
    },
    {
      "inputs": [
        {
          "internalType": "address",
          "name": "from",
          "type": "address"
        },
        {
          "internalType": "address",
          "name": "to",
          "type": "address"
        },
        {
          "internalType": "uint256",
          "name": "id",
          "type": "uint256"
        },
        {
          "internalType": "uint256",
          "name": "amount",
          "type": "uint256"
        },
        {
          "internalType": "bytes",
          "name": "data",
          "type": "bytes"
        }
      ],
      "name": "safeTransferFrom",
      "outputs": [],
      "stateMutability": "nonpayable",
      "type": "function"
    },
    {
      "inputs": [
        {
          "internalType": "address",
          "name": "operator",
          "type": "address"
        },
        {
          "internalType": "bool",
          "name": "approved",
          "type": "bool"
        }
      ],
      "name": "setApprovalForAll",
      "outputs": [],
      "stateMutability": "nonpayable",
      "type": "function"
    },
    {
      "inputs": [
        {
          "internalType": "uint256",
          "name": "_protocolFee",
          "type": "uint256"
        }
      ],
      "name": "setProtocolFee",
      "outputs": [],
      "stateMutability": "nonpayable",
      "type": "function"
    },
    {
      "inputs": [
        {
          "internalType": "string",
          "name": "newuri",
          "type": "string"
        }
      ],
      "name": "setURI",
      "outputs": [],
      "stateMutability": "nonpayable",
      "type": "function"
    },
    {
      "inputs": [
        {
          "internalType": "uint256",
          "name": "editionId",
          "type": "uint256"
        }
      ],
      "name": "stopEdition",
      "outputs": [],
      "stateMutability": "nonpayable",
      "type": "function"
    },
    {
      "inputs": [
        {
          "internalType": "bytes4",
          "name": "interfaceId",
          "type": "bytes4"
        }
      ],
      "name": "supportsInterface",
      "outputs": [
        {
          "internalType": "bool",
          "name": "",
          "type": "bool"
        }
      ],
      "stateMutability": "view",
      "type": "function"
    },
    {
      "inputs": [
        {
          "internalType": "uint256",
          "name": "id",
          "type": "uint256"
        }
      ],
      "name": "totalSupply",
      "outputs": [
        {
          "internalType": "uint256",
          "name": "",
          "type": "uint256"
        }
      ],
      "stateMutability": "view",
      "type": "function"
    },
    {
      "inputs": [],
      "name": "unpause",
      "outputs": [],
      "stateMutability": "nonpayable",
      "type": "function"
    },
    {
      "inputs": [
        {
          "internalType": "address",
          "name": "newImplementation",
          "type": "address"
        }
      ],
      "name": "upgradeTo",
      "outputs": [],
      "stateMutability": "nonpayable",
      "type": "function"
    },
    {
      "inputs": [
        {
          "internalType": "address",
          "name": "newImplementation",
          "type": "address"
        },
        {
          "internalType": "bytes",
          "name": "data",
          "type": "bytes"
        }
      ],
      "name": "upgradeToAndCall",
      "outputs": [],
      "stateMutability": "payable",
      "type": "function"
    },
    {
      "inputs": [
        {
          "internalType": "uint256",
          "name": "",
          "type": "uint256"
        }
      ],
      "name": "uri",
      "outputs": [
        {
          "internalType": "string",
          "name": "",
          "type": "string"
        }
      ],
      "stateMutability": "view",
      "type": "function"
    },
    {
      "inputs": [
        {
          "internalType": "uint256",
          "name": "editionId",
          "type": "uint256"
        },
        {
          "internalType": "uint256",
          "name": "amount",
          "type": "uint256"
        }
      ],
      "name": "withdrawEditionBalance",
      "outputs": [],
      "stateMutability": "nonpayable",
      "type": "function"
    },
    {
      "inputs": [
        {
          "internalType": "uint256",
          "name": "amount",
          "type": "uint256"
        }
      ],
      "name": "withdrawFunds",
      "outputs": [],
      "stateMutability": "nonpayable",
      "type": "function"
    },
    {
      "stateMutability": "payable",
      "type": "receive"
    }
  ],
  "bytecode": "0x60a0604052306080523480156200001557600080fd5b506200002062000026565b620000e7565b600054610100900460ff1615620000935760405162461bcd60e51b815260206004820152602760248201527f496e697469616c697a61626c653a20636f6e747261637420697320696e697469604482015266616c697a696e6760c81b606482015260840160405180910390fd5b60005460ff90811614620000e5576000805460ff191660ff9081179091556040519081527f7f26b83ff96e1f2b6a682f133852f6798a09c465da95921460cefb38474024989060200160405180910390a15b565b6080516139926200011f60003960008181610be401528181610c2401528181610e1e01528181610e5e0152610eed01526139926000f3fe6080604052600436106102055760003560e01c80635c975abb11610117578063a22cb465116100a5578063d667c9ce1161006c578063d667c9ce1461064e578063e985e9c51461066e578063f242432a146106b7578063f5298aca146106d7578063fc74efa2146106f757005b8063a22cb465146105b2578063b0e21e8a146105d2578063bd85b039146105e9578063c6fbb71214610617578063d547741f1461062e57005b80638129fc1c116100e95780638129fc1c146105405780638456cb591461055557806391d148541461056a578063940123da1461058a578063a217fddf1461059d57005b80635c975abb146104c85780636b20c454146104e05780637357628c14610500578063787dce3d1461052057005b80632eb2c2d6116101945780633f4ba83a116101665780633f4ba83a1461042e5780634e1273f4146104435780634f1ef286146104705780634f558e791461048357806352d1902d146104b357005b80632eb2c2d6146103ae5780632f2ff15d146103ce57806336568abe146103ee5780633659cfe61461040e57005b80630a579eca116101d85780630a579eca146102b15780630e89341c146102d1578063155dd5ee146102fe578063248a9ca31461031e578063279c806e1461034e57005b8062fdd58e1461020e57806301ffc9a71461024157806302fe5305146102715780630a3c9e981461029157005b3661020c57005b005b34801561021a57600080fd5b5061022e610229366004612b1c565b610717565b6040519081526020015b60405180910390f35b34801561024d57600080fd5b5061026161025c366004612b5c565b6107b2565b6040519015158152602001610238565b34801561027d57600080fd5b5061020c61028c366004612c18565b6107bd565b34801561029d57600080fd5b5061022e6102ac366004612c60565b6107f4565b3480156102bd57600080fd5b5061020c6102cc366004612c8c565b610921565b3480156102dd57600080fd5b506102f16102ec366004612c8c565b6109f2565b6040516102389190612cf5565b34801561030a57600080fd5b5061020c610319366004612c8c565b610a86565b34801561032a57600080fd5b5061022e610339366004612c8c565b60009081526097602052604090206001015490565b34801561035a57600080fd5b5061039e610369366004612c8c565b6101c460205260009081526040902080546001820154600283015460039093015460ff9092169290916001600160a01b031684565b6040516102389493929190612d1e565b3480156103ba57600080fd5b5061020c6103c9366004612e19565b610aff565b3480156103da57600080fd5b5061020c6103e9366004612c60565b610b4b565b3480156103fa57600080fd5b5061020c610409366004612c60565b610b60565b34801561041a57600080fd5b5061020c610429366004612ec2565b610bda565b34801561043a57600080fd5b5061020c610cb9565b34801561044f57600080fd5b5061046361045e366004612edd565b610ceb565b6040516102389190612fe2565b61020c61047e366004612ff5565b610e14565b34801561048f57600080fd5b5061026161049e366004612c8c565b600090815261012d6020526040902054151590565b3480156104bf57600080fd5b5061022e610ee0565b3480156104d457600080fd5b5060c95460ff16610261565b3480156104ec57600080fd5b5061020c6104fb366004613038565b610f94565b34801561050c57600080fd5b5061020c61051b366004612c8c565b610fd7565b34801561052c57600080fd5b5061020c61053b366004612c8c565b611078565b34801561054c57600080fd5b5061020c61108a565b34801561056157600080fd5b5061020c61122b565b34801561057657600080fd5b50610261610585366004612c60565b61125d565b61020c6105983660046130ab565b611288565b3480156105a957600080fd5b5061022e600081565b3480156105be57600080fd5b5061020c6105cd36600461310b565b611351565b3480156105de57600080fd5b5061022e6101c35481565b3480156105f557600080fd5b5061022e610604366004612c8c565b600090815261012d602052604090205490565b34801561062357600080fd5b5061022e6101c55481565b34801561063a57600080fd5b5061020c610649366004612c60565b61135c565b34801561065a57600080fd5b5061020c610669366004613147565b611381565b34801561067a57600080fd5b50610261610689366004613169565b6001600160a01b03918216600090815260666020908152604080832093909416825291909152205460ff1690565b3480156106c357600080fd5b5061020c6106d2366004613193565b6114c3565b3480156106e357600080fd5b5061020c6106f23660046131f7565b611508565b34801561070357600080fd5b5061020c610712366004612c8c565b61154b565b60006001600160a01b0383166107875760405162461bcd60e51b815260206004820152602a60248201527f455243313135353a2061646472657373207a65726f206973206e6f742061207660448201526930b634b21037bbb732b960b11b60648201526084015b60405180910390fd5b5060008181526065602090815260408083206001600160a01b03861684529091529020545b92915050565b60006107ac82611615565b7f7804d923f43a17d325d77e781528e0793b2edd9890ab45fc64efd7b4b427744c6107e78161163a565b6107f082611644565b5050565b60006101c35483111561081a57604051636a61a41960e11b815260040160405180910390fd5b506101c554604080516080810190915280600181526020808201869052600060408084018290526001600160a01b0387166060909401939093528481526101c49091522081518154829060ff1916600183600381111561087c5761087c612d08565b02179055506020820151600182015560408201516002820155606090910151600390910180546001600160a01b0319166001600160a01b039092169190911790556101c580549060006108ce83613240565b909155505060408051828152602081018590526001600160a01b0384168183015290517f7fe7f72f14a53255f3c9e225ab1d40fdb21335b87a7912726a196fb816866ae09181900360600190a192915050565b60008181526101c460205260409020600301546001600160a01b0316331461095c5760405163388f811f60e01b815260040160405180910390fd5b600260008281526101c4602052604090205460ff16600381111561098257610982612d08565b146109a057604051631f0fb6fd60e11b815260040160405180910390fd5b60008181526101c46020908152604091829020805460ff1916600317905590518281527f591913f977ab242c5871f116f36be231ff67df5e8e0bac1efd91fa8a723aca2b91015b60405180910390a150565b606060678054610a0190613259565b80601f0160208091040260200160405190810160405280929190818152602001828054610a2d90613259565b8015610a7a5780601f10610a4f57610100808354040283529160200191610a7a565b820191906000526020600020905b815481529060010190602001808311610a5d57829003601f168201915b50505050509050919050565b6000610a918161163a565b604051600090339084908381818185875af1925050503d8060008114610ad3576040519150601f19603f3d011682016040523d82523d6000602084013e610ad8565b606091505b5050905080610afa576040516317f2c34560e31b815260040160405180910390fd5b505050565b6001600160a01b038516331480610b1b5750610b1b8533610689565b610b375760405162461bcd60e51b815260040161077e90613293565b610b448585858585611650565b5050505050565b6000610b568161163a565b610afa83836117fd565b6001600160a01b0381163314610bd05760405162461bcd60e51b815260206004820152602f60248201527f416363657373436f6e74726f6c3a2063616e206f6e6c792072656e6f756e636560448201526e103937b632b9903337b91039b2b63360891b606482015260840161077e565b6107f08282611883565b6001600160a01b037f0000000000000000000000000000000000000000000000000000000000000000163003610c225760405162461bcd60e51b815260040161077e906132e1565b7f00000000000000000000000000000000000000000000000000000000000000006001600160a01b0316610c6b600080516020613916833981519152546001600160a01b031690565b6001600160a01b031614610c915760405162461bcd60e51b815260040161077e9061332d565b610c9a816118ea565b60408051600080825260208201909252610cb691839190611914565b50565b7f65d7a28e3265b37a6474929f336521b332c1681b933f6cb9f3376673440d862a610ce38161163a565b610cb6611a7f565b60608151835114610d505760405162461bcd60e51b815260206004820152602960248201527f455243313135353a206163636f756e747320616e6420696473206c656e677468604482015268040dad2e6dac2e8c6d60bb1b606482015260840161077e565b600083516001600160401b03811115610d6b57610d6b612b79565b604051908082528060200260200182016040528015610d94578160200160208202803683370190505b50905060005b8451811015610e0c57610ddf858281518110610db857610db8613379565b6020026020010151858381518110610dd257610dd2613379565b6020026020010151610717565b828281518110610df157610df1613379565b6020908102919091010152610e0581613240565b9050610d9a565b509392505050565b6001600160a01b037f0000000000000000000000000000000000000000000000000000000000000000163003610e5c5760405162461bcd60e51b815260040161077e906132e1565b7f00000000000000000000000000000000000000000000000000000000000000006001600160a01b0316610ea5600080516020613916833981519152546001600160a01b031690565b6001600160a01b031614610ecb5760405162461bcd60e51b815260040161077e9061332d565b610ed4826118ea565b6107f082826001611914565b6000306001600160a01b037f00000000000000000000000000000000000000000000000000000000000000001614610f805760405162461bcd60e51b815260206004820152603860248201527f555550535570677261646561626c653a206d757374206e6f742062652063616c60448201527f6c6564207468726f7567682064656c656761746563616c6c0000000000000000606482015260840161077e565b506000805160206139168339815191525b90565b6001600160a01b038316331480610fb05750610fb08333610689565b610fcc5760405162461bcd60e51b815260040161077e90613293565b610afa838383611ad1565b6000610fe28161163a565b600160008381526101c4602052604090205460ff16600381111561100857611008612d08565b146110265760405163137c9c1f60e31b815260040160405180910390fd5b60008281526101c46020908152604091829020805460ff1916600217905590518381527f8f4352ac8b4aefdd2333162306bbe09dd4f4ff6661e89ccc4e4dcced8794e8f7910160405180910390a15050565b60006110838161163a565b506101c355565b600054610100900460ff16158080156110aa5750600054600160ff909116105b806110c45750303b1580156110c4575060005460ff166001145b6111275760405162461bcd60e51b815260206004820152602e60248201527f496e697469616c697a61626c653a20636f6e747261637420697320616c72656160448201526d191e481a5b9a5d1a585b1a5e995960921b606482015260840161077e565b6000805460ff19166001179055801561114a576000805461ff0019166101001790555b61116260405180602001604052806000815250611c72565b61116a611ca2565b611172611ccb565b61117a611ca2565b611182611ca2565b61118a611ca2565b6111956000336117fd565b6111bf7f7804d923f43a17d325d77e781528e0793b2edd9890ab45fc64efd7b4b427744c336117fd565b6111e97f65d7a28e3265b37a6474929f336521b332c1681b933f6cb9f3376673440d862a336117fd565b8015610cb6576000805461ff0019169055604051600181527f7f26b83ff96e1f2b6a682f133852f6798a09c465da95921460cefb3847402498906020016109e7565b7f65d7a28e3265b37a6474929f336521b332c1681b933f6cb9f3376673440d862a6112558161163a565b610cb6611cfa565b60009182526097602090815260408084206001600160a01b0393909316845291905290205460ff1690565b600260008581526101c4602052604090205460ff1660038111156112ae576112ae612d08565b146112cc57604051631f0fb6fd60e11b815260040160405180910390fd5b60008481526101c460205260409020600101546112ea90849061338f565b34101561130a57604051631036b5ad60e31b815260040160405180910390fd5b61131682858584611d37565b6101c35461132490346133a6565b60008581526101c46020526040812060020180549091906113469084906133b9565b909155505050505050565b6107f0338383611e5c565b6000828152609760205260409020600101546113778161163a565b610afa8383611883565b60008281526101c460205260409020600301546001600160a01b031633146113bc5760405163388f811f60e01b815260040160405180910390fd5b60008281526101c460205260409020600201548111156113ef57604051637eafab7d60e01b815260040160405180910390fd5b604051600090339083908381818185875af1925050503d8060008114611431576040519150601f19603f3d011682016040523d82523d6000602084013e611436565b606091505b5050905080611458576040516317f2c34560e31b815260040160405180910390fd5b60008381526101c460205260408120600201805484929061147a9084906133a6565b90915550506040805184815260208101849052338183015290517ff1090e9d5138cd4909542e10e1da576730b07eb291a71a151e63160dde345b949181900360600190a1505050565b6001600160a01b0385163314806114df57506114df8533610689565b6114fb5760405162461bcd60e51b815260040161077e90613293565b610b448585858585611f3c565b6001600160a01b03831633148061152457506115248333610689565b6115405760405162461bcd60e51b815260040161077e90613293565b610afa838383612078565b60008181526101c460205260409020600301546001600160a01b031633146115865760405163388f811f60e01b815260040160405180910390fd5b600360008281526101c4602052604090205460ff1660038111156115ac576115ac612d08565b146115ca5760405163968807a560e01b815260040160405180910390fd5b60008181526101c46020908152604091829020805460ff1916600217905590518281527f63bb17c9645a29322601b4fe88d8f3fa84f32229368294f903084be8f5d813ba91016109e7565b60006001600160e01b03198216637965db0b60e01b14806107ac57506107ac82612194565b610cb681336121e4565b60676107f08282613412565b81518351146116715760405162461bcd60e51b815260040161077e906134d1565b6001600160a01b0384166116975760405162461bcd60e51b815260040161077e90613519565b336116a681878787878761223d565b60005b845181101561178f5760008582815181106116c6576116c6613379565b6020026020010151905060008583815181106116e4576116e4613379565b60209081029190910181015160008481526065835260408082206001600160a01b038e1683529093529190912054909150818110156117355760405162461bcd60e51b815260040161077e9061355e565b60008381526065602090815260408083206001600160a01b038e8116855292528083208585039055908b168252812080548492906117749084906133b9565b925050819055505050508061178890613240565b90506116a9565b50846001600160a01b0316866001600160a01b0316826001600160a01b03167f4a39dc06d4c0dbc64b70af90fd698a233a518aa5d07e595d983b8c0526c8f7fb87876040516117df9291906135a8565b60405180910390a46117f5818787878787612253565b505050505050565b611807828261125d565b6107f05760008281526097602090815260408083206001600160a01b03851684529091529020805460ff1916600117905561183f3390565b6001600160a01b0316816001600160a01b0316837f2f8788117e7eff1d82e926ec794901d17c78024a50270940304540a733656f0d60405160405180910390a45050565b61188d828261125d565b156107f05760008281526097602090815260408083206001600160a01b0385168085529252808320805460ff1916905551339285917ff6391f5c32d9c69d2a47ea670b442974b53935d1edc7fd64eb21e047a839171b9190a45050565b7f189ab7a9244df0848122154315af71fe140f3db0fe014031783b0946b8c9d2e36107f08161163a565b7f4910fdfa16fed3260ed0e7147f7cc6da11a60208b5b9406d12a635614ffd91435460ff161561194757610afa836123ae565b826001600160a01b03166352d1902d6040518163ffffffff1660e01b8152600401602060405180830381865afa9250505080156119a1575060408051601f3d908101601f1916820190925261199e918101906135d6565b60015b611a045760405162461bcd60e51b815260206004820152602e60248201527f45524331393637557067726164653a206e657720696d706c656d656e7461746960448201526d6f6e206973206e6f74205555505360901b606482015260840161077e565b6000805160206139168339815191528114611a735760405162461bcd60e51b815260206004820152602960248201527f45524331393637557067726164653a20756e737570706f727465642070726f786044820152681a58589b195555525160ba1b606482015260840161077e565b50610afa83838361244a565b611a8761246f565b60c9805460ff191690557f5db9ee0a495bf2e6ff9c91a7834c1ba4fdd244a5e8aa4e537bd38aeae4b073aa335b6040516001600160a01b03909116815260200160405180910390a1565b6001600160a01b038316611af75760405162461bcd60e51b815260040161077e906135ef565b8051825114611b185760405162461bcd60e51b815260040161077e906134d1565b6000339050611b3b8185600086866040518060200160405280600081525061223d565b60005b8351811015611c03576000848281518110611b5b57611b5b613379565b602002602001015190506000848381518110611b7957611b79613379565b60209081029190910181015160008481526065835260408082206001600160a01b038c168352909352919091205490915081811015611bca5760405162461bcd60e51b815260040161077e90613632565b60009283526065602090815260408085206001600160a01b038b1686529091529092209103905580611bfb81613240565b915050611b3e565b5060006001600160a01b0316846001600160a01b0316826001600160a01b03167f4a39dc06d4c0dbc64b70af90fd698a233a518aa5d07e595d983b8c0526c8f7fb8686604051611c549291906135a8565b60405180910390a46040805160208101909152600090525b50505050565b600054610100900460ff16611c995760405162461bcd60e51b815260040161077e90613676565b610cb6816124b8565b600054610100900460ff16611cc95760405162461bcd60e51b815260040161077e90613676565b565b600054610100900460ff16611cf25760405162461bcd60e51b815260040161077e90613676565b611cc96124e8565b611d0261251b565b60c9805460ff191660011790557f62e78cea01bee320cd4e420270b5ea74000d11b0c9f74754ebdbfc544b05a258611ab43390565b6001600160a01b038416611d975760405162461bcd60e51b815260206004820152602160248201527f455243313135353a206d696e7420746f20746865207a65726f206164647265736044820152607360f81b606482015260840161077e565b336000611da385612561565b90506000611db085612561565b9050611dc18360008985858961223d565b60008681526065602090815260408083206001600160a01b038b16845290915281208054879290611df39084906133b9565b909155505060408051878152602081018790526001600160a01b03808a1692600092918716917fc3d58168c5ae7397731d063d5bbf3d657854427343f4c083240f7aacaa2d0f62910160405180910390a4611e53836000898989896125ac565b50505050505050565b816001600160a01b0316836001600160a01b031603611ecf5760405162461bcd60e51b815260206004820152602960248201527f455243313135353a2073657474696e6720617070726f76616c20737461747573604482015268103337b91039b2b63360b91b606482015260840161077e565b6001600160a01b03838116600081815260666020908152604080832094871680845294825291829020805460ff191686151590811790915591519182527f17307eab39ab6107e8899845ad3d59bd9653f200f220920489ca2b5937696c31910160405180910390a3505050565b6001600160a01b038416611f625760405162461bcd60e51b815260040161077e90613519565b336000611f6e85612561565b90506000611f7b85612561565b9050611f8b83898985858961223d565b60008681526065602090815260408083206001600160a01b038c16845290915290205485811015611fce5760405162461bcd60e51b815260040161077e9061355e565b60008781526065602090815260408083206001600160a01b038d8116855292528083208985039055908a1682528120805488929061200d9084906133b9565b909155505060408051888152602081018890526001600160a01b03808b16928c821692918816917fc3d58168c5ae7397731d063d5bbf3d657854427343f4c083240f7aacaa2d0f62910160405180910390a461206d848a8a8a8a8a6125ac565b505050505050505050565b6001600160a01b03831661209e5760405162461bcd60e51b815260040161077e906135ef565b3360006120aa84612561565b905060006120b784612561565b90506120d78387600085856040518060200160405280600081525061223d565b60008581526065602090815260408083206001600160a01b038a1684529091529020548481101561211a5760405162461bcd60e51b815260040161077e90613632565b60008681526065602090815260408083206001600160a01b038b81168086529184528285208a8703905582518b81529384018a90529092908816917fc3d58168c5ae7397731d063d5bbf3d657854427343f4c083240f7aacaa2d0f62910160405180910390a4604080516020810190915260009052611e53565b60006001600160e01b03198216636cdb3d1360e11b14806121c557506001600160e01b031982166303a24d0760e21b145b806107ac57506301ffc9a760e01b6001600160e01b03198316146107ac565b6121ee828261125d565b6107f0576121fb81612667565b612206836020612679565b6040516020016122179291906136c1565b60408051601f198184030181529082905262461bcd60e51b825261077e91600401612cf5565b61224561251b565b6117f586868686868661281b565b6001600160a01b0384163b156117f55760405163bc197c8160e01b81526001600160a01b0385169063bc197c81906122979089908990889088908890600401613736565b6020604051808303816000875af19250505080156122d2575060408051601f3d908101601f191682019092526122cf91810190613794565b60015b61237e576122de6137b1565b806308c379a00361231757506122f26137cc565b806122fd5750612319565b8060405162461bcd60e51b815260040161077e9190612cf5565b505b60405162461bcd60e51b815260206004820152603460248201527f455243313135353a207472616e7366657220746f206e6f6e2d455243313135356044820152732932b1b2b4bb32b91034b6b83632b6b2b73a32b960611b606482015260840161077e565b6001600160e01b0319811663bc197c8160e01b14611e535760405162461bcd60e51b815260040161077e90613855565b6001600160a01b0381163b61241b5760405162461bcd60e51b815260206004820152602d60248201527f455243313936373a206e657720696d706c656d656e746174696f6e206973206e60448201526c1bdd08184818dbdb9d1c9858dd609a1b606482015260840161077e565b60008051602061391683398151915280546001600160a01b0319166001600160a01b0392909216919091179055565b61245383612997565b6000825111806124605750805b15610afa57611c6c83836129d7565b60c95460ff16611cc95760405162461bcd60e51b815260206004820152601460248201527314185d5cd8589b194e881b9bdd081c185d5cd95960621b604482015260640161077e565b600054610100900460ff166124df5760405162461bcd60e51b815260040161077e90613676565b610cb681611644565b600054610100900460ff1661250f5760405162461bcd60e51b815260040161077e90613676565b60c9805460ff19169055565b60c95460ff1615611cc95760405162461bcd60e51b815260206004820152601060248201526f14185d5cd8589b194e881c185d5cd95960821b604482015260640161077e565b6040805160018082528183019092526060916000919060208083019080368337019050509050828160008151811061259b5761259b613379565b602090810291909101015292915050565b6001600160a01b0384163b156117f55760405163f23a6e6160e01b81526001600160a01b0385169063f23a6e61906125f0908990899088908890889060040161389d565b6020604051808303816000875af192505050801561262b575060408051601f3d908101601f1916820190925261262891810190613794565b60015b612637576122de6137b1565b6001600160e01b0319811663f23a6e6160e01b14611e535760405162461bcd60e51b815260040161077e90613855565b60606107ac6001600160a01b03831660145b6060600061268883600261338f565b6126939060026133b9565b6001600160401b038111156126aa576126aa612b79565b6040519080825280601f01601f1916602001820160405280156126d4576020820181803683370190505b509050600360fc1b816000815181106126ef576126ef613379565b60200101906001600160f81b031916908160001a905350600f60fb1b8160018151811061271e5761271e613379565b60200101906001600160f81b031916908160001a905350600061274284600261338f565b61274d9060016133b9565b90505b60018111156127c5576f181899199a1a9b1b9c1cb0b131b232b360811b85600f166010811061278157612781613379565b1a60f81b82828151811061279757612797613379565b60200101906001600160f81b031916908160001a90535060049490941c936127be816138e2565b9050612750565b5083156128145760405162461bcd60e51b815260206004820181905260248201527f537472696e67733a20686578206c656e67746820696e73756666696369656e74604482015260640161077e565b9392505050565b6001600160a01b0385166128a35760005b83518110156128a15782818151811061284757612847613379565b602002602001015161012d600086848151811061286657612866613379565b60200260200101518152602001908152602001600020600082825461288b91906133b9565b9091555061289a905081613240565b905061282c565b505b6001600160a01b0384166117f55760005b8351811015611e535760008482815181106128d1576128d1613379565b6020026020010151905060008483815181106128ef576128ef613379565b60200260200101519050600061012d6000848152602001908152602001600020549050818110156129735760405162461bcd60e51b815260206004820152602860248201527f455243313135353a206275726e20616d6f756e74206578636565647320746f74604482015267616c537570706c7960c01b606482015260840161077e565b600092835261012d60205260409092209103905561299081613240565b90506128b4565b6129a0816123ae565b6040516001600160a01b038216907fbc7cd75a20ee27fd9adebab32041f755214dbc6bffa90cc0225b39da2e5c2d3b90600090a250565b60606128148383604051806060016040528060278152602001613936602791396060600080856001600160a01b031685604051612a1491906138f9565b600060405180830381855af49150503d8060008114612a4f576040519150601f19603f3d011682016040523d82523d6000602084013e612a54565b606091505b5091509150612a6586838387612a6f565b9695505050505050565b60608315612ade578251600003612ad7576001600160a01b0385163b612ad75760405162461bcd60e51b815260206004820152601d60248201527f416464726573733a2063616c6c20746f206e6f6e2d636f6e7472616374000000604482015260640161077e565b5081612ae8565b612ae88383612af0565b949350505050565b8151156122fd5781518083602001fd5b80356001600160a01b0381168114612b1757600080fd5b919050565b60008060408385031215612b2f57600080fd5b612b3883612b00565b946020939093013593505050565b6001600160e01b031981168114610cb657600080fd5b600060208284031215612b6e57600080fd5b813561281481612b46565b634e487b7160e01b600052604160045260246000fd5b601f8201601f191681016001600160401b0381118282101715612bb457612bb4612b79565b6040525050565b60006001600160401b03831115612bd457612bd4612b79565b604051612beb601f8501601f191660200182612b8f565b809150838152848484011115612c0057600080fd5b83836020830137600060208583010152509392505050565b600060208284031215612c2a57600080fd5b81356001600160401b03811115612c4057600080fd5b8201601f81018413612c5157600080fd5b612ae884823560208401612bbb565b60008060408385031215612c7357600080fd5b82359150612c8360208401612b00565b90509250929050565b600060208284031215612c9e57600080fd5b5035919050565b60005b83811015612cc0578181015183820152602001612ca8565b50506000910152565b60008151808452612ce1816020860160208601612ca5565b601f01601f19169290920160200192915050565b6020815260006128146020830184612cc9565b634e487b7160e01b600052602160045260246000fd5b6080810160048610612d4057634e487b7160e01b600052602160045260246000fd5b948152602081019390935260408301919091526001600160a01b031660609091015290565b60006001600160401b03821115612d7e57612d7e612b79565b5060051b60200190565b600082601f830112612d9957600080fd5b81356020612da682612d65565b604051612db38282612b8f565b83815260059390931b8501820192828101915086841115612dd357600080fd5b8286015b84811015612dee5780358352918301918301612dd7565b509695505050505050565b600082601f830112612e0a57600080fd5b61281483833560208501612bbb565b600080600080600060a08688031215612e3157600080fd5b612e3a86612b00565b9450612e4860208701612b00565b935060408601356001600160401b0380821115612e6457600080fd5b612e7089838a01612d88565b94506060880135915080821115612e8657600080fd5b612e9289838a01612d88565b93506080880135915080821115612ea857600080fd5b50612eb588828901612df9565b9150509295509295909350565b600060208284031215612ed457600080fd5b61281482612b00565b60008060408385031215612ef057600080fd5b82356001600160401b0380821115612f0757600080fd5b818501915085601f830112612f1b57600080fd5b81356020612f2882612d65565b604051612f358282612b8f565b83815260059390931b8501820192828101915089841115612f5557600080fd5b948201945b83861015612f7a57612f6b86612b00565b82529482019490820190612f5a565b96505086013592505080821115612f9057600080fd5b50612f9d85828601612d88565b9150509250929050565b600081518084526020808501945080840160005b83811015612fd757815187529582019590820190600101612fbb565b509495945050505050565b6020815260006128146020830184612fa7565b6000806040838503121561300857600080fd5b61301183612b00565b915060208301356001600160401b0381111561302c57600080fd5b612f9d85828601612df9565b60008060006060848603121561304d57600080fd5b61305684612b00565b925060208401356001600160401b038082111561307257600080fd5b61307e87838801612d88565b9350604086013591508082111561309457600080fd5b506130a186828701612d88565b9150509250925092565b600080600080608085870312156130c157600080fd5b84359350602085013592506130d860408601612b00565b915060608501356001600160401b038111156130f357600080fd5b6130ff87828801612df9565b91505092959194509250565b6000806040838503121561311e57600080fd5b61312783612b00565b91506020830135801515811461313c57600080fd5b809150509250929050565b6000806040838503121561315a57600080fd5b50508035926020909101359150565b6000806040838503121561317c57600080fd5b61318583612b00565b9150612c8360208401612b00565b600080600080600060a086880312156131ab57600080fd5b6131b486612b00565b94506131c260208701612b00565b9350604086013592506060860135915060808601356001600160401b038111156131eb57600080fd5b612eb588828901612df9565b60008060006060848603121561320c57600080fd5b61321584612b00565b95602085013595506040909401359392505050565b634e487b7160e01b600052601160045260246000fd5b6000600182016132525761325261322a565b5060010190565b600181811c9082168061326d57607f821691505b60208210810361328d57634e487b7160e01b600052602260045260246000fd5b50919050565b6020808252602e908201527f455243313135353a2063616c6c6572206973206e6f7420746f6b656e206f776e60408201526d195c881bdc88185c1c1c9bdd995960921b606082015260800190565b6020808252602c908201527f46756e6374696f6e206d7573742062652063616c6c6564207468726f7567682060408201526b19195b1959d85d1958d85b1b60a21b606082015260800190565b6020808252602c908201527f46756e6374696f6e206d7573742062652063616c6c6564207468726f7567682060408201526b6163746976652070726f787960a01b606082015260800190565b634e487b7160e01b600052603260045260246000fd5b80820281158282048414176107ac576107ac61322a565b818103818111156107ac576107ac61322a565b808201808211156107ac576107ac61322a565b601f821115610afa57600081815260208120601f850160051c810160208610156133f35750805b601f850160051c820191505b818110156117f5578281556001016133ff565b81516001600160401b0381111561342b5761342b612b79565b61343f816134398454613259565b846133cc565b602080601f831160018114613474576000841561345c5750858301515b600019600386901b1c1916600185901b1785556117f5565b600085815260208120601f198616915b828110156134a357888601518255948401946001909101908401613484565b50858210156134c15787850151600019600388901b60f8161c191681555b5050505050600190811b01905550565b60208082526028908201527f455243313135353a2069647320616e6420616d6f756e7473206c656e677468206040820152670dad2e6dac2e8c6d60c31b606082015260800190565b60208082526025908201527f455243313135353a207472616e7366657220746f20746865207a65726f206164604082015264647265737360d81b606082015260800190565b6020808252602a908201527f455243313135353a20696e73756666696369656e742062616c616e636520666f60408201526939103a3930b739b332b960b11b606082015260800190565b6040815260006135bb6040830185612fa7565b82810360208401526135cd8185612fa7565b95945050505050565b6000602082840312156135e857600080fd5b5051919050565b60208082526023908201527f455243313135353a206275726e2066726f6d20746865207a65726f206164647260408201526265737360e81b606082015260800190565b60208082526024908201527f455243313135353a206275726e20616d6f756e7420657863656564732062616c604082015263616e636560e01b606082015260800190565b6020808252602b908201527f496e697469616c697a61626c653a20636f6e7472616374206973206e6f74206960408201526a6e697469616c697a696e6760a81b606082015260800190565b7f416363657373436f6e74726f6c3a206163636f756e74200000000000000000008152600083516136f9816017850160208801612ca5565b7001034b99036b4b9b9b4b733903937b6329607d1b601791840191820152835161372a816028840160208801612ca5565b01602801949350505050565b6001600160a01b0386811682528516602082015260a06040820181905260009061376290830186612fa7565b82810360608401526137748186612fa7565b905082810360808401526137888185612cc9565b98975050505050505050565b6000602082840312156137a657600080fd5b815161281481612b46565b600060033d1115610f915760046000803e5060005160e01c90565b600060443d10156137da5790565b6040516003193d81016004833e81513d6001600160401b03816024840111818411171561380957505050505090565b82850191508151818111156138215750505050505090565b843d870101602082850101111561383b5750505050505090565b61384a60208286010187612b8f565b509095945050505050565b60208082526028908201527f455243313135353a204552433131353552656365697665722072656a656374656040820152676420746f6b656e7360c01b606082015260800190565b6001600160a01b03868116825285166020820152604081018490526060810183905260a0608082018190526000906138d790830184612cc9565b979650505050505050565b6000816138f1576138f161322a565b506000190190565b6000825161390b818460208701612ca5565b919091019291505056fe360894a13ba1a3210667c828492db98dca3e2076cc3735a920a3ca505d382bbc416464726573733a206c6f772d6c6576656c2064656c65676174652063616c6c206661696c6564a2646970667358221220ef9af24f3f07376470341dc66f41a3c83eeb679329a98f7eff9cac3c0af4720964736f6c63430008130033",
  "linkReferences": {},
  "deployedLinkReferences": {}
}