{
  "_format": "hh-sol-artifact-1",
  "contractName": "RadarEditions",
  "sourceName": "src/RadarEditions.sol",
  "abi": [
    {
      "inputs": [],
      "stateMutability": "nonpayable",
      "type": "constructor"
    },
    {
      "inputs": [],
      "name": "EditionFeeExceedsProtocolFee",
      "type": "error"
    },
    {
      "inputs": [],
      "name": "EditionNotCreated",
      "type": "error"
    },
    {
      "inputs": [],
      "name": "EditionNotEnoughBalance",
      "type": "error"
    },
    {
      "inputs": [],
      "name": "EditionNotLaunched",
      "type": "error"
    },
    {
      "inputs": [],
      "name": "EditionNotStopped",
      "type": "error"
    },
    {
      "inputs": [],
      "name": "NotEditionOwner",
      "type": "error"
    },
    {
      "inputs": [],
      "name": "NotEnoughFunds",
      "type": "error"
    },
    {
      "inputs": [],
      "name": "TransactionFailed",
      "type": "error"
    },
    {
      "anonymous": false,
      "inputs": [
        {
          "indexed": false,
          "internalType": "address",
          "name": "previousAdmin",
          "type": "address"
        },
        {
          "indexed": false,
          "internalType": "address",
          "name": "newAdmin",
          "type": "address"
        }
      ],
      "name": "AdminChanged",
      "type": "event"
    },
    {
      "anonymous": false,
      "inputs": [
        {
          "indexed": true,
          "internalType": "address",
          "name": "account",
          "type": "address"
        },
        {
          "indexed": true,
          "internalType": "address",
          "name": "operator",
          "type": "address"
        },
        {
          "indexed": false,
          "internalType": "bool",
          "name": "approved",
          "type": "bool"
        }
      ],
      "name": "ApprovalForAll",
      "type": "event"
    },
    {
      "anonymous": false,
      "inputs": [
        {
          "indexed": true,
          "internalType": "address",
          "name": "beacon",
          "type": "address"
        }
      ],
      "name": "BeaconUpgraded",
      "type": "event"
    },
    {
      "anonymous": false,
      "inputs": [
        {
          "indexed": false,
          "internalType": "uint256",
          "name": "editionId",
          "type": "uint256"
        }
      ],
      "name": "EditionApproved",
      "type": "event"
    },
    {
      "anonymous": false,
      "inputs": [
        {
          "indexed": false,
          "internalType": "uint256",
          "name": "editionId",
          "type": "uint256"
        },
        {
          "indexed": false,
          "internalType": "uint256",
          "name": "amount",
          "type": "uint256"
        },
        {
          "indexed": false,
          "internalType": "address",
          "name": "owner",
          "type": "address"
        }
      ],
      "name": "EditionBalanceWithdrawn",
      "type": "event"
    },
    {
      "anonymous": false,
      "inputs": [
        {
          "indexed": false,
          "internalType": "uint256",
          "name": "editionId",
          "type": "uint256"
        },
        {
          "indexed": false,
          "internalType": "uint256",
          "name": "fee",
          "type": "uint256"
        },
        {
          "indexed": false,
          "internalType": "address",
          "name": "owner",
          "type": "address"
        }
      ],
      "name": "EditionCreated",
      "type": "event"
    },
    {
      "anonymous": false,
      "inputs": [
        {
          "indexed": false,
          "internalType": "uint256",
          "name": "editionId",
          "type": "uint256"
        }
      ],
      "name": "EditionResumed",
      "type": "event"
    },
    {
      "anonymous": false,
      "inputs": [
        {
          "indexed": false,
          "internalType": "uint256",
          "name": "editionId",
          "type": "uint256"
        }
      ],
      "name": "EditionStopped",
      "type": "event"
    },
    {
      "anonymous": false,
      "inputs": [
        {
          "indexed": false,
          "internalType": "uint8",
          "name": "version",
          "type": "uint8"
        }
      ],
      "name": "Initialized",
      "type": "event"
    },
    {
      "anonymous": false,
      "inputs": [
        {
          "indexed": false,
          "internalType": "address",
          "name": "account",
          "type": "address"
        }
      ],
      "name": "Paused",
      "type": "event"
    },
    {
      "anonymous": false,
      "inputs": [
        {
          "indexed": true,
          "internalType": "bytes32",
          "name": "role",
          "type": "bytes32"
        },
        {
          "indexed": true,
          "internalType": "bytes32",
          "name": "previousAdminRole",
          "type": "bytes32"
        },
        {
          "indexed": true,
          "internalType": "bytes32",
          "name": "newAdminRole",
          "type": "bytes32"
        }
      ],
      "name": "RoleAdminChanged",
      "type": "event"
    },
    {
      "anonymous": false,
      "inputs": [
        {
          "indexed": true,
          "internalType": "bytes32",
          "name": "role",
          "type": "bytes32"
        },
        {
          "indexed": true,
          "internalType": "address",
          "name": "account",
          "type": "address"
        },
        {
          "indexed": true,
          "internalType": "address",
          "name": "sender",
          "type": "address"
        }
      ],
      "name": "RoleGranted",
      "type": "event"
    },
    {
      "anonymous": false,
      "inputs": [
        {
          "indexed": true,
          "internalType": "bytes32",
          "name": "role",
          "type": "bytes32"
        },
        {
          "indexed": true,
          "internalType": "address",
          "name": "account",
          "type": "address"
        },
        {
          "indexed": true,
          "internalType": "address",
          "name": "sender",
          "type": "address"
        }
      ],
      "name": "RoleRevoked",
      "type": "event"
    },
    {
      "anonymous": false,
      "inputs": [
        {
          "indexed": true,
          "internalType": "address",
          "name": "operator",
          "type": "address"
        },
        {
          "indexed": true,
          "internalType": "address",
          "name": "from",
          "type": "address"
        },
        {
          "indexed": true,
          "internalType": "address",
          "name": "to",
          "type": "address"
        },
        {
          "indexed": false,
          "internalType": "uint256[]",
          "name": "ids",
          "type": "uint256[]"
        },
        {
          "indexed": false,
          "internalType": "uint256[]",
          "name": "values",
          "type": "uint256[]"
        }
      ],
      "name": "TransferBatch",
      "type": "event"
    },
    {
      "anonymous": false,
      "inputs": [
        {
          "indexed": true,
          "internalType": "address",
          "name": "operator",
          "type": "address"
        },
        {
          "indexed": true,
          "internalType": "address",
          "name": "from",
          "type": "address"
        },
        {
          "indexed": true,
          "internalType": "address",
          "name": "to",
          "type": "address"
        },
        {
          "indexed": false,
          "internalType": "uint256",
          "name": "id",
          "type": "uint256"
        },
        {
          "indexed": false,
          "internalType": "uint256",
          "name": "value",
          "type": "uint256"
        }
      ],
      "name": "TransferSingle",
      "type": "event"
    },
    {
      "anonymous": false,
      "inputs": [
        {
          "indexed": false,
          "internalType": "string",
          "name": "value",
          "type": "string"
        },
        {
          "indexed": true,
          "internalType": "uint256",
          "name": "id",
          "type": "uint256"
        }
      ],
      "name": "URI",
      "type": "event"
    },
    {
      "anonymous": false,
      "inputs": [
        {
          "indexed": false,
          "internalType": "address",
          "name": "account",
          "type": "address"
        }
      ],
      "name": "Unpaused",
      "type": "event"
    },
    {
      "anonymous": false,
      "inputs": [
        {
          "indexed": true,
          "internalType": "address",
          "name": "implementation",
          "type": "address"
        }
      ],
      "name": "Upgraded",
      "type": "event"
    },
    {
      "stateMutability": "payable",
      "type": "fallback"
    },
    {
      "inputs": [],
      "name": "DEFAULT_ADMIN_ROLE",
      "outputs": [
        {
          "internalType": "bytes32",
          "name": "",
          "type": "bytes32"
        }
      ],
      "stateMutability": "view",
      "type": "function"
    },
    {
      "inputs": [
        {
          "internalType": "uint256",
          "name": "editionId",
          "type": "uint256"
        }
      ],
      "name": "approveEdition",
      "outputs": [],
      "stateMutability": "nonpayable",
      "type": "function"
    },
    {
      "inputs": [
        {
          "internalType": "address",
          "name": "account",
          "type": "address"
        },
        {
          "internalType": "uint256",
          "name": "id",
          "type": "uint256"
        }
      ],
      "name": "balanceOf",
      "outputs": [
        {
          "internalType": "uint256",
          "name": "",
          "type": "uint256"
        }
      ],
      "stateMutability": "view",
      "type": "function"
    },
    {
      "inputs": [
        {
          "internalType": "address[]",
          "name": "accounts",
          "type": "address[]"
        },
        {
          "internalType": "uint256[]",
          "name": "ids",
          "type": "uint256[]"
        }
      ],
      "name": "balanceOfBatch",
      "outputs": [
        {
          "internalType": "uint256[]",
          "name": "",
          "type": "uint256[]"
        }
      ],
      "stateMutability": "view",
      "type": "function"
    },
    {
      "inputs": [
        {
          "internalType": "address",
          "name": "account",
          "type": "address"
        },
        {
          "internalType": "uint256",
          "name": "id",
          "type": "uint256"
        },
        {
          "internalType": "uint256",
          "name": "value",
          "type": "uint256"
        }
      ],
      "name": "burn",
      "outputs": [],
      "stateMutability": "nonpayable",
      "type": "function"
    },
    {
      "inputs": [
        {
          "internalType": "address",
          "name": "account",
          "type": "address"
        },
        {
          "internalType": "uint256[]",
          "name": "ids",
          "type": "uint256[]"
        },
        {
          "internalType": "uint256[]",
          "name": "values",
          "type": "uint256[]"
        }
      ],
      "name": "burnBatch",
      "outputs": [],
      "stateMutability": "nonpayable",
      "type": "function"
    },
    {
      "inputs": [
        {
          "internalType": "uint256",
          "name": "fee",
          "type": "uint256"
        },
        {
          "internalType": "address",
          "name": "owner",
          "type": "address"
        },
        {
          "internalType": "address",
          "name": "admin",
          "type": "address"
        }
      ],
      "name": "createEdition",
      "outputs": [
        {
          "internalType": "uint256",
          "name": "editionId",
          "type": "uint256"
        }
      ],
      "stateMutability": "nonpayable",
      "type": "function"
    },
    {
      "inputs": [],
      "name": "editionCounter",
      "outputs": [
        {
          "internalType": "uint256",
          "name": "",
          "type": "uint256"
        }
      ],
      "stateMutability": "view",
      "type": "function"
    },
    {
      "inputs": [
        {
          "internalType": "uint256",
          "name": "",
          "type": "uint256"
        }
      ],
      "name": "editions",
      "outputs": [
        {
          "internalType": "enum EditionsStructs.EditionStatus",
          "name": "status",
          "type": "uint8"
        },
        {
          "internalType": "uint256",
          "name": "fee",
          "type": "uint256"
        },
        {
          "internalType": "uint256",
          "name": "balance",
          "type": "uint256"
        },
        {
          "internalType": "address",
          "name": "owner",
          "type": "address"
        }
      ],
      "stateMutability": "view",
      "type": "function"
    },
    {
      "inputs": [
        {
          "internalType": "uint256",
          "name": "id",
          "type": "uint256"
        }
      ],
      "name": "exists",
      "outputs": [
        {
          "internalType": "bool",
          "name": "",
          "type": "bool"
        }
      ],
      "stateMutability": "view",
      "type": "function"
    },
    {
      "inputs": [
        {
          "internalType": "bytes32",
          "name": "role",
          "type": "bytes32"
        }
      ],
      "name": "getRoleAdmin",
      "outputs": [
        {
          "internalType": "bytes32",
          "name": "",
          "type": "bytes32"
        }
      ],
      "stateMutability": "view",
      "type": "function"
    },
    {
      "inputs": [
        {
          "internalType": "bytes32",
          "name": "role",
          "type": "bytes32"
        },
        {
          "internalType": "address",
          "name": "account",
          "type": "address"
        }
      ],
      "name": "grantRole",
      "outputs": [],
      "stateMutability": "nonpayable",
      "type": "function"
    },
    {
      "inputs": [
        {
          "internalType": "bytes32",
          "name": "role",
          "type": "bytes32"
        },
        {
          "internalType": "address",
          "name": "account",
          "type": "address"
        }
      ],
      "name": "hasRole",
      "outputs": [
        {
          "internalType": "bool",
          "name": "",
          "type": "bool"
        }
      ],
      "stateMutability": "view",
      "type": "function"
    },
    {
      "inputs": [],
      "name": "initialize",
      "outputs": [],
      "stateMutability": "nonpayable",
      "type": "function"
    },
    {
      "inputs": [
        {
          "internalType": "address",
          "name": "account",
          "type": "address"
        },
        {
          "internalType": "address",
          "name": "operator",
          "type": "address"
        }
      ],
      "name": "isApprovedForAll",
      "outputs": [
        {
          "internalType": "bool",
          "name": "",
          "type": "bool"
        }
      ],
      "stateMutability": "view",
      "type": "function"
    },
    {
      "inputs": [
        {
          "internalType": "uint256",
          "name": "editionId",
          "type": "uint256"
        },
        {
          "internalType": "uint256",
          "name": "amount",
          "type": "uint256"
        },
        {
          "internalType": "address",
          "name": "buyer",
          "type": "address"
        },
        {
          "internalType": "bytes",
          "name": "data",
          "type": "bytes"
        }
      ],
      "name": "mintEdition",
      "outputs": [],
      "stateMutability": "payable",
      "type": "function"
    },
    {
      "inputs": [],
      "name": "pause",
      "outputs": [],
      "stateMutability": "nonpayable",
      "type": "function"
    },
    {
      "inputs": [],
      "name": "paused",
      "outputs": [
        {
          "internalType": "bool",
          "name": "",
          "type": "bool"
        }
      ],
      "stateMutability": "view",
      "type": "function"
    },
    {
      "inputs": [],
      "name": "protocolFee",
      "outputs": [
        {
          "internalType": "uint256",
          "name": "",
          "type": "uint256"
        }
      ],
      "stateMutability": "view",
      "type": "function"
    },
    {
      "inputs": [],
      "name": "proxiableUUID",
      "outputs": [
        {
          "internalType": "bytes32",
          "name": "",
          "type": "bytes32"
        }
      ],
      "stateMutability": "view",
      "type": "function"
    },
    {
      "inputs": [
        {
          "internalType": "bytes32",
          "name": "role",
          "type": "bytes32"
        },
        {
          "internalType": "address",
          "name": "account",
          "type": "address"
        }
      ],
      "name": "renounceRole",
      "outputs": [],
      "stateMutability": "nonpayable",
      "type": "function"
    },
    {
      "inputs": [
        {
          "internalType": "uint256",
          "name": "editionId",
          "type": "uint256"
        }
      ],
      "name": "resumeEdition",
      "outputs": [],
      "stateMutability": "nonpayable",
      "type": "function"
    },
    {
      "inputs": [
        {
          "internalType": "bytes32",
          "name": "role",
          "type": "bytes32"
        },
        {
          "internalType": "address",
          "name": "account",
          "type": "address"
        }
      ],
      "name": "revokeRole",
      "outputs": [],
      "stateMutability": "nonpayable",
      "type": "function"
    },
    {
      "inputs": [
        {
          "internalType": "address",
          "name": "from",
          "type": "address"
        },
        {
          "internalType": "address",
          "name": "to",
          "type": "address"
        },
        {
          "internalType": "uint256[]",
          "name": "ids",
          "type": "uint256[]"
        },
        {
          "internalType": "uint256[]",
          "name": "amounts",
          "type": "uint256[]"
        },
        {
          "internalType": "bytes",
          "name": "data",
          "type": "bytes"
        }
      ],
      "name": "safeBatchTransferFrom",
      "outputs": [],
      "stateMutability": "nonpayable",
      "type": "function"
    },
    {
      "inputs": [
        {
          "internalType": "address",
          "name": "from",
          "type": "address"
        },
        {
          "internalType": "address",
          "name": "to",
          "type": "address"
        },
        {
          "internalType": "uint256",
          "name": "id",
          "type": "uint256"
        },
        {
          "internalType": "uint256",
          "name": "amount",
          "type": "uint256"
        },
        {
          "internalType": "bytes",
          "name": "data",
          "type": "bytes"
        }
      ],
      "name": "safeTransferFrom",
      "outputs": [],
      "stateMutability": "nonpayable",
      "type": "function"
    },
    {
      "inputs": [
        {
          "internalType": "address",
          "name": "operator",
          "type": "address"
        },
        {
          "internalType": "bool",
          "name": "approved",
          "type": "bool"
        }
      ],
      "name": "setApprovalForAll",
      "outputs": [],
      "stateMutability": "nonpayable",
      "type": "function"
    },
    {
      "inputs": [
        {
          "internalType": "uint256",
          "name": "_protocolFee",
          "type": "uint256"
        }
      ],
      "name": "setProtocolFee",
      "outputs": [],
      "stateMutability": "nonpayable",
      "type": "function"
    },
    {
      "inputs": [
        {
          "internalType": "string",
          "name": "newuri",
          "type": "string"
        }
      ],
      "name": "setURI",
      "outputs": [],
      "stateMutability": "nonpayable",
      "type": "function"
    },
    {
      "inputs": [
        {
          "internalType": "uint256",
          "name": "editionId",
          "type": "uint256"
        }
      ],
      "name": "stopEdition",
      "outputs": [],
      "stateMutability": "nonpayable",
      "type": "function"
    },
    {
      "inputs": [
        {
          "internalType": "bytes4",
          "name": "interfaceId",
          "type": "bytes4"
        }
      ],
      "name": "supportsInterface",
      "outputs": [
        {
          "internalType": "bool",
          "name": "",
          "type": "bool"
        }
      ],
      "stateMutability": "view",
      "type": "function"
    },
    {
      "inputs": [
        {
          "internalType": "uint256",
          "name": "id",
          "type": "uint256"
        }
      ],
      "name": "totalSupply",
      "outputs": [
        {
          "internalType": "uint256",
          "name": "",
          "type": "uint256"
        }
      ],
      "stateMutability": "view",
      "type": "function"
    },
    {
      "inputs": [],
      "name": "unpause",
      "outputs": [],
      "stateMutability": "nonpayable",
      "type": "function"
    },
    {
      "inputs": [
        {
          "internalType": "address",
          "name": "newImplementation",
          "type": "address"
        }
      ],
      "name": "upgradeTo",
      "outputs": [],
      "stateMutability": "nonpayable",
      "type": "function"
    },
    {
      "inputs": [
        {
          "internalType": "address",
          "name": "newImplementation",
          "type": "address"
        },
        {
          "internalType": "bytes",
          "name": "data",
          "type": "bytes"
        }
      ],
      "name": "upgradeToAndCall",
      "outputs": [],
      "stateMutability": "payable",
      "type": "function"
    },
    {
      "inputs": [
        {
          "internalType": "uint256",
          "name": "",
          "type": "uint256"
        }
      ],
      "name": "uri",
      "outputs": [
        {
          "internalType": "string",
          "name": "",
          "type": "string"
        }
      ],
      "stateMutability": "view",
      "type": "function"
    },
    {
      "inputs": [
        {
          "internalType": "uint256",
          "name": "editionId",
          "type": "uint256"
        },
        {
          "internalType": "uint256",
          "name": "amount",
          "type": "uint256"
        }
      ],
      "name": "withdrawEditionBalance",
      "outputs": [],
      "stateMutability": "nonpayable",
      "type": "function"
    },
    {
      "inputs": [
        {
          "internalType": "uint256",
          "name": "amount",
          "type": "uint256"
        }
      ],
      "name": "withdrawFunds",
      "outputs": [],
      "stateMutability": "nonpayable",
      "type": "function"
    },
    {
      "stateMutability": "payable",
      "type": "receive"
    }
  ],
  "bytecode": "0x60a0604052306080523480156200001557600080fd5b506200002062000026565b620000e7565b600054610100900460ff1615620000935760405162461bcd60e51b815260206004820152602760248201527f496e697469616c697a61626c653a20636f6e747261637420697320696e697469604482015266616c697a696e6760c81b606482015260840160405180910390fd5b60005460ff90811614620000e5576000805460ff191660ff9081179091556040519081527f7f26b83ff96e1f2b6a682f133852f6798a09c465da95921460cefb38474024989060200160405180910390a15b565b6080516139db6200011f60003960008181610ab701528181610af701528181610cf101528181610d310152610dc001526139db6000f3fe6080604052600436106102055760003560e01c80636b20c45411610117578063b0e21e8a116100a5578063da4d4ef01161006c578063da4d4ef01461064e578063e985e9c51461066e578063f242432a146106b7578063f5298aca146106d7578063fc74efa2146106f757005b8063b0e21e8a146105b2578063bd85b039146105c9578063c6fbb712146105f7578063d547741f1461060e578063d667c9ce1461062e57005b80638456cb59116100e95780638456cb591461053557806391d148541461054a578063940123da1461056a578063a217fddf1461057d578063a22cb4651461059257005b80636b20c454146104c05780637357628c146104e0578063787dce3d146105005780638129fc1c1461052057005b80632f2ff15d116101945780634e1273f4116101665780634e1273f4146104235780634f1ef286146104505780634f558e791461046357806352d1902d146104935780635c975abb146104a857005b80632f2ff15d146103ae57806336568abe146103ce5780633659cfe6146103ee5780633f4ba83a1461040e57005b80630e89341c116101d85780630e89341c146102b1578063155dd5ee146102de578063248a9ca3146102fe578063279c806e1461032e5780632eb2c2d61461038e57005b8062fdd58e1461020e57806301ffc9a71461024157806302fe5305146102715780630a579eca1461029157005b3661020c57005b005b34801561021a57600080fd5b5061022e610229366004612b29565b610717565b6040519081526020015b60405180910390f35b34801561024d57600080fd5b5061026161025c366004612b69565b6107b2565b6040519015158152602001610238565b34801561027d57600080fd5b5061020c61028c366004612c25565b6107bd565b34801561029d57600080fd5b5061020c6102ac366004612c6d565b6107f4565b3480156102bd57600080fd5b506102d16102cc366004612c6d565b6108c5565b6040516102389190612cd6565b3480156102ea57600080fd5b5061020c6102f9366004612c6d565b610959565b34801561030a57600080fd5b5061022e610319366004612c6d565b60009081526097602052604090206001015490565b34801561033a57600080fd5b5061037e610349366004612c6d565b6101c460205260009081526040902080546001820154600283015460039093015460ff9092169290916001600160a01b031684565b6040516102389493929190612cff565b34801561039a57600080fd5b5061020c6103a9366004612dfa565b6109d2565b3480156103ba57600080fd5b5061020c6103c9366004612ea3565b610a1e565b3480156103da57600080fd5b5061020c6103e9366004612ea3565b610a33565b3480156103fa57600080fd5b5061020c610409366004612ecf565b610aad565b34801561041a57600080fd5b5061020c610b8c565b34801561042f57600080fd5b5061044361043e366004612eea565b610bbe565b6040516102389190612fef565b61020c61045e366004613002565b610ce7565b34801561046f57600080fd5b5061026161047e366004612c6d565b600090815261012d6020526040902054151590565b34801561049f57600080fd5b5061022e610db3565b3480156104b457600080fd5b5060c95460ff16610261565b3480156104cc57600080fd5b5061020c6104db366004613045565b610e67565b3480156104ec57600080fd5b5061020c6104fb366004612c6d565b610eaa565b34801561050c57600080fd5b5061020c61051b366004612c6d565b610f4b565b34801561052c57600080fd5b5061020c610f5d565b34801561054157600080fd5b5061020c6110fe565b34801561055657600080fd5b50610261610565366004612ea3565b611130565b61020c6105783660046130b8565b61115b565b34801561058957600080fd5b5061022e600081565b34801561059e57600080fd5b5061020c6105ad366004613118565b611224565b3480156105be57600080fd5b5061022e6101c35481565b3480156105d557600080fd5b5061022e6105e4366004612c6d565b600090815261012d602052604090205490565b34801561060357600080fd5b5061022e6101c55481565b34801561061a57600080fd5b5061020c610629366004612ea3565b61122f565b34801561063a57600080fd5b5061020c610649366004613154565b611254565b34801561065a57600080fd5b5061022e610669366004613176565b611396565b34801561067a57600080fd5b506102616106893660046131b2565b6001600160a01b03918216600090815260666020908152604080832093909416825291909152205460ff1690565b3480156106c357600080fd5b5061020c6106d23660046131dc565b6114d0565b3480156106e357600080fd5b5061020c6106f2366004613240565b611515565b34801561070357600080fd5b5061020c610712366004612c6d565b611558565b60006001600160a01b0383166107875760405162461bcd60e51b815260206004820152602a60248201527f455243313135353a2061646472657373207a65726f206973206e6f742061207660448201526930b634b21037bbb732b960b11b60648201526084015b60405180910390fd5b5060008181526065602090815260408083206001600160a01b03861684529091529020545b92915050565b60006107ac82611622565b7f7804d923f43a17d325d77e781528e0793b2edd9890ab45fc64efd7b4b427744c6107e781611647565b6107f082611651565b5050565b60008181526101c460205260409020600301546001600160a01b0316331461082f5760405163388f811f60e01b815260040160405180910390fd5b600260008281526101c4602052604090205460ff16600381111561085557610855612ce9565b1461087357604051631f0fb6fd60e11b815260040160405180910390fd5b60008181526101c46020908152604091829020805460ff1916600317905590518281527f591913f977ab242c5871f116f36be231ff67df5e8e0bac1efd91fa8a723aca2b91015b60405180910390a150565b6060606780546108d490613273565b80601f016020809104026020016040519081016040528092919081815260200182805461090090613273565b801561094d5780601f106109225761010080835404028352916020019161094d565b820191906000526020600020905b81548152906001019060200180831161093057829003601f168201915b50505050509050919050565b600061096481611647565b604051600090339084908381818185875af1925050503d80600081146109a6576040519150601f19603f3d011682016040523d82523d6000602084013e6109ab565b606091505b50509050806109cd576040516317f2c34560e31b815260040160405180910390fd5b505050565b6001600160a01b0385163314806109ee57506109ee8533610689565b610a0a5760405162461bcd60e51b815260040161077e906132ad565b610a17858585858561165d565b5050505050565b6000610a2981611647565b6109cd838361180a565b6001600160a01b0381163314610aa35760405162461bcd60e51b815260206004820152602f60248201527f416363657373436f6e74726f6c3a2063616e206f6e6c792072656e6f756e636560448201526e103937b632b9903337b91039b2b63360891b606482015260840161077e565b6107f08282611890565b6001600160a01b037f0000000000000000000000000000000000000000000000000000000000000000163003610af55760405162461bcd60e51b815260040161077e906132fb565b7f00000000000000000000000000000000000000000000000000000000000000006001600160a01b0316610b3e60008051602061395f833981519152546001600160a01b031690565b6001600160a01b031614610b645760405162461bcd60e51b815260040161077e90613347565b610b6d816118f7565b60408051600080825260208201909252610b8991839190611921565b50565b7f65d7a28e3265b37a6474929f336521b332c1681b933f6cb9f3376673440d862a610bb681611647565b610b89611a8c565b60608151835114610c235760405162461bcd60e51b815260206004820152602960248201527f455243313135353a206163636f756e747320616e6420696473206c656e677468604482015268040dad2e6dac2e8c6d60bb1b606482015260840161077e565b600083516001600160401b03811115610c3e57610c3e612b86565b604051908082528060200260200182016040528015610c67578160200160208202803683370190505b50905060005b8451811015610cdf57610cb2858281518110610c8b57610c8b613393565b6020026020010151858381518110610ca557610ca5613393565b6020026020010151610717565b828281518110610cc457610cc4613393565b6020908102919091010152610cd8816133bf565b9050610c6d565b509392505050565b6001600160a01b037f0000000000000000000000000000000000000000000000000000000000000000163003610d2f5760405162461bcd60e51b815260040161077e906132fb565b7f00000000000000000000000000000000000000000000000000000000000000006001600160a01b0316610d7860008051602061395f833981519152546001600160a01b031690565b6001600160a01b031614610d9e5760405162461bcd60e51b815260040161077e90613347565b610da7826118f7565b6107f082826001611921565b6000306001600160a01b037f00000000000000000000000000000000000000000000000000000000000000001614610e535760405162461bcd60e51b815260206004820152603860248201527f555550535570677261646561626c653a206d757374206e6f742062652063616c60448201527f6c6564207468726f7567682064656c656761746563616c6c0000000000000000606482015260840161077e565b5060008051602061395f8339815191525b90565b6001600160a01b038316331480610e835750610e838333610689565b610e9f5760405162461bcd60e51b815260040161077e906132ad565b6109cd838383611ade565b6000610eb581611647565b600160008381526101c4602052604090205460ff166003811115610edb57610edb612ce9565b14610ef95760405163137c9c1f60e31b815260040160405180910390fd5b60008281526101c46020908152604091829020805460ff1916600217905590518381527f8f4352ac8b4aefdd2333162306bbe09dd4f4ff6661e89ccc4e4dcced8794e8f7910160405180910390a15050565b6000610f5681611647565b506101c355565b600054610100900460ff1615808015610f7d5750600054600160ff909116105b80610f975750303b158015610f97575060005460ff166001145b610ffa5760405162461bcd60e51b815260206004820152602e60248201527f496e697469616c697a61626c653a20636f6e747261637420697320616c72656160448201526d191e481a5b9a5d1a585b1a5e995960921b606482015260840161077e565b6000805460ff19166001179055801561101d576000805461ff0019166101001790555b61103560405180602001604052806000815250611c7f565b61103d611caf565b611045611cd8565b61104d611caf565b611055611caf565b61105d611caf565b61106860003361180a565b6110927f7804d923f43a17d325d77e781528e0793b2edd9890ab45fc64efd7b4b427744c3361180a565b6110bc7f65d7a28e3265b37a6474929f336521b332c1681b933f6cb9f3376673440d862a3361180a565b8015610b89576000805461ff0019169055604051600181527f7f26b83ff96e1f2b6a682f133852f6798a09c465da95921460cefb3847402498906020016108ba565b7f65d7a28e3265b37a6474929f336521b332c1681b933f6cb9f3376673440d862a61112881611647565b610b89611d07565b60009182526097602090815260408084206001600160a01b0393909316845291905290205460ff1690565b600260008581526101c4602052604090205460ff16600381111561118157611181612ce9565b1461119f57604051631f0fb6fd60e11b815260040160405180910390fd5b60008481526101c460205260409020600101546111bd9084906133d8565b3410156111dd57604051631036b5ad60e31b815260040160405180910390fd5b6111e982858584611d44565b6101c3546111f790346133ef565b60008581526101c4602052604081206002018054909190611219908490613402565b909155505050505050565b6107f0338383611e69565b60008281526097602052604090206001015461124a81611647565b6109cd8383611890565b60008281526101c460205260409020600301546001600160a01b0316331461128f5760405163388f811f60e01b815260040160405180910390fd5b60008281526101c460205260409020600201548111156112c257604051637eafab7d60e01b815260040160405180910390fd5b604051600090339083908381818185875af1925050503d8060008114611304576040519150601f19603f3d011682016040523d82523d6000602084013e611309565b606091505b505090508061132b576040516317f2c34560e31b815260040160405180910390fd5b60008381526101c460205260408120600201805484929061134d9084906133ef565b90915550506040805184815260208101849052338183015290517ff1090e9d5138cd4909542e10e1da576730b07eb291a71a151e63160dde345b949181900360600190a1505050565b60006101c3548411156113bc57604051636a61a41960e11b815260040160405180910390fd5b506101c554604080516080810190915280600181526020808201879052600060408084018290526001600160a01b0388166060909401939093528481526101c49091522081518154829060ff1916600183600381111561141e5761141e612ce9565b02179055506020820151600182015560408201516002820155606090910151600390910180546001600160a01b0319166001600160a01b039092169190911790556101c58054906000611470836133bf565b909155506114819050600083610a1e565b60408051828152602081018690526001600160a01b0385168183015290517f7fe7f72f14a53255f3c9e225ab1d40fdb21335b87a7912726a196fb816866ae09181900360600190a19392505050565b6001600160a01b0385163314806114ec57506114ec8533610689565b6115085760405162461bcd60e51b815260040161077e906132ad565b610a178585858585611f49565b6001600160a01b03831633148061153157506115318333610689565b61154d5760405162461bcd60e51b815260040161077e906132ad565b6109cd838383612085565b60008181526101c460205260409020600301546001600160a01b031633146115935760405163388f811f60e01b815260040160405180910390fd5b600360008281526101c4602052604090205460ff1660038111156115b9576115b9612ce9565b146115d75760405163968807a560e01b815260040160405180910390fd5b60008181526101c46020908152604091829020805460ff1916600217905590518281527f63bb17c9645a29322601b4fe88d8f3fa84f32229368294f903084be8f5d813ba91016108ba565b60006001600160e01b03198216637965db0b60e01b14806107ac57506107ac826121a1565b610b8981336121f1565b60676107f0828261345b565b815183511461167e5760405162461bcd60e51b815260040161077e9061351a565b6001600160a01b0384166116a45760405162461bcd60e51b815260040161077e90613562565b336116b381878787878761224a565b60005b845181101561179c5760008582815181106116d3576116d3613393565b6020026020010151905060008583815181106116f1576116f1613393565b60209081029190910181015160008481526065835260408082206001600160a01b038e1683529093529190912054909150818110156117425760405162461bcd60e51b815260040161077e906135a7565b60008381526065602090815260408083206001600160a01b038e8116855292528083208585039055908b16825281208054849290611781908490613402565b9250508190555050505080611795906133bf565b90506116b6565b50846001600160a01b0316866001600160a01b0316826001600160a01b03167f4a39dc06d4c0dbc64b70af90fd698a233a518aa5d07e595d983b8c0526c8f7fb87876040516117ec9291906135f1565b60405180910390a4611802818787878787612260565b505050505050565b6118148282611130565b6107f05760008281526097602090815260408083206001600160a01b03851684529091529020805460ff1916600117905561184c3390565b6001600160a01b0316816001600160a01b0316837f2f8788117e7eff1d82e926ec794901d17c78024a50270940304540a733656f0d60405160405180910390a45050565b61189a8282611130565b156107f05760008281526097602090815260408083206001600160a01b0385168085529252808320805460ff1916905551339285917ff6391f5c32d9c69d2a47ea670b442974b53935d1edc7fd64eb21e047a839171b9190a45050565b7f189ab7a9244df0848122154315af71fe140f3db0fe014031783b0946b8c9d2e36107f081611647565b7f4910fdfa16fed3260ed0e7147f7cc6da11a60208b5b9406d12a635614ffd91435460ff1615611954576109cd836123bb565b826001600160a01b03166352d1902d6040518163ffffffff1660e01b8152600401602060405180830381865afa9250505080156119ae575060408051601f3d908101601f191682019092526119ab9181019061361f565b60015b611a115760405162461bcd60e51b815260206004820152602e60248201527f45524331393637557067726164653a206e657720696d706c656d656e7461746960448201526d6f6e206973206e6f74205555505360901b606482015260840161077e565b60008051602061395f8339815191528114611a805760405162461bcd60e51b815260206004820152602960248201527f45524331393637557067726164653a20756e737570706f727465642070726f786044820152681a58589b195555525160ba1b606482015260840161077e565b506109cd838383612457565b611a9461247c565b60c9805460ff191690557f5db9ee0a495bf2e6ff9c91a7834c1ba4fdd244a5e8aa4e537bd38aeae4b073aa335b6040516001600160a01b03909116815260200160405180910390a1565b6001600160a01b038316611b045760405162461bcd60e51b815260040161077e90613638565b8051825114611b255760405162461bcd60e51b815260040161077e9061351a565b6000339050611b488185600086866040518060200160405280600081525061224a565b60005b8351811015611c10576000848281518110611b6857611b68613393565b602002602001015190506000848381518110611b8657611b86613393565b60209081029190910181015160008481526065835260408082206001600160a01b038c168352909352919091205490915081811015611bd75760405162461bcd60e51b815260040161077e9061367b565b60009283526065602090815260408085206001600160a01b038b1686529091529092209103905580611c08816133bf565b915050611b4b565b5060006001600160a01b0316846001600160a01b0316826001600160a01b03167f4a39dc06d4c0dbc64b70af90fd698a233a518aa5d07e595d983b8c0526c8f7fb8686604051611c619291906135f1565b60405180910390a46040805160208101909152600090525b50505050565b600054610100900460ff16611ca65760405162461bcd60e51b815260040161077e906136bf565b610b89816124c5565b600054610100900460ff16611cd65760405162461bcd60e51b815260040161077e906136bf565b565b600054610100900460ff16611cff5760405162461bcd60e51b815260040161077e906136bf565b611cd66124f5565b611d0f612528565b60c9805460ff191660011790557f62e78cea01bee320cd4e420270b5ea74000d11b0c9f74754ebdbfc544b05a258611ac13390565b6001600160a01b038416611da45760405162461bcd60e51b815260206004820152602160248201527f455243313135353a206d696e7420746f20746865207a65726f206164647265736044820152607360f81b606482015260840161077e565b336000611db08561256e565b90506000611dbd8561256e565b9050611dce8360008985858961224a565b60008681526065602090815260408083206001600160a01b038b16845290915281208054879290611e00908490613402565b909155505060408051878152602081018790526001600160a01b03808a1692600092918716917fc3d58168c5ae7397731d063d5bbf3d657854427343f4c083240f7aacaa2d0f62910160405180910390a4611e60836000898989896125b9565b50505050505050565b816001600160a01b0316836001600160a01b031603611edc5760405162461bcd60e51b815260206004820152602960248201527f455243313135353a2073657474696e6720617070726f76616c20737461747573604482015268103337b91039b2b63360b91b606482015260840161077e565b6001600160a01b03838116600081815260666020908152604080832094871680845294825291829020805460ff191686151590811790915591519182527f17307eab39ab6107e8899845ad3d59bd9653f200f220920489ca2b5937696c31910160405180910390a3505050565b6001600160a01b038416611f6f5760405162461bcd60e51b815260040161077e90613562565b336000611f7b8561256e565b90506000611f888561256e565b9050611f9883898985858961224a565b60008681526065602090815260408083206001600160a01b038c16845290915290205485811015611fdb5760405162461bcd60e51b815260040161077e906135a7565b60008781526065602090815260408083206001600160a01b038d8116855292528083208985039055908a1682528120805488929061201a908490613402565b909155505060408051888152602081018890526001600160a01b03808b16928c821692918816917fc3d58168c5ae7397731d063d5bbf3d657854427343f4c083240f7aacaa2d0f62910160405180910390a461207a848a8a8a8a8a6125b9565b505050505050505050565b6001600160a01b0383166120ab5760405162461bcd60e51b815260040161077e90613638565b3360006120b78461256e565b905060006120c48461256e565b90506120e48387600085856040518060200160405280600081525061224a565b60008581526065602090815260408083206001600160a01b038a168452909152902054848110156121275760405162461bcd60e51b815260040161077e9061367b565b60008681526065602090815260408083206001600160a01b038b81168086529184528285208a8703905582518b81529384018a90529092908816917fc3d58168c5ae7397731d063d5bbf3d657854427343f4c083240f7aacaa2d0f62910160405180910390a4604080516020810190915260009052611e60565b60006001600160e01b03198216636cdb3d1360e11b14806121d257506001600160e01b031982166303a24d0760e21b145b806107ac57506301ffc9a760e01b6001600160e01b03198316146107ac565b6121fb8282611130565b6107f05761220881612674565b612213836020612686565b60405160200161222492919061370a565b60408051601f198184030181529082905262461bcd60e51b825261077e91600401612cd6565b612252612528565b611802868686868686612828565b6001600160a01b0384163b156118025760405163bc197c8160e01b81526001600160a01b0385169063bc197c81906122a4908990899088908890889060040161377f565b6020604051808303816000875af19250505080156122df575060408051601f3d908101601f191682019092526122dc918101906137dd565b60015b61238b576122eb6137fa565b806308c379a00361232457506122ff613815565b8061230a5750612326565b8060405162461bcd60e51b815260040161077e9190612cd6565b505b60405162461bcd60e51b815260206004820152603460248201527f455243313135353a207472616e7366657220746f206e6f6e2d455243313135356044820152732932b1b2b4bb32b91034b6b83632b6b2b73a32b960611b606482015260840161077e565b6001600160e01b0319811663bc197c8160e01b14611e605760405162461bcd60e51b815260040161077e9061389e565b6001600160a01b0381163b6124285760405162461bcd60e51b815260206004820152602d60248201527f455243313936373a206e657720696d706c656d656e746174696f6e206973206e60448201526c1bdd08184818dbdb9d1c9858dd609a1b606482015260840161077e565b60008051602061395f83398151915280546001600160a01b0319166001600160a01b0392909216919091179055565b612460836129a4565b60008251118061246d5750805b156109cd57611c7983836129e4565b60c95460ff16611cd65760405162461bcd60e51b815260206004820152601460248201527314185d5cd8589b194e881b9bdd081c185d5cd95960621b604482015260640161077e565b600054610100900460ff166124ec5760405162461bcd60e51b815260040161077e906136bf565b610b8981611651565b600054610100900460ff1661251c5760405162461bcd60e51b815260040161077e906136bf565b60c9805460ff19169055565b60c95460ff1615611cd65760405162461bcd60e51b815260206004820152601060248201526f14185d5cd8589b194e881c185d5cd95960821b604482015260640161077e565b604080516001808252818301909252606091600091906020808301908036833701905050905082816000815181106125a8576125a8613393565b602090810291909101015292915050565b6001600160a01b0384163b156118025760405163f23a6e6160e01b81526001600160a01b0385169063f23a6e61906125fd90899089908890889088906004016138e6565b6020604051808303816000875af1925050508015612638575060408051601f3d908101601f19168201909252612635918101906137dd565b60015b612644576122eb6137fa565b6001600160e01b0319811663f23a6e6160e01b14611e605760405162461bcd60e51b815260040161077e9061389e565b60606107ac6001600160a01b03831660145b606060006126958360026133d8565b6126a0906002613402565b6001600160401b038111156126b7576126b7612b86565b6040519080825280601f01601f1916602001820160405280156126e1576020820181803683370190505b509050600360fc1b816000815181106126fc576126fc613393565b60200101906001600160f81b031916908160001a905350600f60fb1b8160018151811061272b5761272b613393565b60200101906001600160f81b031916908160001a905350600061274f8460026133d8565b61275a906001613402565b90505b60018111156127d2576f181899199a1a9b1b9c1cb0b131b232b360811b85600f166010811061278e5761278e613393565b1a60f81b8282815181106127a4576127a4613393565b60200101906001600160f81b031916908160001a90535060049490941c936127cb8161392b565b905061275d565b5083156128215760405162461bcd60e51b815260206004820181905260248201527f537472696e67733a20686578206c656e67746820696e73756666696369656e74604482015260640161077e565b9392505050565b6001600160a01b0385166128b05760005b83518110156128ae5782818151811061285457612854613393565b602002602001015161012d600086848151811061287357612873613393565b6020026020010151815260200190815260200160002060008282546128989190613402565b909155506128a79050816133bf565b9050612839565b505b6001600160a01b0384166118025760005b8351811015611e605760008482815181106128de576128de613393565b6020026020010151905060008483815181106128fc576128fc613393565b60200260200101519050600061012d6000848152602001908152602001600020549050818110156129805760405162461bcd60e51b815260206004820152602860248201527f455243313135353a206275726e20616d6f756e74206578636565647320746f74604482015267616c537570706c7960c01b606482015260840161077e565b600092835261012d60205260409092209103905561299d816133bf565b90506128c1565b6129ad816123bb565b6040516001600160a01b038216907fbc7cd75a20ee27fd9adebab32041f755214dbc6bffa90cc0225b39da2e5c2d3b90600090a250565b6060612821838360405180606001604052806027815260200161397f602791396060600080856001600160a01b031685604051612a219190613942565b600060405180830381855af49150503d8060008114612a5c576040519150601f19603f3d011682016040523d82523d6000602084013e612a61565b606091505b5091509150612a7286838387612a7c565b9695505050505050565b60608315612aeb578251600003612ae4576001600160a01b0385163b612ae45760405162461bcd60e51b815260206004820152601d60248201527f416464726573733a2063616c6c20746f206e6f6e2d636f6e7472616374000000604482015260640161077e565b5081612af5565b612af58383612afd565b949350505050565b81511561230a5781518083602001fd5b80356001600160a01b0381168114612b2457600080fd5b919050565b60008060408385031215612b3c57600080fd5b612b4583612b0d565b946020939093013593505050565b6001600160e01b031981168114610b8957600080fd5b600060208284031215612b7b57600080fd5b813561282181612b53565b634e487b7160e01b600052604160045260246000fd5b601f8201601f191681016001600160401b0381118282101715612bc157612bc1612b86565b6040525050565b60006001600160401b03831115612be157612be1612b86565b604051612bf8601f8501601f191660200182612b9c565b809150838152848484011115612c0d57600080fd5b83836020830137600060208583010152509392505050565b600060208284031215612c3757600080fd5b81356001600160401b03811115612c4d57600080fd5b8201601f81018413612c5e57600080fd5b612af584823560208401612bc8565b600060208284031215612c7f57600080fd5b5035919050565b60005b83811015612ca1578181015183820152602001612c89565b50506000910152565b60008151808452612cc2816020860160208601612c86565b601f01601f19169290920160200192915050565b6020815260006128216020830184612caa565b634e487b7160e01b600052602160045260246000fd5b6080810160048610612d2157634e487b7160e01b600052602160045260246000fd5b948152602081019390935260408301919091526001600160a01b031660609091015290565b60006001600160401b03821115612d5f57612d5f612b86565b5060051b60200190565b600082601f830112612d7a57600080fd5b81356020612d8782612d46565b604051612d948282612b9c565b83815260059390931b8501820192828101915086841115612db457600080fd5b8286015b84811015612dcf5780358352918301918301612db8565b509695505050505050565b600082601f830112612deb57600080fd5b61282183833560208501612bc8565b600080600080600060a08688031215612e1257600080fd5b612e1b86612b0d565b9450612e2960208701612b0d565b935060408601356001600160401b0380821115612e4557600080fd5b612e5189838a01612d69565b94506060880135915080821115612e6757600080fd5b612e7389838a01612d69565b93506080880135915080821115612e8957600080fd5b50612e9688828901612dda565b9150509295509295909350565b60008060408385031215612eb657600080fd5b82359150612ec660208401612b0d565b90509250929050565b600060208284031215612ee157600080fd5b61282182612b0d565b60008060408385031215612efd57600080fd5b82356001600160401b0380821115612f1457600080fd5b818501915085601f830112612f2857600080fd5b81356020612f3582612d46565b604051612f428282612b9c565b83815260059390931b8501820192828101915089841115612f6257600080fd5b948201945b83861015612f8757612f7886612b0d565b82529482019490820190612f67565b96505086013592505080821115612f9d57600080fd5b50612faa85828601612d69565b9150509250929050565b600081518084526020808501945080840160005b83811015612fe457815187529582019590820190600101612fc8565b509495945050505050565b6020815260006128216020830184612fb4565b6000806040838503121561301557600080fd5b61301e83612b0d565b915060208301356001600160401b0381111561303957600080fd5b612faa85828601612dda565b60008060006060848603121561305a57600080fd5b61306384612b0d565b925060208401356001600160401b038082111561307f57600080fd5b61308b87838801612d69565b935060408601359150808211156130a157600080fd5b506130ae86828701612d69565b9150509250925092565b600080600080608085870312156130ce57600080fd5b84359350602085013592506130e560408601612b0d565b915060608501356001600160401b0381111561310057600080fd5b61310c87828801612dda565b91505092959194509250565b6000806040838503121561312b57600080fd5b61313483612b0d565b91506020830135801515811461314957600080fd5b809150509250929050565b6000806040838503121561316757600080fd5b50508035926020909101359150565b60008060006060848603121561318b57600080fd5b8335925061319b60208501612b0d565b91506131a960408501612b0d565b90509250925092565b600080604083850312156131c557600080fd5b6131ce83612b0d565b9150612ec660208401612b0d565b600080600080600060a086880312156131f457600080fd5b6131fd86612b0d565b945061320b60208701612b0d565b9350604086013592506060860135915060808601356001600160401b0381111561323457600080fd5b612e9688828901612dda565b60008060006060848603121561325557600080fd5b61325e84612b0d565b95602085013595506040909401359392505050565b600181811c9082168061328757607f821691505b6020821081036132a757634e487b7160e01b600052602260045260246000fd5b50919050565b6020808252602e908201527f455243313135353a2063616c6c6572206973206e6f7420746f6b656e206f776e60408201526d195c881bdc88185c1c1c9bdd995960921b606082015260800190565b6020808252602c908201527f46756e6374696f6e206d7573742062652063616c6c6564207468726f7567682060408201526b19195b1959d85d1958d85b1b60a21b606082015260800190565b6020808252602c908201527f46756e6374696f6e206d7573742062652063616c6c6564207468726f7567682060408201526b6163746976652070726f787960a01b606082015260800190565b634e487b7160e01b600052603260045260246000fd5b634e487b7160e01b600052601160045260246000fd5b6000600182016133d1576133d16133a9565b5060010190565b80820281158282048414176107ac576107ac6133a9565b818103818111156107ac576107ac6133a9565b808201808211156107ac576107ac6133a9565b601f8211156109cd57600081815260208120601f850160051c8101602086101561343c5750805b601f850160051c820191505b8181101561180257828155600101613448565b81516001600160401b0381111561347457613474612b86565b613488816134828454613273565b84613415565b602080601f8311600181146134bd57600084156134a55750858301515b600019600386901b1c1916600185901b178555611802565b600085815260208120601f198616915b828110156134ec578886015182559484019460019091019084016134cd565b508582101561350a5787850151600019600388901b60f8161c191681555b5050505050600190811b01905550565b60208082526028908201527f455243313135353a2069647320616e6420616d6f756e7473206c656e677468206040820152670dad2e6dac2e8c6d60c31b606082015260800190565b60208082526025908201527f455243313135353a207472616e7366657220746f20746865207a65726f206164604082015264647265737360d81b606082015260800190565b6020808252602a908201527f455243313135353a20696e73756666696369656e742062616c616e636520666f60408201526939103a3930b739b332b960b11b606082015260800190565b6040815260006136046040830185612fb4565b82810360208401526136168185612fb4565b95945050505050565b60006020828403121561363157600080fd5b5051919050565b60208082526023908201527f455243313135353a206275726e2066726f6d20746865207a65726f206164647260408201526265737360e81b606082015260800190565b60208082526024908201527f455243313135353a206275726e20616d6f756e7420657863656564732062616c604082015263616e636560e01b606082015260800190565b6020808252602b908201527f496e697469616c697a61626c653a20636f6e7472616374206973206e6f74206960408201526a6e697469616c697a696e6760a81b606082015260800190565b7f416363657373436f6e74726f6c3a206163636f756e7420000000000000000000815260008351613742816017850160208801612c86565b7001034b99036b4b9b9b4b733903937b6329607d1b6017918401918201528351613773816028840160208801612c86565b01602801949350505050565b6001600160a01b0386811682528516602082015260a0604082018190526000906137ab90830186612fb4565b82810360608401526137bd8186612fb4565b905082810360808401526137d18185612caa565b98975050505050505050565b6000602082840312156137ef57600080fd5b815161282181612b53565b600060033d1115610e645760046000803e5060005160e01c90565b600060443d10156138235790565b6040516003193d81016004833e81513d6001600160401b03816024840111818411171561385257505050505090565b828501915081518181111561386a5750505050505090565b843d87010160208285010111156138845750505050505090565b61389360208286010187612b9c565b509095945050505050565b60208082526028908201527f455243313135353a204552433131353552656365697665722072656a656374656040820152676420746f6b656e7360c01b606082015260800190565b6001600160a01b03868116825285166020820152604081018490526060810183905260a06080820181905260009061392090830184612caa565b979650505050505050565b60008161393a5761393a6133a9565b506000190190565b60008251613954818460208701612c86565b919091019291505056fe360894a13ba1a3210667c828492db98dca3e2076cc3735a920a3ca505d382bbc416464726573733a206c6f772d6c6576656c2064656c65676174652063616c6c206661696c6564a26469706673582212209c5ee3da38c86db5008a2fdb82f682f47fb4c8579191b6026deca13b8e697a9664736f6c63430008130033",
  "linkReferences": {},
  "deployedLinkReferences": {}
}