{
  "_format": "hh-sol-artifact-1",
  "contractName": "RadarEditions",
  "sourceName": "src/RadarEditions.sol",
  "abi": [
    {
      "inputs": [],
      "stateMutability": "nonpayable",
      "type": "constructor"
    },
    {
      "inputs": [],
      "name": "EditionFeeExceedsProtocolFee",
      "type": "error"
    },
    {
      "inputs": [],
      "name": "EditionNotCreated",
      "type": "error"
    },
    {
      "inputs": [],
      "name": "EditionNotEnoughBalance",
      "type": "error"
    },
    {
      "inputs": [],
      "name": "EditionNotLaunched",
      "type": "error"
    },
    {
      "inputs": [],
      "name": "EditionNotStopped",
      "type": "error"
    },
    {
      "inputs": [],
      "name": "NotEditionOwner",
      "type": "error"
    },
    {
      "inputs": [],
      "name": "NotEnoughFunds",
      "type": "error"
    },
    {
      "inputs": [],
      "name": "TransactionFailed",
      "type": "error"
    },
    {
      "anonymous": false,
      "inputs": [
        {
          "indexed": false,
          "internalType": "address",
          "name": "previousAdmin",
          "type": "address"
        },
        {
          "indexed": false,
          "internalType": "address",
          "name": "newAdmin",
          "type": "address"
        }
      ],
      "name": "AdminChanged",
      "type": "event"
    },
    {
      "anonymous": false,
      "inputs": [
        {
          "indexed": true,
          "internalType": "address",
          "name": "account",
          "type": "address"
        },
        {
          "indexed": true,
          "internalType": "address",
          "name": "operator",
          "type": "address"
        },
        {
          "indexed": false,
          "internalType": "bool",
          "name": "approved",
          "type": "bool"
        }
      ],
      "name": "ApprovalForAll",
      "type": "event"
    },
    {
      "anonymous": false,
      "inputs": [
        {
          "indexed": true,
          "internalType": "address",
          "name": "beacon",
          "type": "address"
        }
      ],
      "name": "BeaconUpgraded",
      "type": "event"
    },
    {
      "anonymous": false,
      "inputs": [
        {
          "indexed": false,
          "internalType": "uint256",
          "name": "editionId",
          "type": "uint256"
        }
      ],
      "name": "EditionApproved",
      "type": "event"
    },
    {
      "anonymous": false,
      "inputs": [
        {
          "indexed": false,
          "internalType": "uint256",
          "name": "editionId",
          "type": "uint256"
        },
        {
          "indexed": false,
          "internalType": "uint256",
          "name": "amount",
          "type": "uint256"
        },
        {
          "indexed": false,
          "internalType": "address",
          "name": "owner",
          "type": "address"
        }
      ],
      "name": "EditionBalanceWithdrawn",
      "type": "event"
    },
    {
      "anonymous": false,
      "inputs": [
        {
          "indexed": false,
          "internalType": "uint256",
          "name": "editionId",
          "type": "uint256"
        },
        {
          "indexed": false,
          "internalType": "uint256",
          "name": "fee",
          "type": "uint256"
        },
        {
          "indexed": false,
          "internalType": "address",
          "name": "owner",
          "type": "address"
        }
      ],
      "name": "EditionCreated",
      "type": "event"
    },
    {
      "anonymous": false,
      "inputs": [
        {
          "indexed": false,
          "internalType": "uint256",
          "name": "editionId",
          "type": "uint256"
        }
      ],
      "name": "EditionResumed",
      "type": "event"
    },
    {
      "anonymous": false,
      "inputs": [
        {
          "indexed": false,
          "internalType": "uint256",
          "name": "editionId",
          "type": "uint256"
        }
      ],
      "name": "EditionStopped",
      "type": "event"
    },
    {
      "anonymous": false,
      "inputs": [
        {
          "indexed": false,
          "internalType": "uint8",
          "name": "version",
          "type": "uint8"
        }
      ],
      "name": "Initialized",
      "type": "event"
    },
    {
      "anonymous": false,
      "inputs": [
        {
          "indexed": false,
          "internalType": "address",
          "name": "account",
          "type": "address"
        }
      ],
      "name": "Paused",
      "type": "event"
    },
    {
      "anonymous": false,
      "inputs": [
        {
          "indexed": true,
          "internalType": "bytes32",
          "name": "role",
          "type": "bytes32"
        },
        {
          "indexed": true,
          "internalType": "bytes32",
          "name": "previousAdminRole",
          "type": "bytes32"
        },
        {
          "indexed": true,
          "internalType": "bytes32",
          "name": "newAdminRole",
          "type": "bytes32"
        }
      ],
      "name": "RoleAdminChanged",
      "type": "event"
    },
    {
      "anonymous": false,
      "inputs": [
        {
          "indexed": true,
          "internalType": "bytes32",
          "name": "role",
          "type": "bytes32"
        },
        {
          "indexed": true,
          "internalType": "address",
          "name": "account",
          "type": "address"
        },
        {
          "indexed": true,
          "internalType": "address",
          "name": "sender",
          "type": "address"
        }
      ],
      "name": "RoleGranted",
      "type": "event"
    },
    {
      "anonymous": false,
      "inputs": [
        {
          "indexed": true,
          "internalType": "bytes32",
          "name": "role",
          "type": "bytes32"
        },
        {
          "indexed": true,
          "internalType": "address",
          "name": "account",
          "type": "address"
        },
        {
          "indexed": true,
          "internalType": "address",
          "name": "sender",
          "type": "address"
        }
      ],
      "name": "RoleRevoked",
      "type": "event"
    },
    {
      "anonymous": false,
      "inputs": [
        {
          "indexed": true,
          "internalType": "address",
          "name": "operator",
          "type": "address"
        },
        {
          "indexed": true,
          "internalType": "address",
          "name": "from",
          "type": "address"
        },
        {
          "indexed": true,
          "internalType": "address",
          "name": "to",
          "type": "address"
        },
        {
          "indexed": false,
          "internalType": "uint256[]",
          "name": "ids",
          "type": "uint256[]"
        },
        {
          "indexed": false,
          "internalType": "uint256[]",
          "name": "values",
          "type": "uint256[]"
        }
      ],
      "name": "TransferBatch",
      "type": "event"
    },
    {
      "anonymous": false,
      "inputs": [
        {
          "indexed": true,
          "internalType": "address",
          "name": "operator",
          "type": "address"
        },
        {
          "indexed": true,
          "internalType": "address",
          "name": "from",
          "type": "address"
        },
        {
          "indexed": true,
          "internalType": "address",
          "name": "to",
          "type": "address"
        },
        {
          "indexed": false,
          "internalType": "uint256",
          "name": "id",
          "type": "uint256"
        },
        {
          "indexed": false,
          "internalType": "uint256",
          "name": "value",
          "type": "uint256"
        }
      ],
      "name": "TransferSingle",
      "type": "event"
    },
    {
      "anonymous": false,
      "inputs": [
        {
          "indexed": false,
          "internalType": "string",
          "name": "value",
          "type": "string"
        },
        {
          "indexed": true,
          "internalType": "uint256",
          "name": "id",
          "type": "uint256"
        }
      ],
      "name": "URI",
      "type": "event"
    },
    {
      "anonymous": false,
      "inputs": [
        {
          "indexed": false,
          "internalType": "address",
          "name": "account",
          "type": "address"
        }
      ],
      "name": "Unpaused",
      "type": "event"
    },
    {
      "anonymous": false,
      "inputs": [
        {
          "indexed": true,
          "internalType": "address",
          "name": "implementation",
          "type": "address"
        }
      ],
      "name": "Upgraded",
      "type": "event"
    },
    {
      "stateMutability": "payable",
      "type": "fallback"
    },
    {
      "inputs": [],
      "name": "DEFAULT_ADMIN_ROLE",
      "outputs": [
        {
          "internalType": "bytes32",
          "name": "",
          "type": "bytes32"
        }
      ],
      "stateMutability": "view",
      "type": "function"
    },
    {
      "inputs": [
        {
          "internalType": "uint256",
          "name": "editionId",
          "type": "uint256"
        }
      ],
      "name": "approveEdition",
      "outputs": [],
      "stateMutability": "nonpayable",
      "type": "function"
    },
    {
      "inputs": [
        {
          "internalType": "address",
          "name": "account",
          "type": "address"
        },
        {
          "internalType": "uint256",
          "name": "id",
          "type": "uint256"
        }
      ],
      "name": "balanceOf",
      "outputs": [
        {
          "internalType": "uint256",
          "name": "",
          "type": "uint256"
        }
      ],
      "stateMutability": "view",
      "type": "function"
    },
    {
      "inputs": [
        {
          "internalType": "address[]",
          "name": "accounts",
          "type": "address[]"
        },
        {
          "internalType": "uint256[]",
          "name": "ids",
          "type": "uint256[]"
        }
      ],
      "name": "balanceOfBatch",
      "outputs": [
        {
          "internalType": "uint256[]",
          "name": "",
          "type": "uint256[]"
        }
      ],
      "stateMutability": "view",
      "type": "function"
    },
    {
      "inputs": [
        {
          "internalType": "address",
          "name": "account",
          "type": "address"
        },
        {
          "internalType": "uint256",
          "name": "id",
          "type": "uint256"
        },
        {
          "internalType": "uint256",
          "name": "value",
          "type": "uint256"
        }
      ],
      "name": "burn",
      "outputs": [],
      "stateMutability": "nonpayable",
      "type": "function"
    },
    {
      "inputs": [
        {
          "internalType": "address",
          "name": "account",
          "type": "address"
        },
        {
          "internalType": "uint256[]",
          "name": "ids",
          "type": "uint256[]"
        },
        {
          "internalType": "uint256[]",
          "name": "values",
          "type": "uint256[]"
        }
      ],
      "name": "burnBatch",
      "outputs": [],
      "stateMutability": "nonpayable",
      "type": "function"
    },
    {
      "inputs": [
        {
          "internalType": "uint256",
          "name": "fee",
          "type": "uint256"
        },
        {
          "internalType": "address",
          "name": "owner",
          "type": "address"
        },
        {
          "internalType": "address",
          "name": "admin",
          "type": "address"
        }
      ],
      "name": "createEdition",
      "outputs": [
        {
          "internalType": "uint256",
          "name": "editionId",
          "type": "uint256"
        }
      ],
      "stateMutability": "nonpayable",
      "type": "function"
    },
    {
      "inputs": [],
      "name": "editionCounter",
      "outputs": [
        {
          "internalType": "uint256",
          "name": "",
          "type": "uint256"
        }
      ],
      "stateMutability": "view",
      "type": "function"
    },
    {
      "inputs": [
        {
          "internalType": "uint256",
          "name": "",
          "type": "uint256"
        }
      ],
      "name": "editions",
      "outputs": [
        {
          "internalType": "enum EditionsStructs.EditionStatus",
          "name": "status",
          "type": "uint8"
        },
        {
          "internalType": "uint256",
          "name": "fee",
          "type": "uint256"
        },
        {
          "internalType": "uint256",
          "name": "balance",
          "type": "uint256"
        },
        {
          "internalType": "address",
          "name": "owner",
          "type": "address"
        }
      ],
      "stateMutability": "view",
      "type": "function"
    },
    {
      "inputs": [
        {
          "internalType": "uint256",
          "name": "id",
          "type": "uint256"
        }
      ],
      "name": "exists",
      "outputs": [
        {
          "internalType": "bool",
          "name": "",
          "type": "bool"
        }
      ],
      "stateMutability": "view",
      "type": "function"
    },
    {
      "inputs": [],
      "name": "getEditions",
      "outputs": [
        {
          "components": [
            {
              "internalType": "enum EditionsStructs.EditionStatus",
              "name": "status",
              "type": "uint8"
            },
            {
              "internalType": "uint256",
              "name": "fee",
              "type": "uint256"
            },
            {
              "internalType": "uint256",
              "name": "balance",
              "type": "uint256"
            },
            {
              "internalType": "address",
              "name": "owner",
              "type": "address"
            }
          ],
          "internalType": "struct EditionsStructs.Edition[]",
          "name": "",
          "type": "tuple[]"
        }
      ],
      "stateMutability": "view",
      "type": "function"
    },
    {
      "inputs": [
        {
          "internalType": "bytes32",
          "name": "role",
          "type": "bytes32"
        }
      ],
      "name": "getRoleAdmin",
      "outputs": [
        {
          "internalType": "bytes32",
          "name": "",
          "type": "bytes32"
        }
      ],
      "stateMutability": "view",
      "type": "function"
    },
    {
      "inputs": [
        {
          "internalType": "bytes32",
          "name": "role",
          "type": "bytes32"
        },
        {
          "internalType": "address",
          "name": "account",
          "type": "address"
        }
      ],
      "name": "grantRole",
      "outputs": [],
      "stateMutability": "nonpayable",
      "type": "function"
    },
    {
      "inputs": [
        {
          "internalType": "bytes32",
          "name": "role",
          "type": "bytes32"
        },
        {
          "internalType": "address",
          "name": "account",
          "type": "address"
        }
      ],
      "name": "hasRole",
      "outputs": [
        {
          "internalType": "bool",
          "name": "",
          "type": "bool"
        }
      ],
      "stateMutability": "view",
      "type": "function"
    },
    {
      "inputs": [],
      "name": "initialize",
      "outputs": [],
      "stateMutability": "nonpayable",
      "type": "function"
    },
    {
      "inputs": [
        {
          "internalType": "address",
          "name": "account",
          "type": "address"
        },
        {
          "internalType": "address",
          "name": "operator",
          "type": "address"
        }
      ],
      "name": "isApprovedForAll",
      "outputs": [
        {
          "internalType": "bool",
          "name": "",
          "type": "bool"
        }
      ],
      "stateMutability": "view",
      "type": "function"
    },
    {
      "inputs": [
        {
          "internalType": "uint256",
          "name": "editionId",
          "type": "uint256"
        },
        {
          "internalType": "uint256",
          "name": "amount",
          "type": "uint256"
        },
        {
          "internalType": "address",
          "name": "buyer",
          "type": "address"
        },
        {
          "internalType": "bytes",
          "name": "data",
          "type": "bytes"
        }
      ],
      "name": "mintEdition",
      "outputs": [],
      "stateMutability": "payable",
      "type": "function"
    },
    {
      "inputs": [],
      "name": "pause",
      "outputs": [],
      "stateMutability": "nonpayable",
      "type": "function"
    },
    {
      "inputs": [],
      "name": "paused",
      "outputs": [
        {
          "internalType": "bool",
          "name": "",
          "type": "bool"
        }
      ],
      "stateMutability": "view",
      "type": "function"
    },
    {
      "inputs": [],
      "name": "protocolFee",
      "outputs": [
        {
          "internalType": "uint256",
          "name": "",
          "type": "uint256"
        }
      ],
      "stateMutability": "view",
      "type": "function"
    },
    {
      "inputs": [],
      "name": "proxiableUUID",
      "outputs": [
        {
          "internalType": "bytes32",
          "name": "",
          "type": "bytes32"
        }
      ],
      "stateMutability": "view",
      "type": "function"
    },
    {
      "inputs": [
        {
          "internalType": "bytes32",
          "name": "role",
          "type": "bytes32"
        },
        {
          "internalType": "address",
          "name": "account",
          "type": "address"
        }
      ],
      "name": "renounceRole",
      "outputs": [],
      "stateMutability": "nonpayable",
      "type": "function"
    },
    {
      "inputs": [
        {
          "internalType": "uint256",
          "name": "editionId",
          "type": "uint256"
        }
      ],
      "name": "resumeEdition",
      "outputs": [],
      "stateMutability": "nonpayable",
      "type": "function"
    },
    {
      "inputs": [
        {
          "internalType": "bytes32",
          "name": "role",
          "type": "bytes32"
        },
        {
          "internalType": "address",
          "name": "account",
          "type": "address"
        }
      ],
      "name": "revokeRole",
      "outputs": [],
      "stateMutability": "nonpayable",
      "type": "function"
    },
    {
      "inputs": [
        {
          "internalType": "address",
          "name": "from",
          "type": "address"
        },
        {
          "internalType": "address",
          "name": "to",
          "type": "address"
        },
        {
          "internalType": "uint256[]",
          "name": "ids",
          "type": "uint256[]"
        },
        {
          "internalType": "uint256[]",
          "name": "amounts",
          "type": "uint256[]"
        },
        {
          "internalType": "bytes",
          "name": "data",
          "type": "bytes"
        }
      ],
      "name": "safeBatchTransferFrom",
      "outputs": [],
      "stateMutability": "nonpayable",
      "type": "function"
    },
    {
      "inputs": [
        {
          "internalType": "address",
          "name": "from",
          "type": "address"
        },
        {
          "internalType": "address",
          "name": "to",
          "type": "address"
        },
        {
          "internalType": "uint256",
          "name": "id",
          "type": "uint256"
        },
        {
          "internalType": "uint256",
          "name": "amount",
          "type": "uint256"
        },
        {
          "internalType": "bytes",
          "name": "data",
          "type": "bytes"
        }
      ],
      "name": "safeTransferFrom",
      "outputs": [],
      "stateMutability": "nonpayable",
      "type": "function"
    },
    {
      "inputs": [
        {
          "internalType": "address",
          "name": "operator",
          "type": "address"
        },
        {
          "internalType": "bool",
          "name": "approved",
          "type": "bool"
        }
      ],
      "name": "setApprovalForAll",
      "outputs": [],
      "stateMutability": "nonpayable",
      "type": "function"
    },
    {
      "inputs": [
        {
          "internalType": "uint256",
          "name": "_protocolFee",
          "type": "uint256"
        }
      ],
      "name": "setProtocolFee",
      "outputs": [],
      "stateMutability": "nonpayable",
      "type": "function"
    },
    {
      "inputs": [
        {
          "internalType": "string",
          "name": "newuri",
          "type": "string"
        }
      ],
      "name": "setURI",
      "outputs": [],
      "stateMutability": "nonpayable",
      "type": "function"
    },
    {
      "inputs": [
        {
          "internalType": "uint256",
          "name": "editionId",
          "type": "uint256"
        }
      ],
      "name": "stopEdition",
      "outputs": [],
      "stateMutability": "nonpayable",
      "type": "function"
    },
    {
      "inputs": [
        {
          "internalType": "bytes4",
          "name": "interfaceId",
          "type": "bytes4"
        }
      ],
      "name": "supportsInterface",
      "outputs": [
        {
          "internalType": "bool",
          "name": "",
          "type": "bool"
        }
      ],
      "stateMutability": "view",
      "type": "function"
    },
    {
      "inputs": [
        {
          "internalType": "uint256",
          "name": "id",
          "type": "uint256"
        }
      ],
      "name": "totalSupply",
      "outputs": [
        {
          "internalType": "uint256",
          "name": "",
          "type": "uint256"
        }
      ],
      "stateMutability": "view",
      "type": "function"
    },
    {
      "inputs": [],
      "name": "unpause",
      "outputs": [],
      "stateMutability": "nonpayable",
      "type": "function"
    },
    {
      "inputs": [
        {
          "internalType": "address",
          "name": "newImplementation",
          "type": "address"
        }
      ],
      "name": "upgradeTo",
      "outputs": [],
      "stateMutability": "nonpayable",
      "type": "function"
    },
    {
      "inputs": [
        {
          "internalType": "address",
          "name": "newImplementation",
          "type": "address"
        },
        {
          "internalType": "bytes",
          "name": "data",
          "type": "bytes"
        }
      ],
      "name": "upgradeToAndCall",
      "outputs": [],
      "stateMutability": "payable",
      "type": "function"
    },
    {
      "inputs": [
        {
          "internalType": "uint256",
          "name": "",
          "type": "uint256"
        }
      ],
      "name": "uri",
      "outputs": [
        {
          "internalType": "string",
          "name": "",
          "type": "string"
        }
      ],
      "stateMutability": "view",
      "type": "function"
    },
    {
      "inputs": [
        {
          "internalType": "uint256",
          "name": "editionId",
          "type": "uint256"
        },
        {
          "internalType": "uint256",
          "name": "amount",
          "type": "uint256"
        }
      ],
      "name": "withdrawEditionBalance",
      "outputs": [],
      "stateMutability": "nonpayable",
      "type": "function"
    },
    {
      "inputs": [
        {
          "internalType": "uint256",
          "name": "amount",
          "type": "uint256"
        }
      ],
      "name": "withdrawFunds",
      "outputs": [],
      "stateMutability": "nonpayable",
      "type": "function"
    },
    {
      "stateMutability": "payable",
      "type": "receive"
    }
  ],
  "bytecode": "0x60a0604052306080523480156200001557600080fd5b506200002062000026565b620000e7565b600054610100900460ff1615620000935760405162461bcd60e51b815260206004820152602760248201527f496e697469616c697a61626c653a20636f6e747261637420697320696e697469604482015266616c697a696e6760c81b606482015260840160405180910390fd5b60005460ff90811614620000e5576000805460ff191660ff9081179091556040519081527f7f26b83ff96e1f2b6a682f133852f6798a09c465da95921460cefb38474024989060200160405180910390a15b565b608051613bd56200011f60003960008181610ae401528181610b2401528181610d1e01528181610d5e0152610ded0152613bd56000f3fe6080604052600436106102105760003560e01c80637357628c11610117578063bd85b039116100a5578063df6efc6c1161006c578063df6efc6c14610679578063e985e9c51461069b578063f242432a146106e4578063f5298aca14610704578063fc74efa21461072457005b8063bd85b039146105d4578063c6fbb71214610602578063d547741f14610619578063d667c9ce14610639578063da4d4ef01461065957005b806391d14854116100e957806391d1485414610555578063940123da14610575578063a217fddf14610588578063a22cb4651461059d578063b0e21e8a146105bd57005b80637357628c146104eb578063787dce3d1461050b5780638129fc1c1461052b5780638456cb591461054057005b80632f2ff15d1161019f5780634f1ef286116101665780634f1ef2861461045b5780634f558e791461046e57806352d1902d1461049e5780635c975abb146104b35780636b20c454146104cb57005b80632f2ff15d146103b957806336568abe146103d95780633659cfe6146103f95780633f4ba83a146104195780634e1273f41461042e57005b80630e89341c116101e35780630e89341c146102bc578063155dd5ee146102e9578063248a9ca314610309578063279c806e146103395780632eb2c2d61461039957005b8062fdd58e1461021957806301ffc9a71461024c57806302fe53051461027c5780630a579eca1461029c57005b3661021757005b005b34801561022557600080fd5b50610239610234366004612ca8565b610744565b6040519081526020015b60405180910390f35b34801561025857600080fd5b5061026c610267366004612ce8565b6107df565b6040519015158152602001610243565b34801561028857600080fd5b50610217610297366004612da4565b6107ea565b3480156102a857600080fd5b506102176102b7366004612dec565b610821565b3480156102c857600080fd5b506102dc6102d7366004612dec565b6108f2565b6040516102439190612e55565b3480156102f557600080fd5b50610217610304366004612dec565b610986565b34801561031557600080fd5b50610239610324366004612dec565b60009081526097602052604090206001015490565b34801561034557600080fd5b50610389610354366004612dec565b6101c460205260009081526040902080546001820154600283015460039093015460ff9092169290916001600160a01b031684565b6040516102439493929190612ea0565b3480156103a557600080fd5b506102176103b4366004612f86565b6109ff565b3480156103c557600080fd5b506102176103d436600461302f565b610a4b565b3480156103e557600080fd5b506102176103f436600461302f565b610a60565b34801561040557600080fd5b5061021761041436600461305b565b610ada565b34801561042557600080fd5b50610217610bb9565b34801561043a57600080fd5b5061044e610449366004613076565b610beb565b604051610243919061317b565b61021761046936600461318e565b610d14565b34801561047a57600080fd5b5061026c610489366004612dec565b600090815261012d6020526040902054151590565b3480156104aa57600080fd5b50610239610de0565b3480156104bf57600080fd5b5060c95460ff1661026c565b3480156104d757600080fd5b506102176104e63660046131d1565b610e94565b3480156104f757600080fd5b50610217610506366004612dec565b610ed7565b34801561051757600080fd5b50610217610526366004612dec565b610f78565b34801561053757600080fd5b50610217610f8a565b34801561054c57600080fd5b50610217611155565b34801561056157600080fd5b5061026c61057036600461302f565b611187565b610217610583366004613244565b6111b2565b34801561059457600080fd5b50610239600081565b3480156105a957600080fd5b506102176105b83660046132a4565b61127b565b3480156105c957600080fd5b506102396101c35481565b3480156105e057600080fd5b506102396105ef366004612dec565b600090815261012d602052604090205490565b34801561060e57600080fd5b506102396101c55481565b34801561062557600080fd5b5061021761063436600461302f565b611286565b34801561064557600080fd5b506102176106543660046132e0565b6112ab565b34801561066557600080fd5b50610239610674366004613302565b6113ed565b34801561068557600080fd5b5061068e611527565b604051610243919061333e565b3480156106a757600080fd5b5061026c6106b63660046133b2565b6001600160a01b03918216600090815260666020908152604080832093909416825291909152205460ff1690565b3480156106f057600080fd5b506102176106ff3660046133dc565b61164f565b34801561071057600080fd5b5061021761071f366004613440565b611694565b34801561073057600080fd5b5061021761073f366004612dec565b6116d7565b60006001600160a01b0383166107b45760405162461bcd60e51b815260206004820152602a60248201527f455243313135353a2061646472657373207a65726f206973206e6f742061207660448201526930b634b21037bbb732b960b11b60648201526084015b60405180910390fd5b5060008181526065602090815260408083206001600160a01b03861684529091529020545b92915050565b60006107d9826117a1565b7f7804d923f43a17d325d77e781528e0793b2edd9890ab45fc64efd7b4b427744c610814816117c6565b61081d826117d0565b5050565b60008181526101c460205260409020600301546001600160a01b0316331461085c5760405163388f811f60e01b815260040160405180910390fd5b600260008281526101c4602052604090205460ff16600381111561088257610882612e68565b146108a057604051631f0fb6fd60e11b815260040160405180910390fd5b60008181526101c46020908152604091829020805460ff1916600317905590518281527f591913f977ab242c5871f116f36be231ff67df5e8e0bac1efd91fa8a723aca2b91015b60405180910390a150565b60606067805461090190613473565b80601f016020809104026020016040519081016040528092919081815260200182805461092d90613473565b801561097a5780601f1061094f5761010080835404028352916020019161097a565b820191906000526020600020905b81548152906001019060200180831161095d57829003601f168201915b50505050509050919050565b6000610991816117c6565b604051600090339084908381818185875af1925050503d80600081146109d3576040519150601f19603f3d011682016040523d82523d6000602084013e6109d8565b606091505b50509050806109fa576040516317f2c34560e31b815260040160405180910390fd5b505050565b6001600160a01b038516331480610a1b5750610a1b85336106b6565b610a375760405162461bcd60e51b81526004016107ab906134a7565b610a4485858585856117dc565b5050505050565b6000610a56816117c6565b6109fa8383611989565b6001600160a01b0381163314610ad05760405162461bcd60e51b815260206004820152602f60248201527f416363657373436f6e74726f6c3a2063616e206f6e6c792072656e6f756e636560448201526e103937b632b9903337b91039b2b63360891b60648201526084016107ab565b61081d8282611a0f565b6001600160a01b037f0000000000000000000000000000000000000000000000000000000000000000163003610b225760405162461bcd60e51b81526004016107ab906134f5565b7f00000000000000000000000000000000000000000000000000000000000000006001600160a01b0316610b6b600080516020613b59833981519152546001600160a01b031690565b6001600160a01b031614610b915760405162461bcd60e51b81526004016107ab90613541565b610b9a81611a76565b60408051600080825260208201909252610bb691839190611aa0565b50565b7f65d7a28e3265b37a6474929f336521b332c1681b933f6cb9f3376673440d862a610be3816117c6565b610bb6611c0b565b60608151835114610c505760405162461bcd60e51b815260206004820152602960248201527f455243313135353a206163636f756e747320616e6420696473206c656e677468604482015268040dad2e6dac2e8c6d60bb1b60648201526084016107ab565b600083516001600160401b03811115610c6b57610c6b612d05565b604051908082528060200260200182016040528015610c94578160200160208202803683370190505b50905060005b8451811015610d0c57610cdf858281518110610cb857610cb861358d565b6020026020010151858381518110610cd257610cd261358d565b6020026020010151610744565b828281518110610cf157610cf161358d565b6020908102919091010152610d05816135b9565b9050610c9a565b509392505050565b6001600160a01b037f0000000000000000000000000000000000000000000000000000000000000000163003610d5c5760405162461bcd60e51b81526004016107ab906134f5565b7f00000000000000000000000000000000000000000000000000000000000000006001600160a01b0316610da5600080516020613b59833981519152546001600160a01b031690565b6001600160a01b031614610dcb5760405162461bcd60e51b81526004016107ab90613541565b610dd482611a76565b61081d82826001611aa0565b6000306001600160a01b037f00000000000000000000000000000000000000000000000000000000000000001614610e805760405162461bcd60e51b815260206004820152603860248201527f555550535570677261646561626c653a206d757374206e6f742062652063616c60448201527f6c6564207468726f7567682064656c656761746563616c6c000000000000000060648201526084016107ab565b50600080516020613b598339815191525b90565b6001600160a01b038316331480610eb05750610eb083336106b6565b610ecc5760405162461bcd60e51b81526004016107ab906134a7565b6109fa838383611c5d565b6000610ee2816117c6565b600160008381526101c4602052604090205460ff166003811115610f0857610f08612e68565b14610f265760405163137c9c1f60e31b815260040160405180910390fd5b60008281526101c46020908152604091829020805460ff1916600217905590518381527f8f4352ac8b4aefdd2333162306bbe09dd4f4ff6661e89ccc4e4dcced8794e8f7910160405180910390a15050565b6000610f83816117c6565b506101c355565b600054610100900460ff1615808015610faa5750600054600160ff909116105b80610fc45750303b158015610fc4575060005460ff166001145b6110275760405162461bcd60e51b815260206004820152602e60248201527f496e697469616c697a61626c653a20636f6e747261637420697320616c72656160448201526d191e481a5b9a5d1a585b1a5e995960921b60648201526084016107ab565b6000805460ff19166001179055801561104a576000805461ff0019166101001790555b61106260405180602001604052806000815250611dfe565b61106a611e2e565b611072611e57565b61107a611e2e565b611082611e2e565b61108a611e2e565b611095600033611989565b6110bf7f7804d923f43a17d325d77e781528e0793b2edd9890ab45fc64efd7b4b427744c33611989565b6110e97f65d7a28e3265b37a6474929f336521b332c1681b933f6cb9f3376673440d862a33611989565b6111137f189ab7a9244df0848122154315af71fe140f3db0fe014031783b0946b8c9d2e333611989565b8015610bb6576000805461ff0019169055604051600181527f7f26b83ff96e1f2b6a682f133852f6798a09c465da95921460cefb3847402498906020016108e7565b7f65d7a28e3265b37a6474929f336521b332c1681b933f6cb9f3376673440d862a61117f816117c6565b610bb6611e86565b60009182526097602090815260408084206001600160a01b0393909316845291905290205460ff1690565b600260008581526101c4602052604090205460ff1660038111156111d8576111d8612e68565b146111f657604051631f0fb6fd60e11b815260040160405180910390fd5b60008481526101c460205260409020600101546112149084906135d2565b34101561123457604051631036b5ad60e31b815260040160405180910390fd5b61124082858584611ec3565b6101c35461124e90346135e9565b60008581526101c46020526040812060020180549091906112709084906135fc565b909155505050505050565b61081d338383611fe8565b6000828152609760205260409020600101546112a1816117c6565b6109fa8383611a0f565b60008281526101c460205260409020600301546001600160a01b031633146112e65760405163388f811f60e01b815260040160405180910390fd5b60008281526101c4602052604090206002015481111561131957604051637eafab7d60e01b815260040160405180910390fd5b604051600090339083908381818185875af1925050503d806000811461135b576040519150601f19603f3d011682016040523d82523d6000602084013e611360565b606091505b5050905080611382576040516317f2c34560e31b815260040160405180910390fd5b60008381526101c46020526040812060020180548492906113a49084906135e9565b90915550506040805184815260208101849052338183015290517ff1090e9d5138cd4909542e10e1da576730b07eb291a71a151e63160dde345b949181900360600190a1505050565b60006101c35484111561141357604051636a61a41960e11b815260040160405180910390fd5b506101c554604080516080810190915280600181526020808201879052600060408084018290526001600160a01b0388166060909401939093528481526101c49091522081518154829060ff1916600183600381111561147557611475612e68565b02179055506020820151600182015560408201516002820155606090910151600390910180546001600160a01b0319166001600160a01b039092169190911790556101c580549060006114c7836135b9565b909155506114d89050600083610a4b565b60408051828152602081018690526001600160a01b0385168183015290517f7fe7f72f14a53255f3c9e225ab1d40fdb21335b87a7912726a196fb816866ae09181900360600190a19392505050565b606060006101c5546001600160401b0381111561154657611546612d05565b60405190808252806020026020018201604052801561159857816020015b6040805160808101825260008082526020808301829052928201819052606082015282526000199092019101816115645790505b50905060005b6101c5548110156116495760008181526101c46020526040908190208151608081019092528054829060ff1660038111156115db576115db612e68565b60038111156115ec576115ec612e68565b815260018201546020820152600282015460408201526003909101546001600160a01b0316606090910152825183908390811061162b5761162b61358d565b60200260200101819052508080611641906135b9565b91505061159e565b50919050565b6001600160a01b03851633148061166b575061166b85336106b6565b6116875760405162461bcd60e51b81526004016107ab906134a7565b610a4485858585856120c8565b6001600160a01b0383163314806116b057506116b083336106b6565b6116cc5760405162461bcd60e51b81526004016107ab906134a7565b6109fa838383612204565b60008181526101c460205260409020600301546001600160a01b031633146117125760405163388f811f60e01b815260040160405180910390fd5b600360008281526101c4602052604090205460ff16600381111561173857611738612e68565b146117565760405163968807a560e01b815260040160405180910390fd5b60008181526101c46020908152604091829020805460ff1916600217905590518281527f63bb17c9645a29322601b4fe88d8f3fa84f32229368294f903084be8f5d813ba91016108e7565b60006001600160e01b03198216637965db0b60e01b14806107d957506107d982612320565b610bb68133612370565b606761081d8282613655565b81518351146117fd5760405162461bcd60e51b81526004016107ab90613714565b6001600160a01b0384166118235760405162461bcd60e51b81526004016107ab9061375c565b336118328187878787876123c9565b60005b845181101561191b5760008582815181106118525761185261358d565b6020026020010151905060008583815181106118705761187061358d565b60209081029190910181015160008481526065835260408082206001600160a01b038e1683529093529190912054909150818110156118c15760405162461bcd60e51b81526004016107ab906137a1565b60008381526065602090815260408083206001600160a01b038e8116855292528083208585039055908b168252812080548492906119009084906135fc565b9250508190555050505080611914906135b9565b9050611835565b50846001600160a01b0316866001600160a01b0316826001600160a01b03167f4a39dc06d4c0dbc64b70af90fd698a233a518aa5d07e595d983b8c0526c8f7fb878760405161196b9291906137eb565b60405180910390a46119818187878787876123df565b505050505050565b6119938282611187565b61081d5760008281526097602090815260408083206001600160a01b03851684529091529020805460ff191660011790556119cb3390565b6001600160a01b0316816001600160a01b0316837f2f8788117e7eff1d82e926ec794901d17c78024a50270940304540a733656f0d60405160405180910390a45050565b611a198282611187565b1561081d5760008281526097602090815260408083206001600160a01b0385168085529252808320805460ff1916905551339285917ff6391f5c32d9c69d2a47ea670b442974b53935d1edc7fd64eb21e047a839171b9190a45050565b7f189ab7a9244df0848122154315af71fe140f3db0fe014031783b0946b8c9d2e361081d816117c6565b7f4910fdfa16fed3260ed0e7147f7cc6da11a60208b5b9406d12a635614ffd91435460ff1615611ad3576109fa8361253a565b826001600160a01b03166352d1902d6040518163ffffffff1660e01b8152600401602060405180830381865afa925050508015611b2d575060408051601f3d908101601f19168201909252611b2a91810190613819565b60015b611b905760405162461bcd60e51b815260206004820152602e60248201527f45524331393637557067726164653a206e657720696d706c656d656e7461746960448201526d6f6e206973206e6f74205555505360901b60648201526084016107ab565b600080516020613b598339815191528114611bff5760405162461bcd60e51b815260206004820152602960248201527f45524331393637557067726164653a20756e737570706f727465642070726f786044820152681a58589b195555525160ba1b60648201526084016107ab565b506109fa8383836125d6565b611c136125fb565b60c9805460ff191690557f5db9ee0a495bf2e6ff9c91a7834c1ba4fdd244a5e8aa4e537bd38aeae4b073aa335b6040516001600160a01b03909116815260200160405180910390a1565b6001600160a01b038316611c835760405162461bcd60e51b81526004016107ab90613832565b8051825114611ca45760405162461bcd60e51b81526004016107ab90613714565b6000339050611cc7818560008686604051806020016040528060008152506123c9565b60005b8351811015611d8f576000848281518110611ce757611ce761358d565b602002602001015190506000848381518110611d0557611d0561358d565b60209081029190910181015160008481526065835260408082206001600160a01b038c168352909352919091205490915081811015611d565760405162461bcd60e51b81526004016107ab90613875565b60009283526065602090815260408085206001600160a01b038b1686529091529092209103905580611d87816135b9565b915050611cca565b5060006001600160a01b0316846001600160a01b0316826001600160a01b03167f4a39dc06d4c0dbc64b70af90fd698a233a518aa5d07e595d983b8c0526c8f7fb8686604051611de09291906137eb565b60405180910390a46040805160208101909152600090525b50505050565b600054610100900460ff16611e255760405162461bcd60e51b81526004016107ab906138b9565b610bb681612644565b600054610100900460ff16611e555760405162461bcd60e51b81526004016107ab906138b9565b565b600054610100900460ff16611e7e5760405162461bcd60e51b81526004016107ab906138b9565b611e55612674565b611e8e6126a7565b60c9805460ff191660011790557f62e78cea01bee320cd4e420270b5ea74000d11b0c9f74754ebdbfc544b05a258611c403390565b6001600160a01b038416611f235760405162461bcd60e51b815260206004820152602160248201527f455243313135353a206d696e7420746f20746865207a65726f206164647265736044820152607360f81b60648201526084016107ab565b336000611f2f856126ed565b90506000611f3c856126ed565b9050611f4d836000898585896123c9565b60008681526065602090815260408083206001600160a01b038b16845290915281208054879290611f7f9084906135fc565b909155505060408051878152602081018790526001600160a01b03808a1692600092918716917fc3d58168c5ae7397731d063d5bbf3d657854427343f4c083240f7aacaa2d0f62910160405180910390a4611fdf83600089898989612738565b50505050505050565b816001600160a01b0316836001600160a01b03160361205b5760405162461bcd60e51b815260206004820152602960248201527f455243313135353a2073657474696e6720617070726f76616c20737461747573604482015268103337b91039b2b63360b91b60648201526084016107ab565b6001600160a01b03838116600081815260666020908152604080832094871680845294825291829020805460ff191686151590811790915591519182527f17307eab39ab6107e8899845ad3d59bd9653f200f220920489ca2b5937696c31910160405180910390a3505050565b6001600160a01b0384166120ee5760405162461bcd60e51b81526004016107ab9061375c565b3360006120fa856126ed565b90506000612107856126ed565b90506121178389898585896123c9565b60008681526065602090815260408083206001600160a01b038c1684529091529020548581101561215a5760405162461bcd60e51b81526004016107ab906137a1565b60008781526065602090815260408083206001600160a01b038d8116855292528083208985039055908a168252812080548892906121999084906135fc565b909155505060408051888152602081018890526001600160a01b03808b16928c821692918816917fc3d58168c5ae7397731d063d5bbf3d657854427343f4c083240f7aacaa2d0f62910160405180910390a46121f9848a8a8a8a8a612738565b505050505050505050565b6001600160a01b03831661222a5760405162461bcd60e51b81526004016107ab90613832565b336000612236846126ed565b90506000612243846126ed565b9050612263838760008585604051806020016040528060008152506123c9565b60008581526065602090815260408083206001600160a01b038a168452909152902054848110156122a65760405162461bcd60e51b81526004016107ab90613875565b60008681526065602090815260408083206001600160a01b038b81168086529184528285208a8703905582518b81529384018a90529092908816917fc3d58168c5ae7397731d063d5bbf3d657854427343f4c083240f7aacaa2d0f62910160405180910390a4604080516020810190915260009052611fdf565b60006001600160e01b03198216636cdb3d1360e11b148061235157506001600160e01b031982166303a24d0760e21b145b806107d957506301ffc9a760e01b6001600160e01b03198316146107d9565b61237a8282611187565b61081d57612387816127f3565b612392836020612805565b6040516020016123a3929190613904565b60408051601f198184030181529082905262461bcd60e51b82526107ab91600401612e55565b6123d16126a7565b6119818686868686866129a7565b6001600160a01b0384163b156119815760405163bc197c8160e01b81526001600160a01b0385169063bc197c81906124239089908990889088908890600401613979565b6020604051808303816000875af192505050801561245e575060408051601f3d908101601f1916820190925261245b918101906139d7565b60015b61250a5761246a6139f4565b806308c379a0036124a3575061247e613a0f565b8061248957506124a5565b8060405162461bcd60e51b81526004016107ab9190612e55565b505b60405162461bcd60e51b815260206004820152603460248201527f455243313135353a207472616e7366657220746f206e6f6e2d455243313135356044820152732932b1b2b4bb32b91034b6b83632b6b2b73a32b960611b60648201526084016107ab565b6001600160e01b0319811663bc197c8160e01b14611fdf5760405162461bcd60e51b81526004016107ab90613a98565b6001600160a01b0381163b6125a75760405162461bcd60e51b815260206004820152602d60248201527f455243313936373a206e657720696d706c656d656e746174696f6e206973206e60448201526c1bdd08184818dbdb9d1c9858dd609a1b60648201526084016107ab565b600080516020613b5983398151915280546001600160a01b0319166001600160a01b0392909216919091179055565b6125df83612b23565b6000825111806125ec5750805b156109fa57611df88383612b63565b60c95460ff16611e555760405162461bcd60e51b815260206004820152601460248201527314185d5cd8589b194e881b9bdd081c185d5cd95960621b60448201526064016107ab565b600054610100900460ff1661266b5760405162461bcd60e51b81526004016107ab906138b9565b610bb6816117d0565b600054610100900460ff1661269b5760405162461bcd60e51b81526004016107ab906138b9565b60c9805460ff19169055565b60c95460ff1615611e555760405162461bcd60e51b815260206004820152601060248201526f14185d5cd8589b194e881c185d5cd95960821b60448201526064016107ab565b604080516001808252818301909252606091600091906020808301908036833701905050905082816000815181106127275761272761358d565b602090810291909101015292915050565b6001600160a01b0384163b156119815760405163f23a6e6160e01b81526001600160a01b0385169063f23a6e619061277c9089908990889088908890600401613ae0565b6020604051808303816000875af19250505080156127b7575060408051601f3d908101601f191682019092526127b4918101906139d7565b60015b6127c35761246a6139f4565b6001600160e01b0319811663f23a6e6160e01b14611fdf5760405162461bcd60e51b81526004016107ab90613a98565b60606107d96001600160a01b03831660145b606060006128148360026135d2565b61281f9060026135fc565b6001600160401b0381111561283657612836612d05565b6040519080825280601f01601f191660200182016040528015612860576020820181803683370190505b509050600360fc1b8160008151811061287b5761287b61358d565b60200101906001600160f81b031916908160001a905350600f60fb1b816001815181106128aa576128aa61358d565b60200101906001600160f81b031916908160001a90535060006128ce8460026135d2565b6128d99060016135fc565b90505b6001811115612951576f181899199a1a9b1b9c1cb0b131b232b360811b85600f166010811061290d5761290d61358d565b1a60f81b8282815181106129235761292361358d565b60200101906001600160f81b031916908160001a90535060049490941c9361294a81613b25565b90506128dc565b5083156129a05760405162461bcd60e51b815260206004820181905260248201527f537472696e67733a20686578206c656e67746820696e73756666696369656e7460448201526064016107ab565b9392505050565b6001600160a01b038516612a2f5760005b8351811015612a2d578281815181106129d3576129d361358d565b602002602001015161012d60008684815181106129f2576129f261358d565b602002602001015181526020019081526020016000206000828254612a1791906135fc565b90915550612a269050816135b9565b90506129b8565b505b6001600160a01b0384166119815760005b8351811015611fdf576000848281518110612a5d57612a5d61358d565b602002602001015190506000848381518110612a7b57612a7b61358d565b60200260200101519050600061012d600084815260200190815260200160002054905081811015612aff5760405162461bcd60e51b815260206004820152602860248201527f455243313135353a206275726e20616d6f756e74206578636565647320746f74604482015267616c537570706c7960c01b60648201526084016107ab565b600092835261012d602052604090922091039055612b1c816135b9565b9050612a40565b612b2c8161253a565b6040516001600160a01b038216907fbc7cd75a20ee27fd9adebab32041f755214dbc6bffa90cc0225b39da2e5c2d3b90600090a250565b60606129a08383604051806060016040528060278152602001613b79602791396060600080856001600160a01b031685604051612ba09190613b3c565b600060405180830381855af49150503d8060008114612bdb576040519150601f19603f3d011682016040523d82523d6000602084013e612be0565b606091505b5091509150612bf186838387612bfb565b9695505050505050565b60608315612c6a578251600003612c63576001600160a01b0385163b612c635760405162461bcd60e51b815260206004820152601d60248201527f416464726573733a2063616c6c20746f206e6f6e2d636f6e747261637400000060448201526064016107ab565b5081612c74565b612c748383612c7c565b949350505050565b8151156124895781518083602001fd5b80356001600160a01b0381168114612ca357600080fd5b919050565b60008060408385031215612cbb57600080fd5b612cc483612c8c565b946020939093013593505050565b6001600160e01b031981168114610bb657600080fd5b600060208284031215612cfa57600080fd5b81356129a081612cd2565b634e487b7160e01b600052604160045260246000fd5b601f8201601f191681016001600160401b0381118282101715612d4057612d40612d05565b6040525050565b60006001600160401b03831115612d6057612d60612d05565b604051612d77601f8501601f191660200182612d1b565b809150838152848484011115612d8c57600080fd5b83836020830137600060208583010152509392505050565b600060208284031215612db657600080fd5b81356001600160401b03811115612dcc57600080fd5b8201601f81018413612ddd57600080fd5b612c7484823560208401612d47565b600060208284031215612dfe57600080fd5b5035919050565b60005b83811015612e20578181015183820152602001612e08565b50506000910152565b60008151808452612e41816020860160208601612e05565b601f01601f19169290920160200192915050565b6020815260006129a06020830184612e29565b634e487b7160e01b600052602160045260246000fd5b60048110612e9c57634e487b7160e01b600052602160045260246000fd5b9052565b60808101612eae8287612e7e565b602082019490945260408101929092526001600160a01b0316606090910152919050565b60006001600160401b03821115612eeb57612eeb612d05565b5060051b60200190565b600082601f830112612f0657600080fd5b81356020612f1382612ed2565b604051612f208282612d1b565b83815260059390931b8501820192828101915086841115612f4057600080fd5b8286015b84811015612f5b5780358352918301918301612f44565b509695505050505050565b600082601f830112612f7757600080fd5b6129a083833560208501612d47565b600080600080600060a08688031215612f9e57600080fd5b612fa786612c8c565b9450612fb560208701612c8c565b935060408601356001600160401b0380821115612fd157600080fd5b612fdd89838a01612ef5565b94506060880135915080821115612ff357600080fd5b612fff89838a01612ef5565b9350608088013591508082111561301557600080fd5b5061302288828901612f66565b9150509295509295909350565b6000806040838503121561304257600080fd5b8235915061305260208401612c8c565b90509250929050565b60006020828403121561306d57600080fd5b6129a082612c8c565b6000806040838503121561308957600080fd5b82356001600160401b03808211156130a057600080fd5b818501915085601f8301126130b457600080fd5b813560206130c182612ed2565b6040516130ce8282612d1b565b83815260059390931b85018201928281019150898411156130ee57600080fd5b948201945b838610156131135761310486612c8c565b825294820194908201906130f3565b9650508601359250508082111561312957600080fd5b5061313685828601612ef5565b9150509250929050565b600081518084526020808501945080840160005b8381101561317057815187529582019590820190600101613154565b509495945050505050565b6020815260006129a06020830184613140565b600080604083850312156131a157600080fd5b6131aa83612c8c565b915060208301356001600160401b038111156131c557600080fd5b61313685828601612f66565b6000806000606084860312156131e657600080fd5b6131ef84612c8c565b925060208401356001600160401b038082111561320b57600080fd5b61321787838801612ef5565b9350604086013591508082111561322d57600080fd5b5061323a86828701612ef5565b9150509250925092565b6000806000806080858703121561325a57600080fd5b843593506020850135925061327160408601612c8c565b915060608501356001600160401b0381111561328c57600080fd5b61329887828801612f66565b91505092959194509250565b600080604083850312156132b757600080fd5b6132c083612c8c565b9150602083013580151581146132d557600080fd5b809150509250929050565b600080604083850312156132f357600080fd5b50508035926020909101359150565b60008060006060848603121561331757600080fd5b8335925061332760208501612c8c565b915061333560408501612c8c565b90509250925092565b602080825282518282018190526000919060409081850190868401855b828110156133a5578151613370858251612e7e565b808701518588015285810151868601526060908101516001600160a01b0316908501526080909301929085019060010161335b565b5091979650505050505050565b600080604083850312156133c557600080fd5b6133ce83612c8c565b915061305260208401612c8c565b600080600080600060a086880312156133f457600080fd5b6133fd86612c8c565b945061340b60208701612c8c565b9350604086013592506060860135915060808601356001600160401b0381111561343457600080fd5b61302288828901612f66565b60008060006060848603121561345557600080fd5b61345e84612c8c565b95602085013595506040909401359392505050565b600181811c9082168061348757607f821691505b60208210810361164957634e487b7160e01b600052602260045260246000fd5b6020808252602e908201527f455243313135353a2063616c6c6572206973206e6f7420746f6b656e206f776e60408201526d195c881bdc88185c1c1c9bdd995960921b606082015260800190565b6020808252602c908201527f46756e6374696f6e206d7573742062652063616c6c6564207468726f7567682060408201526b19195b1959d85d1958d85b1b60a21b606082015260800190565b6020808252602c908201527f46756e6374696f6e206d7573742062652063616c6c6564207468726f7567682060408201526b6163746976652070726f787960a01b606082015260800190565b634e487b7160e01b600052603260045260246000fd5b634e487b7160e01b600052601160045260246000fd5b6000600182016135cb576135cb6135a3565b5060010190565b80820281158282048414176107d9576107d96135a3565b818103818111156107d9576107d96135a3565b808201808211156107d9576107d96135a3565b601f8211156109fa57600081815260208120601f850160051c810160208610156136365750805b601f850160051c820191505b8181101561198157828155600101613642565b81516001600160401b0381111561366e5761366e612d05565b6136828161367c8454613473565b8461360f565b602080601f8311600181146136b7576000841561369f5750858301515b600019600386901b1c1916600185901b178555611981565b600085815260208120601f198616915b828110156136e6578886015182559484019460019091019084016136c7565b50858210156137045787850151600019600388901b60f8161c191681555b5050505050600190811b01905550565b60208082526028908201527f455243313135353a2069647320616e6420616d6f756e7473206c656e677468206040820152670dad2e6dac2e8c6d60c31b606082015260800190565b60208082526025908201527f455243313135353a207472616e7366657220746f20746865207a65726f206164604082015264647265737360d81b606082015260800190565b6020808252602a908201527f455243313135353a20696e73756666696369656e742062616c616e636520666f60408201526939103a3930b739b332b960b11b606082015260800190565b6040815260006137fe6040830185613140565b82810360208401526138108185613140565b95945050505050565b60006020828403121561382b57600080fd5b5051919050565b60208082526023908201527f455243313135353a206275726e2066726f6d20746865207a65726f206164647260408201526265737360e81b606082015260800190565b60208082526024908201527f455243313135353a206275726e20616d6f756e7420657863656564732062616c604082015263616e636560e01b606082015260800190565b6020808252602b908201527f496e697469616c697a61626c653a20636f6e7472616374206973206e6f74206960408201526a6e697469616c697a696e6760a81b606082015260800190565b7f416363657373436f6e74726f6c3a206163636f756e742000000000000000000081526000835161393c816017850160208801612e05565b7001034b99036b4b9b9b4b733903937b6329607d1b601791840191820152835161396d816028840160208801612e05565b01602801949350505050565b6001600160a01b0386811682528516602082015260a0604082018190526000906139a590830186613140565b82810360608401526139b78186613140565b905082810360808401526139cb8185612e29565b98975050505050505050565b6000602082840312156139e957600080fd5b81516129a081612cd2565b600060033d1115610e915760046000803e5060005160e01c90565b600060443d1015613a1d5790565b6040516003193d81016004833e81513d6001600160401b038160248401118184111715613a4c57505050505090565b8285019150815181811115613a645750505050505090565b843d8701016020828501011115613a7e5750505050505090565b613a8d60208286010187612d1b565b509095945050505050565b60208082526028908201527f455243313135353a204552433131353552656365697665722072656a656374656040820152676420746f6b656e7360c01b606082015260800190565b6001600160a01b03868116825285166020820152604081018490526060810183905260a060808201819052600090613b1a90830184612e29565b979650505050505050565b600081613b3457613b346135a3565b506000190190565b60008251613b4e818460208701612e05565b919091019291505056fe360894a13ba1a3210667c828492db98dca3e2076cc3735a920a3ca505d382bbc416464726573733a206c6f772d6c6576656c2064656c65676174652063616c6c206661696c6564a26469706673582212208e1c2be8ee8510667b1aed323594a9a7a18e62a5280c5a46d8230177ce0ccff864736f6c63430008130033",
  "linkReferences": {},
  "deployedLinkReferences": {}
}