{
  "_format": "hh-sol-artifact-1",
  "contractName": "RadarEditions",
  "sourceName": "src/RadarEditions.sol",
  "abi": [
    {
      "inputs": [],
      "stateMutability": "nonpayable",
      "type": "constructor"
    },
    {
      "inputs": [],
      "name": "EditionFeeExceedsProtocolFee",
      "type": "error"
    },
    {
      "inputs": [],
      "name": "EditionNotCreated",
      "type": "error"
    },
    {
      "inputs": [],
      "name": "EditionNotEnoughBalance",
      "type": "error"
    },
    {
      "inputs": [],
      "name": "EditionNotLaunched",
      "type": "error"
    },
    {
      "inputs": [],
      "name": "EditionNotStopped",
      "type": "error"
    },
    {
      "inputs": [],
      "name": "NotEditionOwner",
      "type": "error"
    },
    {
      "inputs": [],
      "name": "NotEnoughFunds",
      "type": "error"
    },
    {
      "inputs": [],
      "name": "TransactionFailed",
      "type": "error"
    },
    {
      "anonymous": false,
      "inputs": [
        {
          "indexed": false,
          "internalType": "address",
          "name": "previousAdmin",
          "type": "address"
        },
        {
          "indexed": false,
          "internalType": "address",
          "name": "newAdmin",
          "type": "address"
        }
      ],
      "name": "AdminChanged",
      "type": "event"
    },
    {
      "anonymous": false,
      "inputs": [
        {
          "indexed": true,
          "internalType": "address",
          "name": "account",
          "type": "address"
        },
        {
          "indexed": true,
          "internalType": "address",
          "name": "operator",
          "type": "address"
        },
        {
          "indexed": false,
          "internalType": "bool",
          "name": "approved",
          "type": "bool"
        }
      ],
      "name": "ApprovalForAll",
      "type": "event"
    },
    {
      "anonymous": false,
      "inputs": [
        {
          "indexed": true,
          "internalType": "address",
          "name": "beacon",
          "type": "address"
        }
      ],
      "name": "BeaconUpgraded",
      "type": "event"
    },
    {
      "anonymous": false,
      "inputs": [
        {
          "indexed": false,
          "internalType": "uint256",
          "name": "editionId",
          "type": "uint256"
        }
      ],
      "name": "EditionApproved",
      "type": "event"
    },
    {
      "anonymous": false,
      "inputs": [
        {
          "indexed": false,
          "internalType": "uint256",
          "name": "editionId",
          "type": "uint256"
        },
        {
          "indexed": false,
          "internalType": "uint256",
          "name": "amount",
          "type": "uint256"
        },
        {
          "indexed": false,
          "internalType": "address",
          "name": "owner",
          "type": "address"
        }
      ],
      "name": "EditionBalanceWithdrawn",
      "type": "event"
    },
    {
      "anonymous": false,
      "inputs": [
        {
          "indexed": false,
          "internalType": "uint256",
          "name": "editionId",
          "type": "uint256"
        },
        {
          "indexed": false,
          "internalType": "uint256",
          "name": "fee",
          "type": "uint256"
        },
        {
          "indexed": false,
          "internalType": "address",
          "name": "owner",
          "type": "address"
        }
      ],
      "name": "EditionCreated",
      "type": "event"
    },
    {
      "anonymous": false,
      "inputs": [
        {
          "indexed": false,
          "internalType": "uint256",
          "name": "editionId",
          "type": "uint256"
        }
      ],
      "name": "EditionResumed",
      "type": "event"
    },
    {
      "anonymous": false,
      "inputs": [
        {
          "indexed": false,
          "internalType": "uint256",
          "name": "editionId",
          "type": "uint256"
        }
      ],
      "name": "EditionStopped",
      "type": "event"
    },
    {
      "anonymous": false,
      "inputs": [
        {
          "indexed": false,
          "internalType": "uint8",
          "name": "version",
          "type": "uint8"
        }
      ],
      "name": "Initialized",
      "type": "event"
    },
    {
      "anonymous": false,
      "inputs": [
        {
          "indexed": false,
          "internalType": "address",
          "name": "account",
          "type": "address"
        }
      ],
      "name": "Paused",
      "type": "event"
    },
    {
      "anonymous": false,
      "inputs": [
        {
          "indexed": true,
          "internalType": "bytes32",
          "name": "role",
          "type": "bytes32"
        },
        {
          "indexed": true,
          "internalType": "bytes32",
          "name": "previousAdminRole",
          "type": "bytes32"
        },
        {
          "indexed": true,
          "internalType": "bytes32",
          "name": "newAdminRole",
          "type": "bytes32"
        }
      ],
      "name": "RoleAdminChanged",
      "type": "event"
    },
    {
      "anonymous": false,
      "inputs": [
        {
          "indexed": true,
          "internalType": "bytes32",
          "name": "role",
          "type": "bytes32"
        },
        {
          "indexed": true,
          "internalType": "address",
          "name": "account",
          "type": "address"
        },
        {
          "indexed": true,
          "internalType": "address",
          "name": "sender",
          "type": "address"
        }
      ],
      "name": "RoleGranted",
      "type": "event"
    },
    {
      "anonymous": false,
      "inputs": [
        {
          "indexed": true,
          "internalType": "bytes32",
          "name": "role",
          "type": "bytes32"
        },
        {
          "indexed": true,
          "internalType": "address",
          "name": "account",
          "type": "address"
        },
        {
          "indexed": true,
          "internalType": "address",
          "name": "sender",
          "type": "address"
        }
      ],
      "name": "RoleRevoked",
      "type": "event"
    },
    {
      "anonymous": false,
      "inputs": [
        {
          "indexed": true,
          "internalType": "address",
          "name": "operator",
          "type": "address"
        },
        {
          "indexed": true,
          "internalType": "address",
          "name": "from",
          "type": "address"
        },
        {
          "indexed": true,
          "internalType": "address",
          "name": "to",
          "type": "address"
        },
        {
          "indexed": false,
          "internalType": "uint256[]",
          "name": "ids",
          "type": "uint256[]"
        },
        {
          "indexed": false,
          "internalType": "uint256[]",
          "name": "values",
          "type": "uint256[]"
        }
      ],
      "name": "TransferBatch",
      "type": "event"
    },
    {
      "anonymous": false,
      "inputs": [
        {
          "indexed": true,
          "internalType": "address",
          "name": "operator",
          "type": "address"
        },
        {
          "indexed": true,
          "internalType": "address",
          "name": "from",
          "type": "address"
        },
        {
          "indexed": true,
          "internalType": "address",
          "name": "to",
          "type": "address"
        },
        {
          "indexed": false,
          "internalType": "uint256",
          "name": "id",
          "type": "uint256"
        },
        {
          "indexed": false,
          "internalType": "uint256",
          "name": "value",
          "type": "uint256"
        }
      ],
      "name": "TransferSingle",
      "type": "event"
    },
    {
      "anonymous": false,
      "inputs": [
        {
          "indexed": false,
          "internalType": "string",
          "name": "value",
          "type": "string"
        },
        {
          "indexed": true,
          "internalType": "uint256",
          "name": "id",
          "type": "uint256"
        }
      ],
      "name": "URI",
      "type": "event"
    },
    {
      "anonymous": false,
      "inputs": [
        {
          "indexed": false,
          "internalType": "address",
          "name": "account",
          "type": "address"
        }
      ],
      "name": "Unpaused",
      "type": "event"
    },
    {
      "anonymous": false,
      "inputs": [
        {
          "indexed": true,
          "internalType": "address",
          "name": "implementation",
          "type": "address"
        }
      ],
      "name": "Upgraded",
      "type": "event"
    },
    {
      "stateMutability": "payable",
      "type": "fallback"
    },
    {
      "inputs": [],
      "name": "DEFAULT_ADMIN_ROLE",
      "outputs": [
        {
          "internalType": "bytes32",
          "name": "",
          "type": "bytes32"
        }
      ],
      "stateMutability": "view",
      "type": "function"
    },
    {
      "inputs": [
        {
          "internalType": "uint256",
          "name": "editionId",
          "type": "uint256"
        }
      ],
      "name": "approveEdition",
      "outputs": [],
      "stateMutability": "nonpayable",
      "type": "function"
    },
    {
      "inputs": [
        {
          "internalType": "address",
          "name": "account",
          "type": "address"
        },
        {
          "internalType": "uint256",
          "name": "id",
          "type": "uint256"
        }
      ],
      "name": "balanceOf",
      "outputs": [
        {
          "internalType": "uint256",
          "name": "",
          "type": "uint256"
        }
      ],
      "stateMutability": "view",
      "type": "function"
    },
    {
      "inputs": [
        {
          "internalType": "address[]",
          "name": "accounts",
          "type": "address[]"
        },
        {
          "internalType": "uint256[]",
          "name": "ids",
          "type": "uint256[]"
        }
      ],
      "name": "balanceOfBatch",
      "outputs": [
        {
          "internalType": "uint256[]",
          "name": "",
          "type": "uint256[]"
        }
      ],
      "stateMutability": "view",
      "type": "function"
    },
    {
      "inputs": [
        {
          "internalType": "address",
          "name": "account",
          "type": "address"
        },
        {
          "internalType": "uint256",
          "name": "id",
          "type": "uint256"
        },
        {
          "internalType": "uint256",
          "name": "value",
          "type": "uint256"
        }
      ],
      "name": "burn",
      "outputs": [],
      "stateMutability": "nonpayable",
      "type": "function"
    },
    {
      "inputs": [
        {
          "internalType": "address",
          "name": "account",
          "type": "address"
        },
        {
          "internalType": "uint256[]",
          "name": "ids",
          "type": "uint256[]"
        },
        {
          "internalType": "uint256[]",
          "name": "values",
          "type": "uint256[]"
        }
      ],
      "name": "burnBatch",
      "outputs": [],
      "stateMutability": "nonpayable",
      "type": "function"
    },
    {
      "inputs": [
        {
          "internalType": "uint256",
          "name": "fee",
          "type": "uint256"
        }
      ],
      "name": "createEdition",
      "outputs": [
        {
          "internalType": "uint256",
          "name": "editionId",
          "type": "uint256"
        }
      ],
      "stateMutability": "nonpayable",
      "type": "function"
    },
    {
      "inputs": [],
      "name": "editionCounter",
      "outputs": [
        {
          "internalType": "uint256",
          "name": "",
          "type": "uint256"
        }
      ],
      "stateMutability": "view",
      "type": "function"
    },
    {
      "inputs": [
        {
          "internalType": "uint256",
          "name": "",
          "type": "uint256"
        }
      ],
      "name": "editions",
      "outputs": [
        {
          "internalType": "enum EditionsStructs.EditionStatus",
          "name": "status",
          "type": "uint8"
        },
        {
          "internalType": "uint256",
          "name": "fee",
          "type": "uint256"
        },
        {
          "internalType": "uint256",
          "name": "balance",
          "type": "uint256"
        },
        {
          "internalType": "address",
          "name": "owner",
          "type": "address"
        }
      ],
      "stateMutability": "view",
      "type": "function"
    },
    {
      "inputs": [
        {
          "internalType": "uint256",
          "name": "id",
          "type": "uint256"
        }
      ],
      "name": "exists",
      "outputs": [
        {
          "internalType": "bool",
          "name": "",
          "type": "bool"
        }
      ],
      "stateMutability": "view",
      "type": "function"
    },
    {
      "inputs": [
        {
          "internalType": "bytes32",
          "name": "role",
          "type": "bytes32"
        }
      ],
      "name": "getRoleAdmin",
      "outputs": [
        {
          "internalType": "bytes32",
          "name": "",
          "type": "bytes32"
        }
      ],
      "stateMutability": "view",
      "type": "function"
    },
    {
      "inputs": [
        {
          "internalType": "bytes32",
          "name": "role",
          "type": "bytes32"
        },
        {
          "internalType": "address",
          "name": "account",
          "type": "address"
        }
      ],
      "name": "grantRole",
      "outputs": [],
      "stateMutability": "nonpayable",
      "type": "function"
    },
    {
      "inputs": [
        {
          "internalType": "bytes32",
          "name": "role",
          "type": "bytes32"
        },
        {
          "internalType": "address",
          "name": "account",
          "type": "address"
        }
      ],
      "name": "hasRole",
      "outputs": [
        {
          "internalType": "bool",
          "name": "",
          "type": "bool"
        }
      ],
      "stateMutability": "view",
      "type": "function"
    },
    {
      "inputs": [],
      "name": "initialize",
      "outputs": [],
      "stateMutability": "nonpayable",
      "type": "function"
    },
    {
      "inputs": [
        {
          "internalType": "address",
          "name": "account",
          "type": "address"
        },
        {
          "internalType": "address",
          "name": "operator",
          "type": "address"
        }
      ],
      "name": "isApprovedForAll",
      "outputs": [
        {
          "internalType": "bool",
          "name": "",
          "type": "bool"
        }
      ],
      "stateMutability": "view",
      "type": "function"
    },
    {
      "inputs": [
        {
          "internalType": "uint256",
          "name": "editionId",
          "type": "uint256"
        },
        {
          "internalType": "uint256",
          "name": "amount",
          "type": "uint256"
        },
        {
          "internalType": "bytes",
          "name": "data",
          "type": "bytes"
        }
      ],
      "name": "mintEdition",
      "outputs": [],
      "stateMutability": "payable",
      "type": "function"
    },
    {
      "inputs": [],
      "name": "pause",
      "outputs": [],
      "stateMutability": "nonpayable",
      "type": "function"
    },
    {
      "inputs": [],
      "name": "paused",
      "outputs": [
        {
          "internalType": "bool",
          "name": "",
          "type": "bool"
        }
      ],
      "stateMutability": "view",
      "type": "function"
    },
    {
      "inputs": [],
      "name": "protocolFee",
      "outputs": [
        {
          "internalType": "uint256",
          "name": "",
          "type": "uint256"
        }
      ],
      "stateMutability": "view",
      "type": "function"
    },
    {
      "inputs": [],
      "name": "proxiableUUID",
      "outputs": [
        {
          "internalType": "bytes32",
          "name": "",
          "type": "bytes32"
        }
      ],
      "stateMutability": "view",
      "type": "function"
    },
    {
      "inputs": [
        {
          "internalType": "bytes32",
          "name": "role",
          "type": "bytes32"
        },
        {
          "internalType": "address",
          "name": "account",
          "type": "address"
        }
      ],
      "name": "renounceRole",
      "outputs": [],
      "stateMutability": "nonpayable",
      "type": "function"
    },
    {
      "inputs": [
        {
          "internalType": "uint256",
          "name": "editionId",
          "type": "uint256"
        }
      ],
      "name": "resumeEdition",
      "outputs": [],
      "stateMutability": "nonpayable",
      "type": "function"
    },
    {
      "inputs": [
        {
          "internalType": "bytes32",
          "name": "role",
          "type": "bytes32"
        },
        {
          "internalType": "address",
          "name": "account",
          "type": "address"
        }
      ],
      "name": "revokeRole",
      "outputs": [],
      "stateMutability": "nonpayable",
      "type": "function"
    },
    {
      "inputs": [
        {
          "internalType": "address",
          "name": "from",
          "type": "address"
        },
        {
          "internalType": "address",
          "name": "to",
          "type": "address"
        },
        {
          "internalType": "uint256[]",
          "name": "ids",
          "type": "uint256[]"
        },
        {
          "internalType": "uint256[]",
          "name": "amounts",
          "type": "uint256[]"
        },
        {
          "internalType": "bytes",
          "name": "data",
          "type": "bytes"
        }
      ],
      "name": "safeBatchTransferFrom",
      "outputs": [],
      "stateMutability": "nonpayable",
      "type": "function"
    },
    {
      "inputs": [
        {
          "internalType": "address",
          "name": "from",
          "type": "address"
        },
        {
          "internalType": "address",
          "name": "to",
          "type": "address"
        },
        {
          "internalType": "uint256",
          "name": "id",
          "type": "uint256"
        },
        {
          "internalType": "uint256",
          "name": "amount",
          "type": "uint256"
        },
        {
          "internalType": "bytes",
          "name": "data",
          "type": "bytes"
        }
      ],
      "name": "safeTransferFrom",
      "outputs": [],
      "stateMutability": "nonpayable",
      "type": "function"
    },
    {
      "inputs": [
        {
          "internalType": "address",
          "name": "operator",
          "type": "address"
        },
        {
          "internalType": "bool",
          "name": "approved",
          "type": "bool"
        }
      ],
      "name": "setApprovalForAll",
      "outputs": [],
      "stateMutability": "nonpayable",
      "type": "function"
    },
    {
      "inputs": [
        {
          "internalType": "uint256",
          "name": "_protocolFee",
          "type": "uint256"
        }
      ],
      "name": "setProtocolFee",
      "outputs": [],
      "stateMutability": "nonpayable",
      "type": "function"
    },
    {
      "inputs": [
        {
          "internalType": "string",
          "name": "newuri",
          "type": "string"
        }
      ],
      "name": "setURI",
      "outputs": [],
      "stateMutability": "nonpayable",
      "type": "function"
    },
    {
      "inputs": [
        {
          "internalType": "uint256",
          "name": "editionId",
          "type": "uint256"
        }
      ],
      "name": "stopEdition",
      "outputs": [],
      "stateMutability": "nonpayable",
      "type": "function"
    },
    {
      "inputs": [
        {
          "internalType": "bytes4",
          "name": "interfaceId",
          "type": "bytes4"
        }
      ],
      "name": "supportsInterface",
      "outputs": [
        {
          "internalType": "bool",
          "name": "",
          "type": "bool"
        }
      ],
      "stateMutability": "view",
      "type": "function"
    },
    {
      "inputs": [
        {
          "internalType": "uint256",
          "name": "id",
          "type": "uint256"
        }
      ],
      "name": "totalSupply",
      "outputs": [
        {
          "internalType": "uint256",
          "name": "",
          "type": "uint256"
        }
      ],
      "stateMutability": "view",
      "type": "function"
    },
    {
      "inputs": [],
      "name": "unpause",
      "outputs": [],
      "stateMutability": "nonpayable",
      "type": "function"
    },
    {
      "inputs": [
        {
          "internalType": "address",
          "name": "newImplementation",
          "type": "address"
        }
      ],
      "name": "upgradeTo",
      "outputs": [],
      "stateMutability": "nonpayable",
      "type": "function"
    },
    {
      "inputs": [
        {
          "internalType": "address",
          "name": "newImplementation",
          "type": "address"
        },
        {
          "internalType": "bytes",
          "name": "data",
          "type": "bytes"
        }
      ],
      "name": "upgradeToAndCall",
      "outputs": [],
      "stateMutability": "payable",
      "type": "function"
    },
    {
      "inputs": [
        {
          "internalType": "uint256",
          "name": "",
          "type": "uint256"
        }
      ],
      "name": "uri",
      "outputs": [
        {
          "internalType": "string",
          "name": "",
          "type": "string"
        }
      ],
      "stateMutability": "view",
      "type": "function"
    },
    {
      "inputs": [
        {
          "internalType": "uint256",
          "name": "editionId",
          "type": "uint256"
        },
        {
          "internalType": "uint256",
          "name": "amount",
          "type": "uint256"
        }
      ],
      "name": "withdrawEditionBalance",
      "outputs": [],
      "stateMutability": "nonpayable",
      "type": "function"
    },
    {
      "inputs": [
        {
          "internalType": "uint256",
          "name": "amount",
          "type": "uint256"
        }
      ],
      "name": "withdrawFunds",
      "outputs": [],
      "stateMutability": "nonpayable",
      "type": "function"
    },
    {
      "stateMutability": "payable",
      "type": "receive"
    }
  ],
  "bytecode": "0x60a0604052306080523480156200001557600080fd5b506200002062000026565b620000e7565b600054610100900460ff1615620000935760405162461bcd60e51b815260206004820152602760248201527f496e697469616c697a61626c653a20636f6e747261637420697320696e697469604482015266616c697a696e6760c81b606482015260840160405180910390fd5b60005460ff90811614620000e5576000805460ff191660ff9081179091556040519081527f7f26b83ff96e1f2b6a682f133852f6798a09c465da95921460cefb38474024989060200160405180910390a15b565b6080516139636200011f60003960008181610bd101528181610c1101528181610e0b01528181610e4b0152610eda01526139636000f3fe6080604052600436106102055760003560e01c80635c975abb11610117578063b0e21e8a116100a5578063d667c9ce1161006c578063d667c9ce1461064e578063e985e9c51461066e578063f242432a146106b7578063f5298aca146106d7578063fc74efa2146106f757005b8063b0e21e8a146105bf578063bd85b039146105d6578063be9cf04714610604578063c6fbb71214610617578063d547741f1461062e57005b80638129fc1c116100e95780638129fc1c146105405780638456cb591461055557806391d148541461056a578063a217fddf1461058a578063a22cb4651461059f57005b80635c975abb146104c85780636b20c454146104e05780637357628c14610500578063787dce3d1461052057005b80632f2ff15d116101945780633f4ba83a116101665780633f4ba83a1461042e5780634e1273f4146104435780634f1ef286146104705780634f558e791461048357806352d1902d146104b357005b80632f2ff15d146103ae578063330cbc75146103ce57806336568abe146103ee5780633659cfe61461040e57005b80630e89341c116101d85780630e89341c146102b1578063155dd5ee146102de578063248a9ca3146102fe578063279c806e1461032e5780632eb2c2d61461038e57005b8062fdd58e1461020e57806301ffc9a71461024157806302fe5305146102715780630a579eca1461029157005b3661020c57005b005b34801561021a57600080fd5b5061022e610229366004612b08565b610717565b6040519081526020015b60405180910390f35b34801561024d57600080fd5b5061026161025c366004612b48565b6107b2565b6040519015158152602001610238565b34801561027d57600080fd5b5061020c61028c366004612c04565b6107bd565b34801561029d57600080fd5b5061020c6102ac366004612c4c565b6107f4565b3480156102bd57600080fd5b506102d16102cc366004612c4c565b6108c5565b6040516102389190612cb5565b3480156102ea57600080fd5b5061020c6102f9366004612c4c565b610959565b34801561030a57600080fd5b5061022e610319366004612c4c565b60009081526097602052604090206001015490565b34801561033a57600080fd5b5061037e610349366004612c4c565b6101c460205260009081526040902080546001820154600283015460039093015460ff9092169290916001600160a01b031684565b6040516102389493929190612cde565b34801561039a57600080fd5b5061020c6103a9366004612dd9565b6109d2565b3480156103ba57600080fd5b5061020c6103c9366004612e82565b610a1e565b3480156103da57600080fd5b5061022e6103e9366004612c4c565b610a33565b3480156103fa57600080fd5b5061020c610409366004612e82565b610b4d565b34801561041a57600080fd5b5061020c610429366004612eae565b610bc7565b34801561043a57600080fd5b5061020c610ca6565b34801561044f57600080fd5b5061046361045e366004612ec9565b610cd8565b6040516102389190612fce565b61020c61047e366004612fe1565b610e01565b34801561048f57600080fd5b5061026161049e366004612c4c565b600090815261012d6020526040902054151590565b3480156104bf57600080fd5b5061022e610ecd565b3480156104d457600080fd5b5060c95460ff16610261565b3480156104ec57600080fd5b5061020c6104fb366004613024565b610f81565b34801561050c57600080fd5b5061020c61051b366004612c4c565b610fc4565b34801561052c57600080fd5b5061020c61053b366004612c4c565b611065565b34801561054c57600080fd5b5061020c611077565b34801561056157600080fd5b5061020c611218565b34801561057657600080fd5b50610261610585366004612e82565b61124a565b34801561059657600080fd5b5061022e600081565b3480156105ab57600080fd5b5061020c6105ba366004613097565b611275565b3480156105cb57600080fd5b5061022e6101c35481565b3480156105e257600080fd5b5061022e6105f1366004612c4c565b600090815261012d602052604090205490565b61020c6106123660046130d3565b611280565b34801561062357600080fd5b5061022e6101c55481565b34801561063a57600080fd5b5061020c610649366004612e82565b611348565b34801561065a57600080fd5b5061020c610669366004613118565b61136d565b34801561067a57600080fd5b5061026161068936600461313a565b6001600160a01b03918216600090815260666020908152604080832093909416825291909152205460ff1690565b3480156106c357600080fd5b5061020c6106d2366004613164565b6114af565b3480156106e357600080fd5b5061020c6106f23660046131c8565b6114f4565b34801561070357600080fd5b5061020c610712366004612c4c565b611537565b60006001600160a01b0383166107875760405162461bcd60e51b815260206004820152602a60248201527f455243313135353a2061646472657373207a65726f206973206e6f742061207660448201526930b634b21037bbb732b960b11b60648201526084015b60405180910390fd5b5060008181526065602090815260408083206001600160a01b03861684529091529020545b92915050565b60006107ac82611601565b7f7804d923f43a17d325d77e781528e0793b2edd9890ab45fc64efd7b4b427744c6107e781611626565b6107f082611630565b5050565b60008181526101c460205260409020600301546001600160a01b0316331461082f5760405163388f811f60e01b815260040160405180910390fd5b600260008281526101c4602052604090205460ff16600381111561085557610855612cc8565b1461087357604051631f0fb6fd60e11b815260040160405180910390fd5b60008181526101c46020908152604091829020805460ff1916600317905590518281527f591913f977ab242c5871f116f36be231ff67df5e8e0bac1efd91fa8a723aca2b91015b60405180910390a150565b6060606780546108d4906131fb565b80601f0160208091040260200160405190810160405280929190818152602001828054610900906131fb565b801561094d5780601f106109225761010080835404028352916020019161094d565b820191906000526020600020905b81548152906001019060200180831161093057829003601f168201915b50505050509050919050565b600061096481611626565b604051600090339084908381818185875af1925050503d80600081146109a6576040519150601f19603f3d011682016040523d82523d6000602084013e6109ab565b606091505b50509050806109cd576040516317f2c34560e31b815260040160405180910390fd5b505050565b6001600160a01b0385163314806109ee57506109ee8533610689565b610a0a5760405162461bcd60e51b815260040161077e90613235565b610a17858585858561163c565b5050505050565b6000610a2981611626565b6109cd83836117e9565b60006101c354821115610a5957604051636a61a41960e11b815260040160405180910390fd5b506101c55460408051608081019091528060018152602080820185905260006040808401829052336060909401939093528481526101c49091522081518154829060ff19166001836003811115610ab257610ab2612cc8565b02179055506020820151600182015560408201516002820155606090910151600390910180546001600160a01b0319166001600160a01b039092169190911790556101c58054906000610b0483613299565b90915550506040805182815260208101849052338183015290517f7fe7f72f14a53255f3c9e225ab1d40fdb21335b87a7912726a196fb816866ae09181900360600190a1919050565b6001600160a01b0381163314610bbd5760405162461bcd60e51b815260206004820152602f60248201527f416363657373436f6e74726f6c3a2063616e206f6e6c792072656e6f756e636560448201526e103937b632b9903337b91039b2b63360891b606482015260840161077e565b6107f0828261186f565b6001600160a01b037f0000000000000000000000000000000000000000000000000000000000000000163003610c0f5760405162461bcd60e51b815260040161077e906132b2565b7f00000000000000000000000000000000000000000000000000000000000000006001600160a01b0316610c586000805160206138e7833981519152546001600160a01b031690565b6001600160a01b031614610c7e5760405162461bcd60e51b815260040161077e906132fe565b610c87816118d6565b60408051600080825260208201909252610ca391839190611900565b50565b7f65d7a28e3265b37a6474929f336521b332c1681b933f6cb9f3376673440d862a610cd081611626565b610ca3611a6b565b60608151835114610d3d5760405162461bcd60e51b815260206004820152602960248201527f455243313135353a206163636f756e747320616e6420696473206c656e677468604482015268040dad2e6dac2e8c6d60bb1b606482015260840161077e565b600083516001600160401b03811115610d5857610d58612b65565b604051908082528060200260200182016040528015610d81578160200160208202803683370190505b50905060005b8451811015610df957610dcc858281518110610da557610da561334a565b6020026020010151858381518110610dbf57610dbf61334a565b6020026020010151610717565b828281518110610dde57610dde61334a565b6020908102919091010152610df281613299565b9050610d87565b509392505050565b6001600160a01b037f0000000000000000000000000000000000000000000000000000000000000000163003610e495760405162461bcd60e51b815260040161077e906132b2565b7f00000000000000000000000000000000000000000000000000000000000000006001600160a01b0316610e926000805160206138e7833981519152546001600160a01b031690565b6001600160a01b031614610eb85760405162461bcd60e51b815260040161077e906132fe565b610ec1826118d6565b6107f082826001611900565b6000306001600160a01b037f00000000000000000000000000000000000000000000000000000000000000001614610f6d5760405162461bcd60e51b815260206004820152603860248201527f555550535570677261646561626c653a206d757374206e6f742062652063616c60448201527f6c6564207468726f7567682064656c656761746563616c6c0000000000000000606482015260840161077e565b506000805160206138e78339815191525b90565b6001600160a01b038316331480610f9d5750610f9d8333610689565b610fb95760405162461bcd60e51b815260040161077e90613235565b6109cd838383611abd565b6000610fcf81611626565b600160008381526101c4602052604090205460ff166003811115610ff557610ff5612cc8565b146110135760405163137c9c1f60e31b815260040160405180910390fd5b60008281526101c46020908152604091829020805460ff1916600217905590518381527f8f4352ac8b4aefdd2333162306bbe09dd4f4ff6661e89ccc4e4dcced8794e8f7910160405180910390a15050565b600061107081611626565b506101c355565b600054610100900460ff16158080156110975750600054600160ff909116105b806110b15750303b1580156110b1575060005460ff166001145b6111145760405162461bcd60e51b815260206004820152602e60248201527f496e697469616c697a61626c653a20636f6e747261637420697320616c72656160448201526d191e481a5b9a5d1a585b1a5e995960921b606482015260840161077e565b6000805460ff191660011790558015611137576000805461ff0019166101001790555b61114f60405180602001604052806000815250611c5e565b611157611c8e565b61115f611cb7565b611167611c8e565b61116f611c8e565b611177611c8e565b6111826000336117e9565b6111ac7f7804d923f43a17d325d77e781528e0793b2edd9890ab45fc64efd7b4b427744c336117e9565b6111d67f65d7a28e3265b37a6474929f336521b332c1681b933f6cb9f3376673440d862a336117e9565b8015610ca3576000805461ff0019169055604051600181527f7f26b83ff96e1f2b6a682f133852f6798a09c465da95921460cefb3847402498906020016108ba565b7f65d7a28e3265b37a6474929f336521b332c1681b933f6cb9f3376673440d862a61124281611626565b610ca3611ce6565b60009182526097602090815260408084206001600160a01b0393909316845291905290205460ff1690565b6107f0338383611d23565b600260008481526101c4602052604090205460ff1660038111156112a6576112a6612cc8565b146112c457604051631f0fb6fd60e11b815260040160405180910390fd5b60008381526101c460205260409020600101546112e2908390613360565b34101561130257604051631036b5ad60e31b815260040160405180910390fd5b61130e33848484611e03565b6101c35461131c9034613377565b60008481526101c460205260408120600201805490919061133e90849061338a565b9091555050505050565b60008281526097602052604090206001015461136381611626565b6109cd838361186f565b60008281526101c460205260409020600301546001600160a01b031633146113a85760405163388f811f60e01b815260040160405180910390fd5b60008281526101c460205260409020600201548111156113db57604051637eafab7d60e01b815260040160405180910390fd5b604051600090339083908381818185875af1925050503d806000811461141d576040519150601f19603f3d011682016040523d82523d6000602084013e611422565b606091505b5050905080611444576040516317f2c34560e31b815260040160405180910390fd5b60008381526101c4602052604081206002018054849290611466908490613377565b90915550506040805184815260208101849052338183015290517ff1090e9d5138cd4909542e10e1da576730b07eb291a71a151e63160dde345b949181900360600190a1505050565b6001600160a01b0385163314806114cb57506114cb8533610689565b6114e75760405162461bcd60e51b815260040161077e90613235565b610a178585858585611f28565b6001600160a01b03831633148061151057506115108333610689565b61152c5760405162461bcd60e51b815260040161077e90613235565b6109cd838383612064565b60008181526101c460205260409020600301546001600160a01b031633146115725760405163388f811f60e01b815260040160405180910390fd5b600360008281526101c4602052604090205460ff16600381111561159857611598612cc8565b146115b65760405163968807a560e01b815260040160405180910390fd5b60008181526101c46020908152604091829020805460ff1916600217905590518281527f63bb17c9645a29322601b4fe88d8f3fa84f32229368294f903084be8f5d813ba91016108ba565b60006001600160e01b03198216637965db0b60e01b14806107ac57506107ac82612180565b610ca381336121d0565b60676107f082826133e3565b815183511461165d5760405162461bcd60e51b815260040161077e906134a2565b6001600160a01b0384166116835760405162461bcd60e51b815260040161077e906134ea565b33611692818787878787612229565b60005b845181101561177b5760008582815181106116b2576116b261334a565b6020026020010151905060008583815181106116d0576116d061334a565b60209081029190910181015160008481526065835260408082206001600160a01b038e1683529093529190912054909150818110156117215760405162461bcd60e51b815260040161077e9061352f565b60008381526065602090815260408083206001600160a01b038e8116855292528083208585039055908b1682528120805484929061176090849061338a565b925050819055505050508061177490613299565b9050611695565b50846001600160a01b0316866001600160a01b0316826001600160a01b03167f4a39dc06d4c0dbc64b70af90fd698a233a518aa5d07e595d983b8c0526c8f7fb87876040516117cb929190613579565b60405180910390a46117e181878787878761223f565b505050505050565b6117f3828261124a565b6107f05760008281526097602090815260408083206001600160a01b03851684529091529020805460ff1916600117905561182b3390565b6001600160a01b0316816001600160a01b0316837f2f8788117e7eff1d82e926ec794901d17c78024a50270940304540a733656f0d60405160405180910390a45050565b611879828261124a565b156107f05760008281526097602090815260408083206001600160a01b0385168085529252808320805460ff1916905551339285917ff6391f5c32d9c69d2a47ea670b442974b53935d1edc7fd64eb21e047a839171b9190a45050565b7f189ab7a9244df0848122154315af71fe140f3db0fe014031783b0946b8c9d2e36107f081611626565b7f4910fdfa16fed3260ed0e7147f7cc6da11a60208b5b9406d12a635614ffd91435460ff1615611933576109cd8361239a565b826001600160a01b03166352d1902d6040518163ffffffff1660e01b8152600401602060405180830381865afa92505050801561198d575060408051601f3d908101601f1916820190925261198a918101906135a7565b60015b6119f05760405162461bcd60e51b815260206004820152602e60248201527f45524331393637557067726164653a206e657720696d706c656d656e7461746960448201526d6f6e206973206e6f74205555505360901b606482015260840161077e565b6000805160206138e78339815191528114611a5f5760405162461bcd60e51b815260206004820152602960248201527f45524331393637557067726164653a20756e737570706f727465642070726f786044820152681a58589b195555525160ba1b606482015260840161077e565b506109cd838383612436565b611a7361245b565b60c9805460ff191690557f5db9ee0a495bf2e6ff9c91a7834c1ba4fdd244a5e8aa4e537bd38aeae4b073aa335b6040516001600160a01b03909116815260200160405180910390a1565b6001600160a01b038316611ae35760405162461bcd60e51b815260040161077e906135c0565b8051825114611b045760405162461bcd60e51b815260040161077e906134a2565b6000339050611b2781856000868660405180602001604052806000815250612229565b60005b8351811015611bef576000848281518110611b4757611b4761334a565b602002602001015190506000848381518110611b6557611b6561334a565b60209081029190910181015160008481526065835260408082206001600160a01b038c168352909352919091205490915081811015611bb65760405162461bcd60e51b815260040161077e90613603565b60009283526065602090815260408085206001600160a01b038b1686529091529092209103905580611be781613299565b915050611b2a565b5060006001600160a01b0316846001600160a01b0316826001600160a01b03167f4a39dc06d4c0dbc64b70af90fd698a233a518aa5d07e595d983b8c0526c8f7fb8686604051611c40929190613579565b60405180910390a46040805160208101909152600090525b50505050565b600054610100900460ff16611c855760405162461bcd60e51b815260040161077e90613647565b610ca3816124a4565b600054610100900460ff16611cb55760405162461bcd60e51b815260040161077e90613647565b565b600054610100900460ff16611cde5760405162461bcd60e51b815260040161077e90613647565b611cb56124d4565b611cee612507565b60c9805460ff191660011790557f62e78cea01bee320cd4e420270b5ea74000d11b0c9f74754ebdbfc544b05a258611aa03390565b816001600160a01b0316836001600160a01b031603611d965760405162461bcd60e51b815260206004820152602960248201527f455243313135353a2073657474696e6720617070726f76616c20737461747573604482015268103337b91039b2b63360b91b606482015260840161077e565b6001600160a01b03838116600081815260666020908152604080832094871680845294825291829020805460ff191686151590811790915591519182527f17307eab39ab6107e8899845ad3d59bd9653f200f220920489ca2b5937696c31910160405180910390a3505050565b6001600160a01b038416611e635760405162461bcd60e51b815260206004820152602160248201527f455243313135353a206d696e7420746f20746865207a65726f206164647265736044820152607360f81b606482015260840161077e565b336000611e6f8561254d565b90506000611e7c8561254d565b9050611e8d83600089858589612229565b60008681526065602090815260408083206001600160a01b038b16845290915281208054879290611ebf90849061338a565b909155505060408051878152602081018790526001600160a01b03808a1692600092918716917fc3d58168c5ae7397731d063d5bbf3d657854427343f4c083240f7aacaa2d0f62910160405180910390a4611f1f83600089898989612598565b50505050505050565b6001600160a01b038416611f4e5760405162461bcd60e51b815260040161077e906134ea565b336000611f5a8561254d565b90506000611f678561254d565b9050611f77838989858589612229565b60008681526065602090815260408083206001600160a01b038c16845290915290205485811015611fba5760405162461bcd60e51b815260040161077e9061352f565b60008781526065602090815260408083206001600160a01b038d8116855292528083208985039055908a16825281208054889290611ff990849061338a565b909155505060408051888152602081018890526001600160a01b03808b16928c821692918816917fc3d58168c5ae7397731d063d5bbf3d657854427343f4c083240f7aacaa2d0f62910160405180910390a4612059848a8a8a8a8a612598565b505050505050505050565b6001600160a01b03831661208a5760405162461bcd60e51b815260040161077e906135c0565b3360006120968461254d565b905060006120a38461254d565b90506120c383876000858560405180602001604052806000815250612229565b60008581526065602090815260408083206001600160a01b038a168452909152902054848110156121065760405162461bcd60e51b815260040161077e90613603565b60008681526065602090815260408083206001600160a01b038b81168086529184528285208a8703905582518b81529384018a90529092908816917fc3d58168c5ae7397731d063d5bbf3d657854427343f4c083240f7aacaa2d0f62910160405180910390a4604080516020810190915260009052611f1f565b60006001600160e01b03198216636cdb3d1360e11b14806121b157506001600160e01b031982166303a24d0760e21b145b806107ac57506301ffc9a760e01b6001600160e01b03198316146107ac565b6121da828261124a565b6107f0576121e781612653565b6121f2836020612665565b604051602001612203929190613692565b60408051601f198184030181529082905262461bcd60e51b825261077e91600401612cb5565b612231612507565b6117e1868686868686612807565b6001600160a01b0384163b156117e15760405163bc197c8160e01b81526001600160a01b0385169063bc197c81906122839089908990889088908890600401613707565b6020604051808303816000875af19250505080156122be575060408051601f3d908101601f191682019092526122bb91810190613765565b60015b61236a576122ca613782565b806308c379a00361230357506122de61379d565b806122e95750612305565b8060405162461bcd60e51b815260040161077e9190612cb5565b505b60405162461bcd60e51b815260206004820152603460248201527f455243313135353a207472616e7366657220746f206e6f6e2d455243313135356044820152732932b1b2b4bb32b91034b6b83632b6b2b73a32b960611b606482015260840161077e565b6001600160e01b0319811663bc197c8160e01b14611f1f5760405162461bcd60e51b815260040161077e90613826565b6001600160a01b0381163b6124075760405162461bcd60e51b815260206004820152602d60248201527f455243313936373a206e657720696d706c656d656e746174696f6e206973206e60448201526c1bdd08184818dbdb9d1c9858dd609a1b606482015260840161077e565b6000805160206138e783398151915280546001600160a01b0319166001600160a01b0392909216919091179055565b61243f83612983565b60008251118061244c5750805b156109cd57611c5883836129c3565b60c95460ff16611cb55760405162461bcd60e51b815260206004820152601460248201527314185d5cd8589b194e881b9bdd081c185d5cd95960621b604482015260640161077e565b600054610100900460ff166124cb5760405162461bcd60e51b815260040161077e90613647565b610ca381611630565b600054610100900460ff166124fb5760405162461bcd60e51b815260040161077e90613647565b60c9805460ff19169055565b60c95460ff1615611cb55760405162461bcd60e51b815260206004820152601060248201526f14185d5cd8589b194e881c185d5cd95960821b604482015260640161077e565b604080516001808252818301909252606091600091906020808301908036833701905050905082816000815181106125875761258761334a565b602090810291909101015292915050565b6001600160a01b0384163b156117e15760405163f23a6e6160e01b81526001600160a01b0385169063f23a6e61906125dc908990899088908890889060040161386e565b6020604051808303816000875af1925050508015612617575060408051601f3d908101601f1916820190925261261491810190613765565b60015b612623576122ca613782565b6001600160e01b0319811663f23a6e6160e01b14611f1f5760405162461bcd60e51b815260040161077e90613826565b60606107ac6001600160a01b03831660145b60606000612674836002613360565b61267f90600261338a565b6001600160401b0381111561269657612696612b65565b6040519080825280601f01601f1916602001820160405280156126c0576020820181803683370190505b509050600360fc1b816000815181106126db576126db61334a565b60200101906001600160f81b031916908160001a905350600f60fb1b8160018151811061270a5761270a61334a565b60200101906001600160f81b031916908160001a905350600061272e846002613360565b61273990600161338a565b90505b60018111156127b1576f181899199a1a9b1b9c1cb0b131b232b360811b85600f166010811061276d5761276d61334a565b1a60f81b8282815181106127835761278361334a565b60200101906001600160f81b031916908160001a90535060049490941c936127aa816138b3565b905061273c565b5083156128005760405162461bcd60e51b815260206004820181905260248201527f537472696e67733a20686578206c656e67746820696e73756666696369656e74604482015260640161077e565b9392505050565b6001600160a01b03851661288f5760005b835181101561288d578281815181106128335761283361334a565b602002602001015161012d60008684815181106128525761285261334a565b602002602001015181526020019081526020016000206000828254612877919061338a565b90915550612886905081613299565b9050612818565b505b6001600160a01b0384166117e15760005b8351811015611f1f5760008482815181106128bd576128bd61334a565b6020026020010151905060008483815181106128db576128db61334a565b60200260200101519050600061012d60008481526020019081526020016000205490508181101561295f5760405162461bcd60e51b815260206004820152602860248201527f455243313135353a206275726e20616d6f756e74206578636565647320746f74604482015267616c537570706c7960c01b606482015260840161077e565b600092835261012d60205260409092209103905561297c81613299565b90506128a0565b61298c8161239a565b6040516001600160a01b038216907fbc7cd75a20ee27fd9adebab32041f755214dbc6bffa90cc0225b39da2e5c2d3b90600090a250565b60606128008383604051806060016040528060278152602001613907602791396060600080856001600160a01b031685604051612a0091906138ca565b600060405180830381855af49150503d8060008114612a3b576040519150601f19603f3d011682016040523d82523d6000602084013e612a40565b606091505b5091509150612a5186838387612a5b565b9695505050505050565b60608315612aca578251600003612ac3576001600160a01b0385163b612ac35760405162461bcd60e51b815260206004820152601d60248201527f416464726573733a2063616c6c20746f206e6f6e2d636f6e7472616374000000604482015260640161077e565b5081612ad4565b612ad48383612adc565b949350505050565b8151156122e95781518083602001fd5b80356001600160a01b0381168114612b0357600080fd5b919050565b60008060408385031215612b1b57600080fd5b612b2483612aec565b946020939093013593505050565b6001600160e01b031981168114610ca357600080fd5b600060208284031215612b5a57600080fd5b813561280081612b32565b634e487b7160e01b600052604160045260246000fd5b601f8201601f191681016001600160401b0381118282101715612ba057612ba0612b65565b6040525050565b60006001600160401b03831115612bc057612bc0612b65565b604051612bd7601f8501601f191660200182612b7b565b809150838152848484011115612bec57600080fd5b83836020830137600060208583010152509392505050565b600060208284031215612c1657600080fd5b81356001600160401b03811115612c2c57600080fd5b8201601f81018413612c3d57600080fd5b612ad484823560208401612ba7565b600060208284031215612c5e57600080fd5b5035919050565b60005b83811015612c80578181015183820152602001612c68565b50506000910152565b60008151808452612ca1816020860160208601612c65565b601f01601f19169290920160200192915050565b6020815260006128006020830184612c89565b634e487b7160e01b600052602160045260246000fd5b6080810160048610612d0057634e487b7160e01b600052602160045260246000fd5b948152602081019390935260408301919091526001600160a01b031660609091015290565b60006001600160401b03821115612d3e57612d3e612b65565b5060051b60200190565b600082601f830112612d5957600080fd5b81356020612d6682612d25565b604051612d738282612b7b565b83815260059390931b8501820192828101915086841115612d9357600080fd5b8286015b84811015612dae5780358352918301918301612d97565b509695505050505050565b600082601f830112612dca57600080fd5b61280083833560208501612ba7565b600080600080600060a08688031215612df157600080fd5b612dfa86612aec565b9450612e0860208701612aec565b935060408601356001600160401b0380821115612e2457600080fd5b612e3089838a01612d48565b94506060880135915080821115612e4657600080fd5b612e5289838a01612d48565b93506080880135915080821115612e6857600080fd5b50612e7588828901612db9565b9150509295509295909350565b60008060408385031215612e9557600080fd5b82359150612ea560208401612aec565b90509250929050565b600060208284031215612ec057600080fd5b61280082612aec565b60008060408385031215612edc57600080fd5b82356001600160401b0380821115612ef357600080fd5b818501915085601f830112612f0757600080fd5b81356020612f1482612d25565b604051612f218282612b7b565b83815260059390931b8501820192828101915089841115612f4157600080fd5b948201945b83861015612f6657612f5786612aec565b82529482019490820190612f46565b96505086013592505080821115612f7c57600080fd5b50612f8985828601612d48565b9150509250929050565b600081518084526020808501945080840160005b83811015612fc357815187529582019590820190600101612fa7565b509495945050505050565b6020815260006128006020830184612f93565b60008060408385031215612ff457600080fd5b612ffd83612aec565b915060208301356001600160401b0381111561301857600080fd5b612f8985828601612db9565b60008060006060848603121561303957600080fd5b61304284612aec565b925060208401356001600160401b038082111561305e57600080fd5b61306a87838801612d48565b9350604086013591508082111561308057600080fd5b5061308d86828701612d48565b9150509250925092565b600080604083850312156130aa57600080fd5b6130b383612aec565b9150602083013580151581146130c857600080fd5b809150509250929050565b6000806000606084860312156130e857600080fd5b833592506020840135915060408401356001600160401b0381111561310c57600080fd5b61308d86828701612db9565b6000806040838503121561312b57600080fd5b50508035926020909101359150565b6000806040838503121561314d57600080fd5b61315683612aec565b9150612ea560208401612aec565b600080600080600060a0868803121561317c57600080fd5b61318586612aec565b945061319360208701612aec565b9350604086013592506060860135915060808601356001600160401b038111156131bc57600080fd5b612e7588828901612db9565b6000806000606084860312156131dd57600080fd5b6131e684612aec565b95602085013595506040909401359392505050565b600181811c9082168061320f57607f821691505b60208210810361322f57634e487b7160e01b600052602260045260246000fd5b50919050565b6020808252602e908201527f455243313135353a2063616c6c6572206973206e6f7420746f6b656e206f776e60408201526d195c881bdc88185c1c1c9bdd995960921b606082015260800190565b634e487b7160e01b600052601160045260246000fd5b6000600182016132ab576132ab613283565b5060010190565b6020808252602c908201527f46756e6374696f6e206d7573742062652063616c6c6564207468726f7567682060408201526b19195b1959d85d1958d85b1b60a21b606082015260800190565b6020808252602c908201527f46756e6374696f6e206d7573742062652063616c6c6564207468726f7567682060408201526b6163746976652070726f787960a01b606082015260800190565b634e487b7160e01b600052603260045260246000fd5b80820281158282048414176107ac576107ac613283565b818103818111156107ac576107ac613283565b808201808211156107ac576107ac613283565b601f8211156109cd57600081815260208120601f850160051c810160208610156133c45750805b601f850160051c820191505b818110156117e1578281556001016133d0565b81516001600160401b038111156133fc576133fc612b65565b6134108161340a84546131fb565b8461339d565b602080601f831160018114613445576000841561342d5750858301515b600019600386901b1c1916600185901b1785556117e1565b600085815260208120601f198616915b8281101561347457888601518255948401946001909101908401613455565b50858210156134925787850151600019600388901b60f8161c191681555b5050505050600190811b01905550565b60208082526028908201527f455243313135353a2069647320616e6420616d6f756e7473206c656e677468206040820152670dad2e6dac2e8c6d60c31b606082015260800190565b60208082526025908201527f455243313135353a207472616e7366657220746f20746865207a65726f206164604082015264647265737360d81b606082015260800190565b6020808252602a908201527f455243313135353a20696e73756666696369656e742062616c616e636520666f60408201526939103a3930b739b332b960b11b606082015260800190565b60408152600061358c6040830185612f93565b828103602084015261359e8185612f93565b95945050505050565b6000602082840312156135b957600080fd5b5051919050565b60208082526023908201527f455243313135353a206275726e2066726f6d20746865207a65726f206164647260408201526265737360e81b606082015260800190565b60208082526024908201527f455243313135353a206275726e20616d6f756e7420657863656564732062616c604082015263616e636560e01b606082015260800190565b6020808252602b908201527f496e697469616c697a61626c653a20636f6e7472616374206973206e6f74206960408201526a6e697469616c697a696e6760a81b606082015260800190565b7f416363657373436f6e74726f6c3a206163636f756e74200000000000000000008152600083516136ca816017850160208801612c65565b7001034b99036b4b9b9b4b733903937b6329607d1b60179184019182015283516136fb816028840160208801612c65565b01602801949350505050565b6001600160a01b0386811682528516602082015260a06040820181905260009061373390830186612f93565b82810360608401526137458186612f93565b905082810360808401526137598185612c89565b98975050505050505050565b60006020828403121561377757600080fd5b815161280081612b32565b600060033d1115610f7e5760046000803e5060005160e01c90565b600060443d10156137ab5790565b6040516003193d81016004833e81513d6001600160401b0381602484011181841117156137da57505050505090565b82850191508151818111156137f25750505050505090565b843d870101602082850101111561380c5750505050505090565b61381b60208286010187612b7b565b509095945050505050565b60208082526028908201527f455243313135353a204552433131353552656365697665722072656a656374656040820152676420746f6b656e7360c01b606082015260800190565b6001600160a01b03868116825285166020820152604081018490526060810183905260a0608082018190526000906138a890830184612c89565b979650505050505050565b6000816138c2576138c2613283565b506000190190565b600082516138dc818460208701612c65565b919091019291505056fe360894a13ba1a3210667c828492db98dca3e2076cc3735a920a3ca505d382bbc416464726573733a206c6f772d6c6576656c2064656c65676174652063616c6c206661696c6564a2646970667358221220aabf59a48f6a48ccee57828fec39e95f4d038569dba56f911f00138d3a53e95264736f6c63430008130033",
  "linkReferences": {},
  "deployedLinkReferences": {}
}