{
  "_format": "hh-sol-artifact-1",
  "contractName": "RadarEditions",
  "sourceName": "src/RadarEditions.sol",
  "abi": [
    {
      "inputs": [],
      "stateMutability": "nonpayable",
      "type": "constructor"
    },
    {
      "inputs": [],
      "name": "EditionFeeExceedsProtocolFee",
      "type": "error"
    },
    {
      "inputs": [],
      "name": "EditionNotCreated",
      "type": "error"
    },
    {
      "inputs": [],
      "name": "EditionNotEnoughBalance",
      "type": "error"
    },
    {
      "inputs": [],
      "name": "EditionNotLaunched",
      "type": "error"
    },
    {
      "inputs": [],
      "name": "EditionNotStopped",
      "type": "error"
    },
    {
      "inputs": [],
      "name": "NotEditionOwner",
      "type": "error"
    },
    {
      "inputs": [],
      "name": "NotEnoughFunds",
      "type": "error"
    },
    {
      "inputs": [],
      "name": "TransactionFailed",
      "type": "error"
    },
    {
      "anonymous": false,
      "inputs": [
        {
          "indexed": false,
          "internalType": "address",
          "name": "previousAdmin",
          "type": "address"
        },
        {
          "indexed": false,
          "internalType": "address",
          "name": "newAdmin",
          "type": "address"
        }
      ],
      "name": "AdminChanged",
      "type": "event"
    },
    {
      "anonymous": false,
      "inputs": [
        {
          "indexed": true,
          "internalType": "address",
          "name": "account",
          "type": "address"
        },
        {
          "indexed": true,
          "internalType": "address",
          "name": "operator",
          "type": "address"
        },
        {
          "indexed": false,
          "internalType": "bool",
          "name": "approved",
          "type": "bool"
        }
      ],
      "name": "ApprovalForAll",
      "type": "event"
    },
    {
      "anonymous": false,
      "inputs": [
        {
          "indexed": true,
          "internalType": "address",
          "name": "beacon",
          "type": "address"
        }
      ],
      "name": "BeaconUpgraded",
      "type": "event"
    },
    {
      "anonymous": false,
      "inputs": [
        {
          "indexed": false,
          "internalType": "uint256",
          "name": "editionId",
          "type": "uint256"
        }
      ],
      "name": "EditionApproved",
      "type": "event"
    },
    {
      "anonymous": false,
      "inputs": [
        {
          "indexed": false,
          "internalType": "uint256",
          "name": "editionId",
          "type": "uint256"
        },
        {
          "indexed": false,
          "internalType": "uint256",
          "name": "amount",
          "type": "uint256"
        },
        {
          "indexed": false,
          "internalType": "address",
          "name": "owner",
          "type": "address"
        }
      ],
      "name": "EditionBalanceWithdrawn",
      "type": "event"
    },
    {
      "anonymous": false,
      "inputs": [
        {
          "indexed": false,
          "internalType": "uint256",
          "name": "editionId",
          "type": "uint256"
        },
        {
          "indexed": false,
          "internalType": "uint256",
          "name": "fee",
          "type": "uint256"
        },
        {
          "indexed": false,
          "internalType": "address",
          "name": "owner",
          "type": "address"
        }
      ],
      "name": "EditionCreated",
      "type": "event"
    },
    {
      "anonymous": false,
      "inputs": [
        {
          "indexed": false,
          "internalType": "uint256",
          "name": "editionId",
          "type": "uint256"
        }
      ],
      "name": "EditionResumed",
      "type": "event"
    },
    {
      "anonymous": false,
      "inputs": [
        {
          "indexed": false,
          "internalType": "uint256",
          "name": "editionId",
          "type": "uint256"
        }
      ],
      "name": "EditionStopped",
      "type": "event"
    },
    {
      "anonymous": false,
      "inputs": [
        {
          "indexed": false,
          "internalType": "uint8",
          "name": "version",
          "type": "uint8"
        }
      ],
      "name": "Initialized",
      "type": "event"
    },
    {
      "anonymous": false,
      "inputs": [
        {
          "indexed": false,
          "internalType": "address",
          "name": "account",
          "type": "address"
        }
      ],
      "name": "Paused",
      "type": "event"
    },
    {
      "anonymous": false,
      "inputs": [
        {
          "indexed": true,
          "internalType": "bytes32",
          "name": "role",
          "type": "bytes32"
        },
        {
          "indexed": true,
          "internalType": "bytes32",
          "name": "previousAdminRole",
          "type": "bytes32"
        },
        {
          "indexed": true,
          "internalType": "bytes32",
          "name": "newAdminRole",
          "type": "bytes32"
        }
      ],
      "name": "RoleAdminChanged",
      "type": "event"
    },
    {
      "anonymous": false,
      "inputs": [
        {
          "indexed": true,
          "internalType": "bytes32",
          "name": "role",
          "type": "bytes32"
        },
        {
          "indexed": true,
          "internalType": "address",
          "name": "account",
          "type": "address"
        },
        {
          "indexed": true,
          "internalType": "address",
          "name": "sender",
          "type": "address"
        }
      ],
      "name": "RoleGranted",
      "type": "event"
    },
    {
      "anonymous": false,
      "inputs": [
        {
          "indexed": true,
          "internalType": "bytes32",
          "name": "role",
          "type": "bytes32"
        },
        {
          "indexed": true,
          "internalType": "address",
          "name": "account",
          "type": "address"
        },
        {
          "indexed": true,
          "internalType": "address",
          "name": "sender",
          "type": "address"
        }
      ],
      "name": "RoleRevoked",
      "type": "event"
    },
    {
      "anonymous": false,
      "inputs": [
        {
          "indexed": true,
          "internalType": "address",
          "name": "operator",
          "type": "address"
        },
        {
          "indexed": true,
          "internalType": "address",
          "name": "from",
          "type": "address"
        },
        {
          "indexed": true,
          "internalType": "address",
          "name": "to",
          "type": "address"
        },
        {
          "indexed": false,
          "internalType": "uint256[]",
          "name": "ids",
          "type": "uint256[]"
        },
        {
          "indexed": false,
          "internalType": "uint256[]",
          "name": "values",
          "type": "uint256[]"
        }
      ],
      "name": "TransferBatch",
      "type": "event"
    },
    {
      "anonymous": false,
      "inputs": [
        {
          "indexed": true,
          "internalType": "address",
          "name": "operator",
          "type": "address"
        },
        {
          "indexed": true,
          "internalType": "address",
          "name": "from",
          "type": "address"
        },
        {
          "indexed": true,
          "internalType": "address",
          "name": "to",
          "type": "address"
        },
        {
          "indexed": false,
          "internalType": "uint256",
          "name": "id",
          "type": "uint256"
        },
        {
          "indexed": false,
          "internalType": "uint256",
          "name": "value",
          "type": "uint256"
        }
      ],
      "name": "TransferSingle",
      "type": "event"
    },
    {
      "anonymous": false,
      "inputs": [
        {
          "indexed": false,
          "internalType": "string",
          "name": "value",
          "type": "string"
        },
        {
          "indexed": true,
          "internalType": "uint256",
          "name": "id",
          "type": "uint256"
        }
      ],
      "name": "URI",
      "type": "event"
    },
    {
      "anonymous": false,
      "inputs": [
        {
          "indexed": false,
          "internalType": "address",
          "name": "account",
          "type": "address"
        }
      ],
      "name": "Unpaused",
      "type": "event"
    },
    {
      "anonymous": false,
      "inputs": [
        {
          "indexed": true,
          "internalType": "address",
          "name": "implementation",
          "type": "address"
        }
      ],
      "name": "Upgraded",
      "type": "event"
    },
    {
      "stateMutability": "payable",
      "type": "fallback"
    },
    {
      "inputs": [],
      "name": "DEFAULT_ADMIN_ROLE",
      "outputs": [
        {
          "internalType": "bytes32",
          "name": "",
          "type": "bytes32"
        }
      ],
      "stateMutability": "view",
      "type": "function"
    },
    {
      "inputs": [
        {
          "internalType": "uint256",
          "name": "editionId",
          "type": "uint256"
        }
      ],
      "name": "approveEdition",
      "outputs": [],
      "stateMutability": "nonpayable",
      "type": "function"
    },
    {
      "inputs": [
        {
          "internalType": "address",
          "name": "account",
          "type": "address"
        },
        {
          "internalType": "uint256",
          "name": "id",
          "type": "uint256"
        }
      ],
      "name": "balanceOf",
      "outputs": [
        {
          "internalType": "uint256",
          "name": "",
          "type": "uint256"
        }
      ],
      "stateMutability": "view",
      "type": "function"
    },
    {
      "inputs": [
        {
          "internalType": "address[]",
          "name": "accounts",
          "type": "address[]"
        },
        {
          "internalType": "uint256[]",
          "name": "ids",
          "type": "uint256[]"
        }
      ],
      "name": "balanceOfBatch",
      "outputs": [
        {
          "internalType": "uint256[]",
          "name": "",
          "type": "uint256[]"
        }
      ],
      "stateMutability": "view",
      "type": "function"
    },
    {
      "inputs": [
        {
          "internalType": "address",
          "name": "account",
          "type": "address"
        },
        {
          "internalType": "uint256",
          "name": "id",
          "type": "uint256"
        },
        {
          "internalType": "uint256",
          "name": "value",
          "type": "uint256"
        }
      ],
      "name": "burn",
      "outputs": [],
      "stateMutability": "nonpayable",
      "type": "function"
    },
    {
      "inputs": [
        {
          "internalType": "address",
          "name": "account",
          "type": "address"
        },
        {
          "internalType": "uint256[]",
          "name": "ids",
          "type": "uint256[]"
        },
        {
          "internalType": "uint256[]",
          "name": "values",
          "type": "uint256[]"
        }
      ],
      "name": "burnBatch",
      "outputs": [],
      "stateMutability": "nonpayable",
      "type": "function"
    },
    {
      "inputs": [
        {
          "internalType": "uint256",
          "name": "fee",
          "type": "uint256"
        },
        {
          "internalType": "address",
          "name": "owner",
          "type": "address"
        },
        {
          "internalType": "address",
          "name": "payer",
          "type": "address"
        },
        {
          "internalType": "string",
          "name": "id",
          "type": "string"
        }
      ],
      "name": "createEdition",
      "outputs": [
        {
          "internalType": "uint256",
          "name": "editionId",
          "type": "uint256"
        }
      ],
      "stateMutability": "nonpayable",
      "type": "function"
    },
    {
      "inputs": [],
      "name": "editionCounter",
      "outputs": [
        {
          "internalType": "uint256",
          "name": "",
          "type": "uint256"
        }
      ],
      "stateMutability": "view",
      "type": "function"
    },
    {
      "inputs": [
        {
          "internalType": "uint256",
          "name": "",
          "type": "uint256"
        }
      ],
      "name": "editions",
      "outputs": [
        {
          "internalType": "enum EditionsStructs.EditionStatus",
          "name": "status",
          "type": "uint8"
        },
        {
          "internalType": "uint256",
          "name": "fee",
          "type": "uint256"
        },
        {
          "internalType": "uint256",
          "name": "balance",
          "type": "uint256"
        },
        {
          "internalType": "address",
          "name": "owner",
          "type": "address"
        },
        {
          "internalType": "string",
          "name": "id",
          "type": "string"
        }
      ],
      "stateMutability": "view",
      "type": "function"
    },
    {
      "inputs": [
        {
          "internalType": "uint256",
          "name": "id",
          "type": "uint256"
        }
      ],
      "name": "exists",
      "outputs": [
        {
          "internalType": "bool",
          "name": "",
          "type": "bool"
        }
      ],
      "stateMutability": "view",
      "type": "function"
    },
    {
      "inputs": [],
      "name": "getEditions",
      "outputs": [
        {
          "components": [
            {
              "internalType": "enum EditionsStructs.EditionStatus",
              "name": "status",
              "type": "uint8"
            },
            {
              "internalType": "uint256",
              "name": "fee",
              "type": "uint256"
            },
            {
              "internalType": "uint256",
              "name": "balance",
              "type": "uint256"
            },
            {
              "internalType": "address",
              "name": "owner",
              "type": "address"
            },
            {
              "internalType": "string",
              "name": "id",
              "type": "string"
            }
          ],
          "internalType": "struct EditionsStructs.Edition[]",
          "name": "",
          "type": "tuple[]"
        }
      ],
      "stateMutability": "view",
      "type": "function"
    },
    {
      "inputs": [
        {
          "internalType": "bytes32",
          "name": "role",
          "type": "bytes32"
        }
      ],
      "name": "getRoleAdmin",
      "outputs": [
        {
          "internalType": "bytes32",
          "name": "",
          "type": "bytes32"
        }
      ],
      "stateMutability": "view",
      "type": "function"
    },
    {
      "inputs": [
        {
          "internalType": "bytes32",
          "name": "role",
          "type": "bytes32"
        },
        {
          "internalType": "address",
          "name": "account",
          "type": "address"
        }
      ],
      "name": "grantRole",
      "outputs": [],
      "stateMutability": "nonpayable",
      "type": "function"
    },
    {
      "inputs": [
        {
          "internalType": "bytes32",
          "name": "role",
          "type": "bytes32"
        },
        {
          "internalType": "address",
          "name": "account",
          "type": "address"
        }
      ],
      "name": "hasRole",
      "outputs": [
        {
          "internalType": "bool",
          "name": "",
          "type": "bool"
        }
      ],
      "stateMutability": "view",
      "type": "function"
    },
    {
      "inputs": [],
      "name": "initialize",
      "outputs": [],
      "stateMutability": "nonpayable",
      "type": "function"
    },
    {
      "inputs": [
        {
          "internalType": "address",
          "name": "account",
          "type": "address"
        },
        {
          "internalType": "address",
          "name": "operator",
          "type": "address"
        }
      ],
      "name": "isApprovedForAll",
      "outputs": [
        {
          "internalType": "bool",
          "name": "",
          "type": "bool"
        }
      ],
      "stateMutability": "view",
      "type": "function"
    },
    {
      "inputs": [
        {
          "internalType": "uint256",
          "name": "editionId",
          "type": "uint256"
        },
        {
          "internalType": "uint256",
          "name": "amount",
          "type": "uint256"
        },
        {
          "internalType": "address",
          "name": "buyer",
          "type": "address"
        },
        {
          "internalType": "bytes",
          "name": "data",
          "type": "bytes"
        }
      ],
      "name": "mintEdition",
      "outputs": [],
      "stateMutability": "payable",
      "type": "function"
    },
    {
      "inputs": [],
      "name": "pause",
      "outputs": [],
      "stateMutability": "nonpayable",
      "type": "function"
    },
    {
      "inputs": [],
      "name": "paused",
      "outputs": [
        {
          "internalType": "bool",
          "name": "",
          "type": "bool"
        }
      ],
      "stateMutability": "view",
      "type": "function"
    },
    {
      "inputs": [],
      "name": "protocolFee",
      "outputs": [
        {
          "internalType": "uint256",
          "name": "",
          "type": "uint256"
        }
      ],
      "stateMutability": "view",
      "type": "function"
    },
    {
      "inputs": [],
      "name": "proxiableUUID",
      "outputs": [
        {
          "internalType": "bytes32",
          "name": "",
          "type": "bytes32"
        }
      ],
      "stateMutability": "view",
      "type": "function"
    },
    {
      "inputs": [
        {
          "internalType": "bytes32",
          "name": "role",
          "type": "bytes32"
        },
        {
          "internalType": "address",
          "name": "account",
          "type": "address"
        }
      ],
      "name": "renounceRole",
      "outputs": [],
      "stateMutability": "nonpayable",
      "type": "function"
    },
    {
      "inputs": [
        {
          "internalType": "uint256",
          "name": "editionId",
          "type": "uint256"
        }
      ],
      "name": "resumeEdition",
      "outputs": [],
      "stateMutability": "nonpayable",
      "type": "function"
    },
    {
      "inputs": [
        {
          "internalType": "bytes32",
          "name": "role",
          "type": "bytes32"
        },
        {
          "internalType": "address",
          "name": "account",
          "type": "address"
        }
      ],
      "name": "revokeRole",
      "outputs": [],
      "stateMutability": "nonpayable",
      "type": "function"
    },
    {
      "inputs": [
        {
          "internalType": "address",
          "name": "from",
          "type": "address"
        },
        {
          "internalType": "address",
          "name": "to",
          "type": "address"
        },
        {
          "internalType": "uint256[]",
          "name": "ids",
          "type": "uint256[]"
        },
        {
          "internalType": "uint256[]",
          "name": "amounts",
          "type": "uint256[]"
        },
        {
          "internalType": "bytes",
          "name": "data",
          "type": "bytes"
        }
      ],
      "name": "safeBatchTransferFrom",
      "outputs": [],
      "stateMutability": "nonpayable",
      "type": "function"
    },
    {
      "inputs": [
        {
          "internalType": "address",
          "name": "from",
          "type": "address"
        },
        {
          "internalType": "address",
          "name": "to",
          "type": "address"
        },
        {
          "internalType": "uint256",
          "name": "id",
          "type": "uint256"
        },
        {
          "internalType": "uint256",
          "name": "amount",
          "type": "uint256"
        },
        {
          "internalType": "bytes",
          "name": "data",
          "type": "bytes"
        }
      ],
      "name": "safeTransferFrom",
      "outputs": [],
      "stateMutability": "nonpayable",
      "type": "function"
    },
    {
      "inputs": [
        {
          "internalType": "address",
          "name": "operator",
          "type": "address"
        },
        {
          "internalType": "bool",
          "name": "approved",
          "type": "bool"
        }
      ],
      "name": "setApprovalForAll",
      "outputs": [],
      "stateMutability": "nonpayable",
      "type": "function"
    },
    {
      "inputs": [
        {
          "internalType": "uint256",
          "name": "_protocolFee",
          "type": "uint256"
        }
      ],
      "name": "setProtocolFee",
      "outputs": [],
      "stateMutability": "nonpayable",
      "type": "function"
    },
    {
      "inputs": [
        {
          "internalType": "string",
          "name": "newuri",
          "type": "string"
        }
      ],
      "name": "setURI",
      "outputs": [],
      "stateMutability": "nonpayable",
      "type": "function"
    },
    {
      "inputs": [
        {
          "internalType": "uint256",
          "name": "editionId",
          "type": "uint256"
        }
      ],
      "name": "stopEdition",
      "outputs": [],
      "stateMutability": "nonpayable",
      "type": "function"
    },
    {
      "inputs": [
        {
          "internalType": "bytes4",
          "name": "interfaceId",
          "type": "bytes4"
        }
      ],
      "name": "supportsInterface",
      "outputs": [
        {
          "internalType": "bool",
          "name": "",
          "type": "bool"
        }
      ],
      "stateMutability": "view",
      "type": "function"
    },
    {
      "inputs": [
        {
          "internalType": "uint256",
          "name": "id",
          "type": "uint256"
        }
      ],
      "name": "totalSupply",
      "outputs": [
        {
          "internalType": "uint256",
          "name": "",
          "type": "uint256"
        }
      ],
      "stateMutability": "view",
      "type": "function"
    },
    {
      "inputs": [],
      "name": "unpause",
      "outputs": [],
      "stateMutability": "nonpayable",
      "type": "function"
    },
    {
      "inputs": [
        {
          "internalType": "address",
          "name": "newImplementation",
          "type": "address"
        }
      ],
      "name": "upgradeTo",
      "outputs": [],
      "stateMutability": "nonpayable",
      "type": "function"
    },
    {
      "inputs": [
        {
          "internalType": "address",
          "name": "newImplementation",
          "type": "address"
        },
        {
          "internalType": "bytes",
          "name": "data",
          "type": "bytes"
        }
      ],
      "name": "upgradeToAndCall",
      "outputs": [],
      "stateMutability": "payable",
      "type": "function"
    },
    {
      "inputs": [
        {
          "internalType": "uint256",
          "name": "",
          "type": "uint256"
        }
      ],
      "name": "uri",
      "outputs": [
        {
          "internalType": "string",
          "name": "",
          "type": "string"
        }
      ],
      "stateMutability": "view",
      "type": "function"
    },
    {
      "inputs": [
        {
          "internalType": "uint256",
          "name": "editionId",
          "type": "uint256"
        },
        {
          "internalType": "uint256",
          "name": "amount",
          "type": "uint256"
        }
      ],
      "name": "withdrawEditionBalance",
      "outputs": [],
      "stateMutability": "nonpayable",
      "type": "function"
    },
    {
      "inputs": [
        {
          "internalType": "uint256",
          "name": "amount",
          "type": "uint256"
        }
      ],
      "name": "withdrawFunds",
      "outputs": [],
      "stateMutability": "nonpayable",
      "type": "function"
    },
    {
      "stateMutability": "payable",
      "type": "receive"
    }
  ],
  "bytecode": "0x60a0604052306080523480156200001557600080fd5b506200002062000026565b620000e7565b600054610100900460ff1615620000935760405162461bcd60e51b815260206004820152602760248201527f496e697469616c697a61626c653a20636f6e747261637420697320696e697469604482015266616c697a696e6760c81b606482015260840160405180910390fd5b60005460ff90811614620000e5576000805460ff191660ff9081179091556040519081527f7f26b83ff96e1f2b6a682f133852f6798a09c465da95921460cefb38474024989060200160405180910390a15b565b608051613d3c6200011f60003960008181610b7d01528181610bbd01528181610db701528181610df70152610e860152613d3c6000f3fe6080604052600436106102105760003560e01c80637357628c11610117578063b0e21e8a116100a5578063df6efc6c1161006c578063df6efc6c1461064a578063e985e9c51461066c578063f242432a146106b5578063f5298aca146106d5578063fc74efa2146106f557005b8063b0e21e8a146105ae578063bd85b039146105c5578063c6fbb712146105f3578063d547741f1461060a578063d667c9ce1461062a57005b806391d14854116100e957806391d148541461052657806391fc02f114610546578063940123da14610566578063a217fddf14610579578063a22cb4651461058e57005b80637357628c146104bc578063787dce3d146104dc5780638129fc1c146104fc5780638456cb591461051157005b80632f2ff15d1161019f5780634f1ef286116101665780634f1ef2861461042c5780634f558e791461043f57806352d1902d1461046f5780635c975abb146104845780636b20c4541461049c57005b80632f2ff15d1461038a57806336568abe146103aa5780633659cfe6146103ca5780633f4ba83a146103ea5780634e1273f4146103ff57005b80630e89341c116101e35780630e89341c146102bc578063155dd5ee146102e9578063248a9ca314610309578063279c806e146103395780632eb2c2d61461036a57005b8062fdd58e1461021957806301ffc9a71461024c57806302fe53051461027c5780630a579eca1461029c57005b3661021757005b005b34801561022557600080fd5b50610239610234366004612dfd565b610715565b6040519081526020015b60405180910390f35b34801561025857600080fd5b5061026c610267366004612e3d565b6107b0565b6040519015158152602001610243565b34801561028857600080fd5b50610217610297366004612f0f565b6107bb565b3480156102a857600080fd5b506102176102b7366004612f43565b6107f2565b3480156102c857600080fd5b506102dc6102d7366004612f43565b6108c3565b6040516102439190612fac565b3480156102f557600080fd5b50610217610304366004612f43565b610957565b34801561031557600080fd5b50610239610324366004612f43565b60009081526097602052604090206001015490565b34801561034557600080fd5b50610359610354366004612f43565b6109d0565b604051610243959493929190612ff7565b34801561037657600080fd5b506102176103853660046130d0565b610a98565b34801561039657600080fd5b506102176103a5366004613179565b610ae4565b3480156103b657600080fd5b506102176103c5366004613179565b610af9565b3480156103d657600080fd5b506102176103e53660046131a5565b610b73565b3480156103f657600080fd5b50610217610c52565b34801561040b57600080fd5b5061041f61041a3660046131c0565b610c84565b60405161024391906132c5565b61021761043a3660046132d8565b610dad565b34801561044b57600080fd5b5061026c61045a366004612f43565b600090815261012d6020526040902054151590565b34801561047b57600080fd5b50610239610e79565b34801561049057600080fd5b5060c95460ff1661026c565b3480156104a857600080fd5b506102176104b736600461331b565b610f2d565b3480156104c857600080fd5b506102176104d7366004612f43565b610f70565b3480156104e857600080fd5b506102176104f7366004612f43565b611011565b34801561050857600080fd5b50610217611023565b34801561051d57600080fd5b506102176111ee565b34801561053257600080fd5b5061026c610541366004613179565b611220565b34801561055257600080fd5b5061023961056136600461338e565b61124b565b6102176105743660046133f5565b611393565b34801561058557600080fd5b50610239600081565b34801561059a57600080fd5b506102176105a9366004613422565b61145c565b3480156105ba57600080fd5b506102396101c35481565b3480156105d157600080fd5b506102396105e0366004612f43565b600090815261012d602052604090205490565b3480156105ff57600080fd5b506102396101c55481565b34801561061657600080fd5b50610217610625366004613179565b611467565b34801561063657600080fd5b5061021761064536600461345e565b61148c565b34801561065657600080fd5b5061065f6115ce565b6040516102439190613480565b34801561067857600080fd5b5061026c610687366004613524565b6001600160a01b03918216600090815260666020908152604080832093909416825291909152205460ff1690565b3480156106c157600080fd5b506102176106d036600461354e565b6117a4565b3480156106e157600080fd5b506102176106f03660046135b2565b6117e9565b34801561070157600080fd5b50610217610710366004612f43565b61182c565b60006001600160a01b0383166107855760405162461bcd60e51b815260206004820152602a60248201527f455243313135353a2061646472657373207a65726f206973206e6f742061207660448201526930b634b21037bbb732b960b11b60648201526084015b60405180910390fd5b5060008181526065602090815260408083206001600160a01b03861684529091529020545b92915050565b60006107aa826118f6565b7f7804d923f43a17d325d77e781528e0793b2edd9890ab45fc64efd7b4b427744c6107e58161191b565b6107ee82611925565b5050565b60008181526101c460205260409020600301546001600160a01b0316331461082d5760405163388f811f60e01b815260040160405180910390fd5b600260008281526101c4602052604090205460ff16600381111561085357610853612fbf565b1461087157604051631f0fb6fd60e11b815260040160405180910390fd5b60008181526101c46020908152604091829020805460ff1916600317905590518281527f591913f977ab242c5871f116f36be231ff67df5e8e0bac1efd91fa8a723aca2b91015b60405180910390a150565b6060606780546108d2906135e5565b80601f01602080910402602001604051908101604052809291908181526020018280546108fe906135e5565b801561094b5780601f106109205761010080835404028352916020019161094b565b820191906000526020600020905b81548152906001019060200180831161092e57829003601f168201915b50505050509050919050565b60006109628161191b565b604051600090339084908381818185875af1925050503d80600081146109a4576040519150601f19603f3d011682016040523d82523d6000602084013e6109a9565b606091505b50509050806109cb576040516317f2c34560e31b815260040160405180910390fd5b505050565b6101c4602052600090815260409020805460018201546002830154600384015460048501805460ff90951695939492936001600160a01b0390921692610a15906135e5565b80601f0160208091040260200160405190810160405280929190818152602001828054610a41906135e5565b8015610a8e5780601f10610a6357610100808354040283529160200191610a8e565b820191906000526020600020905b815481529060010190602001808311610a7157829003601f168201915b5050505050905085565b6001600160a01b038516331480610ab45750610ab48533610687565b610ad05760405162461bcd60e51b815260040161077c90613619565b610add8585858585611931565b5050505050565b6000610aef8161191b565b6109cb8383611ade565b6001600160a01b0381163314610b695760405162461bcd60e51b815260206004820152602f60248201527f416363657373436f6e74726f6c3a2063616e206f6e6c792072656e6f756e636560448201526e103937b632b9903337b91039b2b63360891b606482015260840161077c565b6107ee8282611b64565b6001600160a01b037f0000000000000000000000000000000000000000000000000000000000000000163003610bbb5760405162461bcd60e51b815260040161077c90613667565b7f00000000000000000000000000000000000000000000000000000000000000006001600160a01b0316610c04600080516020613cc0833981519152546001600160a01b031690565b6001600160a01b031614610c2a5760405162461bcd60e51b815260040161077c906136b3565b610c3381611bcb565b60408051600080825260208201909252610c4f91839190611bf5565b50565b7f65d7a28e3265b37a6474929f336521b332c1681b933f6cb9f3376673440d862a610c7c8161191b565b610c4f611d60565b60608151835114610ce95760405162461bcd60e51b815260206004820152602960248201527f455243313135353a206163636f756e747320616e6420696473206c656e677468604482015268040dad2e6dac2e8c6d60bb1b606482015260840161077c565b600083516001600160401b03811115610d0457610d04612e5a565b604051908082528060200260200182016040528015610d2d578160200160208202803683370190505b50905060005b8451811015610da557610d78858281518110610d5157610d516136ff565b6020026020010151858381518110610d6b57610d6b6136ff565b6020026020010151610715565b828281518110610d8a57610d8a6136ff565b6020908102919091010152610d9e8161372b565b9050610d33565b509392505050565b6001600160a01b037f0000000000000000000000000000000000000000000000000000000000000000163003610df55760405162461bcd60e51b815260040161077c90613667565b7f00000000000000000000000000000000000000000000000000000000000000006001600160a01b0316610e3e600080516020613cc0833981519152546001600160a01b031690565b6001600160a01b031614610e645760405162461bcd60e51b815260040161077c906136b3565b610e6d82611bcb565b6107ee82826001611bf5565b6000306001600160a01b037f00000000000000000000000000000000000000000000000000000000000000001614610f195760405162461bcd60e51b815260206004820152603860248201527f555550535570677261646561626c653a206d757374206e6f742062652063616c60448201527f6c6564207468726f7567682064656c656761746563616c6c0000000000000000606482015260840161077c565b50600080516020613cc08339815191525b90565b6001600160a01b038316331480610f495750610f498333610687565b610f655760405162461bcd60e51b815260040161077c90613619565b6109cb838383611db2565b6000610f7b8161191b565b600160008381526101c4602052604090205460ff166003811115610fa157610fa1612fbf565b14610fbf5760405163137c9c1f60e31b815260040160405180910390fd5b60008281526101c46020908152604091829020805460ff1916600217905590518381527f8f4352ac8b4aefdd2333162306bbe09dd4f4ff6661e89ccc4e4dcced8794e8f7910160405180910390a15050565b600061101c8161191b565b506101c355565b600054610100900460ff16158080156110435750600054600160ff909116105b8061105d5750303b15801561105d575060005460ff166001145b6110c05760405162461bcd60e51b815260206004820152602e60248201527f496e697469616c697a61626c653a20636f6e747261637420697320616c72656160448201526d191e481a5b9a5d1a585b1a5e995960921b606482015260840161077c565b6000805460ff1916600117905580156110e3576000805461ff0019166101001790555b6110fb60405180602001604052806000815250611f53565b611103611f83565b61110b611fac565b611113611f83565b61111b611f83565b611123611f83565b61112e600033611ade565b6111587f7804d923f43a17d325d77e781528e0793b2edd9890ab45fc64efd7b4b427744c33611ade565b6111827f65d7a28e3265b37a6474929f336521b332c1681b933f6cb9f3376673440d862a33611ade565b6111ac7f189ab7a9244df0848122154315af71fe140f3db0fe014031783b0946b8c9d2e333611ade565b8015610c4f576000805461ff0019169055604051600181527f7f26b83ff96e1f2b6a682f133852f6798a09c465da95921460cefb3847402498906020016108b8565b7f65d7a28e3265b37a6474929f336521b332c1681b933f6cb9f3376673440d862a6112188161191b565b610c4f611fdb565b60009182526097602090815260408084206001600160a01b0393909316845291905290205460ff1690565b60006101c35485111561127157604051636a61a41960e11b815260040160405180910390fd5b506101c5546040805160a0810190915280600181526020808201889052600060408084018290526001600160a01b038916606085015260809093018690528481526101c49091522081518154829060ff191660018360038111156112d7576112d7612fbf565b0217905550602082015160018201556040820151600282015560608201516003820180546001600160a01b0319166001600160a01b039092169190911790556080820151600482019061132a908261378a565b50506101c580549150600061133e8361372b565b909155505060408051828152602081018790526001600160a01b0386168183015290517f7fe7f72f14a53255f3c9e225ab1d40fdb21335b87a7912726a196fb816866ae09181900360600190a1949350505050565b600260008581526101c4602052604090205460ff1660038111156113b9576113b9612fbf565b146113d757604051631f0fb6fd60e11b815260040160405180910390fd5b60008481526101c460205260409020600101546113f5908490613849565b34101561141557604051631036b5ad60e31b815260040160405180910390fd5b61142182858584612018565b6101c35461142f9034613860565b60008581526101c4602052604081206002018054909190611451908490613873565b909155505050505050565b6107ee33838361213d565b6000828152609760205260409020600101546114828161191b565b6109cb8383611b64565b60008281526101c460205260409020600301546001600160a01b031633146114c75760405163388f811f60e01b815260040160405180910390fd5b60008281526101c460205260409020600201548111156114fa57604051637eafab7d60e01b815260040160405180910390fd5b604051600090339083908381818185875af1925050503d806000811461153c576040519150601f19603f3d011682016040523d82523d6000602084013e611541565b606091505b5050905080611563576040516317f2c34560e31b815260040160405180910390fd5b60008381526101c4602052604081206002018054849290611585908490613860565b90915550506040805184815260208101849052338183015290517ff1090e9d5138cd4909542e10e1da576730b07eb291a71a151e63160dde345b949181900360600190a1505050565b606060006101c5546001600160401b038111156115ed576115ed612e5a565b60405190808252806020026020018201604052801561165a57816020015b6116476040805160a081019091528060008152602001600081526020016000815260200160006001600160a01b03168152602001606081525090565b81526020019060019003908161160b5790505b50905060005b6101c55481101561179e5760008181526101c4602052604090819020815160a081019092528054829060ff16600381111561169d5761169d612fbf565b60038111156116ae576116ae612fbf565b8152600182015460208201526002820154604082015260038201546001600160a01b031660608201526004820180546080909201916116ec906135e5565b80601f0160208091040260200160405190810160405280929190818152602001828054611718906135e5565b80156117655780601f1061173a57610100808354040283529160200191611765565b820191906000526020600020905b81548152906001019060200180831161174857829003601f168201915b505050505081525050828281518110611780576117806136ff565b602002602001018190525080806117969061372b565b915050611660565b50919050565b6001600160a01b0385163314806117c057506117c08533610687565b6117dc5760405162461bcd60e51b815260040161077c90613619565b610add858585858561221d565b6001600160a01b03831633148061180557506118058333610687565b6118215760405162461bcd60e51b815260040161077c90613619565b6109cb838383612359565b60008181526101c460205260409020600301546001600160a01b031633146118675760405163388f811f60e01b815260040160405180910390fd5b600360008281526101c4602052604090205460ff16600381111561188d5761188d612fbf565b146118ab5760405163968807a560e01b815260040160405180910390fd5b60008181526101c46020908152604091829020805460ff1916600217905590518281527f63bb17c9645a29322601b4fe88d8f3fa84f32229368294f903084be8f5d813ba91016108b8565b60006001600160e01b03198216637965db0b60e01b14806107aa57506107aa82612475565b610c4f81336124c5565b60676107ee828261378a565b81518351146119525760405162461bcd60e51b815260040161077c90613886565b6001600160a01b0384166119785760405162461bcd60e51b815260040161077c906138ce565b3361198781878787878761251e565b60005b8451811015611a705760008582815181106119a7576119a76136ff565b6020026020010151905060008583815181106119c5576119c56136ff565b60209081029190910181015160008481526065835260408082206001600160a01b038e168352909352919091205490915081811015611a165760405162461bcd60e51b815260040161077c90613913565b60008381526065602090815260408083206001600160a01b038e8116855292528083208585039055908b16825281208054849290611a55908490613873565b9250508190555050505080611a699061372b565b905061198a565b50846001600160a01b0316866001600160a01b0316826001600160a01b03167f4a39dc06d4c0dbc64b70af90fd698a233a518aa5d07e595d983b8c0526c8f7fb8787604051611ac092919061395d565b60405180910390a4611ad6818787878787612534565b505050505050565b611ae88282611220565b6107ee5760008281526097602090815260408083206001600160a01b03851684529091529020805460ff19166001179055611b203390565b6001600160a01b0316816001600160a01b0316837f2f8788117e7eff1d82e926ec794901d17c78024a50270940304540a733656f0d60405160405180910390a45050565b611b6e8282611220565b156107ee5760008281526097602090815260408083206001600160a01b0385168085529252808320805460ff1916905551339285917ff6391f5c32d9c69d2a47ea670b442974b53935d1edc7fd64eb21e047a839171b9190a45050565b7f189ab7a9244df0848122154315af71fe140f3db0fe014031783b0946b8c9d2e36107ee8161191b565b7f4910fdfa16fed3260ed0e7147f7cc6da11a60208b5b9406d12a635614ffd91435460ff1615611c28576109cb8361268f565b826001600160a01b03166352d1902d6040518163ffffffff1660e01b8152600401602060405180830381865afa925050508015611c82575060408051601f3d908101601f19168201909252611c7f9181019061398b565b60015b611ce55760405162461bcd60e51b815260206004820152602e60248201527f45524331393637557067726164653a206e657720696d706c656d656e7461746960448201526d6f6e206973206e6f74205555505360901b606482015260840161077c565b600080516020613cc08339815191528114611d545760405162461bcd60e51b815260206004820152602960248201527f45524331393637557067726164653a20756e737570706f727465642070726f786044820152681a58589b195555525160ba1b606482015260840161077c565b506109cb83838361272b565b611d68612750565b60c9805460ff191690557f5db9ee0a495bf2e6ff9c91a7834c1ba4fdd244a5e8aa4e537bd38aeae4b073aa335b6040516001600160a01b03909116815260200160405180910390a1565b6001600160a01b038316611dd85760405162461bcd60e51b815260040161077c906139a4565b8051825114611df95760405162461bcd60e51b815260040161077c90613886565b6000339050611e1c8185600086866040518060200160405280600081525061251e565b60005b8351811015611ee4576000848281518110611e3c57611e3c6136ff565b602002602001015190506000848381518110611e5a57611e5a6136ff565b60209081029190910181015160008481526065835260408082206001600160a01b038c168352909352919091205490915081811015611eab5760405162461bcd60e51b815260040161077c906139e7565b60009283526065602090815260408085206001600160a01b038b1686529091529092209103905580611edc8161372b565b915050611e1f565b5060006001600160a01b0316846001600160a01b0316826001600160a01b03167f4a39dc06d4c0dbc64b70af90fd698a233a518aa5d07e595d983b8c0526c8f7fb8686604051611f3592919061395d565b60405180910390a46040805160208101909152600090525b50505050565b600054610100900460ff16611f7a5760405162461bcd60e51b815260040161077c90613a2b565b610c4f81612799565b600054610100900460ff16611faa5760405162461bcd60e51b815260040161077c90613a2b565b565b600054610100900460ff16611fd35760405162461bcd60e51b815260040161077c90613a2b565b611faa6127c9565b611fe36127fc565b60c9805460ff191660011790557f62e78cea01bee320cd4e420270b5ea74000d11b0c9f74754ebdbfc544b05a258611d953390565b6001600160a01b0384166120785760405162461bcd60e51b815260206004820152602160248201527f455243313135353a206d696e7420746f20746865207a65726f206164647265736044820152607360f81b606482015260840161077c565b33600061208485612842565b9050600061209185612842565b90506120a28360008985858961251e565b60008681526065602090815260408083206001600160a01b038b168452909152812080548792906120d4908490613873565b909155505060408051878152602081018790526001600160a01b03808a1692600092918716917fc3d58168c5ae7397731d063d5bbf3d657854427343f4c083240f7aacaa2d0f62910160405180910390a46121348360008989898961288d565b50505050505050565b816001600160a01b0316836001600160a01b0316036121b05760405162461bcd60e51b815260206004820152602960248201527f455243313135353a2073657474696e6720617070726f76616c20737461747573604482015268103337b91039b2b63360b91b606482015260840161077c565b6001600160a01b03838116600081815260666020908152604080832094871680845294825291829020805460ff191686151590811790915591519182527f17307eab39ab6107e8899845ad3d59bd9653f200f220920489ca2b5937696c31910160405180910390a3505050565b6001600160a01b0384166122435760405162461bcd60e51b815260040161077c906138ce565b33600061224f85612842565b9050600061225c85612842565b905061226c83898985858961251e565b60008681526065602090815260408083206001600160a01b038c168452909152902054858110156122af5760405162461bcd60e51b815260040161077c90613913565b60008781526065602090815260408083206001600160a01b038d8116855292528083208985039055908a168252812080548892906122ee908490613873565b909155505060408051888152602081018890526001600160a01b03808b16928c821692918816917fc3d58168c5ae7397731d063d5bbf3d657854427343f4c083240f7aacaa2d0f62910160405180910390a461234e848a8a8a8a8a61288d565b505050505050505050565b6001600160a01b03831661237f5760405162461bcd60e51b815260040161077c906139a4565b33600061238b84612842565b9050600061239884612842565b90506123b88387600085856040518060200160405280600081525061251e565b60008581526065602090815260408083206001600160a01b038a168452909152902054848110156123fb5760405162461bcd60e51b815260040161077c906139e7565b60008681526065602090815260408083206001600160a01b038b81168086529184528285208a8703905582518b81529384018a90529092908816917fc3d58168c5ae7397731d063d5bbf3d657854427343f4c083240f7aacaa2d0f62910160405180910390a4604080516020810190915260009052612134565b60006001600160e01b03198216636cdb3d1360e11b14806124a657506001600160e01b031982166303a24d0760e21b145b806107aa57506301ffc9a760e01b6001600160e01b03198316146107aa565b6124cf8282611220565b6107ee576124dc81612948565b6124e783602061295a565b6040516020016124f8929190613a76565b60408051601f198184030181529082905262461bcd60e51b825261077c91600401612fac565b6125266127fc565b611ad6868686868686612afc565b6001600160a01b0384163b15611ad65760405163bc197c8160e01b81526001600160a01b0385169063bc197c81906125789089908990889088908890600401613aeb565b6020604051808303816000875af19250505080156125b3575060408051601f3d908101601f191682019092526125b091810190613b49565b60015b61265f576125bf613b66565b806308c379a0036125f857506125d3613b81565b806125de57506125fa565b8060405162461bcd60e51b815260040161077c9190612fac565b505b60405162461bcd60e51b815260206004820152603460248201527f455243313135353a207472616e7366657220746f206e6f6e2d455243313135356044820152732932b1b2b4bb32b91034b6b83632b6b2b73a32b960611b606482015260840161077c565b6001600160e01b0319811663bc197c8160e01b146121345760405162461bcd60e51b815260040161077c90613c0a565b6001600160a01b0381163b6126fc5760405162461bcd60e51b815260206004820152602d60248201527f455243313936373a206e657720696d706c656d656e746174696f6e206973206e60448201526c1bdd08184818dbdb9d1c9858dd609a1b606482015260840161077c565b600080516020613cc083398151915280546001600160a01b0319166001600160a01b0392909216919091179055565b61273483612c78565b6000825111806127415750805b156109cb57611f4d8383612cb8565b60c95460ff16611faa5760405162461bcd60e51b815260206004820152601460248201527314185d5cd8589b194e881b9bdd081c185d5cd95960621b604482015260640161077c565b600054610100900460ff166127c05760405162461bcd60e51b815260040161077c90613a2b565b610c4f81611925565b600054610100900460ff166127f05760405162461bcd60e51b815260040161077c90613a2b565b60c9805460ff19169055565b60c95460ff1615611faa5760405162461bcd60e51b815260206004820152601060248201526f14185d5cd8589b194e881c185d5cd95960821b604482015260640161077c565b6040805160018082528183019092526060916000919060208083019080368337019050509050828160008151811061287c5761287c6136ff565b602090810291909101015292915050565b6001600160a01b0384163b15611ad65760405163f23a6e6160e01b81526001600160a01b0385169063f23a6e61906128d19089908990889088908890600401613c52565b6020604051808303816000875af192505050801561290c575060408051601f3d908101601f1916820190925261290991810190613b49565b60015b612918576125bf613b66565b6001600160e01b0319811663f23a6e6160e01b146121345760405162461bcd60e51b815260040161077c90613c0a565b60606107aa6001600160a01b03831660145b60606000612969836002613849565b612974906002613873565b6001600160401b0381111561298b5761298b612e5a565b6040519080825280601f01601f1916602001820160405280156129b5576020820181803683370190505b509050600360fc1b816000815181106129d0576129d06136ff565b60200101906001600160f81b031916908160001a905350600f60fb1b816001815181106129ff576129ff6136ff565b60200101906001600160f81b031916908160001a9053506000612a23846002613849565b612a2e906001613873565b90505b6001811115612aa6576f181899199a1a9b1b9c1cb0b131b232b360811b85600f1660108110612a6257612a626136ff565b1a60f81b828281518110612a7857612a786136ff565b60200101906001600160f81b031916908160001a90535060049490941c93612a9f81613c8c565b9050612a31565b508315612af55760405162461bcd60e51b815260206004820181905260248201527f537472696e67733a20686578206c656e67746820696e73756666696369656e74604482015260640161077c565b9392505050565b6001600160a01b038516612b845760005b8351811015612b8257828181518110612b2857612b286136ff565b602002602001015161012d6000868481518110612b4757612b476136ff565b602002602001015181526020019081526020016000206000828254612b6c9190613873565b90915550612b7b90508161372b565b9050612b0d565b505b6001600160a01b038416611ad65760005b8351811015612134576000848281518110612bb257612bb26136ff565b602002602001015190506000848381518110612bd057612bd06136ff565b60200260200101519050600061012d600084815260200190815260200160002054905081811015612c545760405162461bcd60e51b815260206004820152602860248201527f455243313135353a206275726e20616d6f756e74206578636565647320746f74604482015267616c537570706c7960c01b606482015260840161077c565b600092835261012d602052604090922091039055612c718161372b565b9050612b95565b612c818161268f565b6040516001600160a01b038216907fbc7cd75a20ee27fd9adebab32041f755214dbc6bffa90cc0225b39da2e5c2d3b90600090a250565b6060612af58383604051806060016040528060278152602001613ce0602791396060600080856001600160a01b031685604051612cf59190613ca3565b600060405180830381855af49150503d8060008114612d30576040519150601f19603f3d011682016040523d82523d6000602084013e612d35565b606091505b5091509150612d4686838387612d50565b9695505050505050565b60608315612dbf578251600003612db8576001600160a01b0385163b612db85760405162461bcd60e51b815260206004820152601d60248201527f416464726573733a2063616c6c20746f206e6f6e2d636f6e7472616374000000604482015260640161077c565b5081612dc9565b612dc98383612dd1565b949350505050565b8151156125de5781518083602001fd5b80356001600160a01b0381168114612df857600080fd5b919050565b60008060408385031215612e1057600080fd5b612e1983612de1565b946020939093013593505050565b6001600160e01b031981168114610c4f57600080fd5b600060208284031215612e4f57600080fd5b8135612af581612e27565b634e487b7160e01b600052604160045260246000fd5b601f8201601f191681016001600160401b0381118282101715612e9557612e95612e5a565b6040525050565b600082601f830112612ead57600080fd5b81356001600160401b03811115612ec657612ec6612e5a565b604051612edd601f8301601f191660200182612e70565b818152846020838601011115612ef257600080fd5b816020850160208301376000918101602001919091529392505050565b600060208284031215612f2157600080fd5b81356001600160401b03811115612f3757600080fd5b612dc984828501612e9c565b600060208284031215612f5557600080fd5b5035919050565b60005b83811015612f77578181015183820152602001612f5f565b50506000910152565b60008151808452612f98816020860160208601612f5c565b601f01601f19169290920160200192915050565b602081526000612af56020830184612f80565b634e487b7160e01b600052602160045260246000fd5b60048110612ff357634e487b7160e01b600052602160045260246000fd5b9052565b6130018187612fd5565b84602082015283604082015260018060a01b038316606082015260a06080820152600061303160a0830184612f80565b979650505050505050565b60006001600160401b0382111561305557613055612e5a565b5060051b60200190565b600082601f83011261307057600080fd5b8135602061307d8261303c565b60405161308a8282612e70565b83815260059390931b85018201928281019150868411156130aa57600080fd5b8286015b848110156130c557803583529183019183016130ae565b509695505050505050565b600080600080600060a086880312156130e857600080fd5b6130f186612de1565b94506130ff60208701612de1565b935060408601356001600160401b038082111561311b57600080fd5b61312789838a0161305f565b9450606088013591508082111561313d57600080fd5b61314989838a0161305f565b9350608088013591508082111561315f57600080fd5b5061316c88828901612e9c565b9150509295509295909350565b6000806040838503121561318c57600080fd5b8235915061319c60208401612de1565b90509250929050565b6000602082840312156131b757600080fd5b612af582612de1565b600080604083850312156131d357600080fd5b82356001600160401b03808211156131ea57600080fd5b818501915085601f8301126131fe57600080fd5b8135602061320b8261303c565b6040516132188282612e70565b83815260059390931b850182019282810191508984111561323857600080fd5b948201945b8386101561325d5761324e86612de1565b8252948201949082019061323d565b9650508601359250508082111561327357600080fd5b506132808582860161305f565b9150509250929050565b600081518084526020808501945080840160005b838110156132ba5781518752958201959082019060010161329e565b509495945050505050565b602081526000612af5602083018461328a565b600080604083850312156132eb57600080fd5b6132f483612de1565b915060208301356001600160401b0381111561330f57600080fd5b61328085828601612e9c565b60008060006060848603121561333057600080fd5b61333984612de1565b925060208401356001600160401b038082111561335557600080fd5b6133618783880161305f565b9350604086013591508082111561337757600080fd5b506133848682870161305f565b9150509250925092565b600080600080608085870312156133a457600080fd5b843593506133b460208601612de1565b92506133c260408601612de1565b915060608501356001600160401b038111156133dd57600080fd5b6133e987828801612e9c565b91505092959194509250565b6000806000806080858703121561340b57600080fd5b84359350602085013592506133c260408601612de1565b6000806040838503121561343557600080fd5b61343e83612de1565b91506020830135801515811461345357600080fd5b809150509250929050565b6000806040838503121561347157600080fd5b50508035926020909101359150565b60006020808301818452808551808352604092508286019150828160051b87010184880160005b8381101561351657603f19898403018552815160a06134c7858351612fd5565b81890151858a015287820151888601526060808301516001600160a01b03169086015260809182015191850181905261350281860183612f80565b9689019694505050908601906001016134a7565b509098975050505050505050565b6000806040838503121561353757600080fd5b61354083612de1565b915061319c60208401612de1565b600080600080600060a0868803121561356657600080fd5b61356f86612de1565b945061357d60208701612de1565b9350604086013592506060860135915060808601356001600160401b038111156135a657600080fd5b61316c88828901612e9c565b6000806000606084860312156135c757600080fd5b6135d084612de1565b95602085013595506040909401359392505050565b600181811c908216806135f957607f821691505b60208210810361179e57634e487b7160e01b600052602260045260246000fd5b6020808252602e908201527f455243313135353a2063616c6c6572206973206e6f7420746f6b656e206f776e60408201526d195c881bdc88185c1c1c9bdd995960921b606082015260800190565b6020808252602c908201527f46756e6374696f6e206d7573742062652063616c6c6564207468726f7567682060408201526b19195b1959d85d1958d85b1b60a21b606082015260800190565b6020808252602c908201527f46756e6374696f6e206d7573742062652063616c6c6564207468726f7567682060408201526b6163746976652070726f787960a01b606082015260800190565b634e487b7160e01b600052603260045260246000fd5b634e487b7160e01b600052601160045260246000fd5b60006001820161373d5761373d613715565b5060010190565b601f8211156109cb57600081815260208120601f850160051c8101602086101561376b5750805b601f850160051c820191505b81811015611ad657828155600101613777565b81516001600160401b038111156137a3576137a3612e5a565b6137b7816137b184546135e5565b84613744565b602080601f8311600181146137ec57600084156137d45750858301515b600019600386901b1c1916600185901b178555611ad6565b600085815260208120601f198616915b8281101561381b578886015182559484019460019091019084016137fc565b50858210156138395787850151600019600388901b60f8161c191681555b5050505050600190811b01905550565b80820281158282048414176107aa576107aa613715565b818103818111156107aa576107aa613715565b808201808211156107aa576107aa613715565b60208082526028908201527f455243313135353a2069647320616e6420616d6f756e7473206c656e677468206040820152670dad2e6dac2e8c6d60c31b606082015260800190565b60208082526025908201527f455243313135353a207472616e7366657220746f20746865207a65726f206164604082015264647265737360d81b606082015260800190565b6020808252602a908201527f455243313135353a20696e73756666696369656e742062616c616e636520666f60408201526939103a3930b739b332b960b11b606082015260800190565b604081526000613970604083018561328a565b8281036020840152613982818561328a565b95945050505050565b60006020828403121561399d57600080fd5b5051919050565b60208082526023908201527f455243313135353a206275726e2066726f6d20746865207a65726f206164647260408201526265737360e81b606082015260800190565b60208082526024908201527f455243313135353a206275726e20616d6f756e7420657863656564732062616c604082015263616e636560e01b606082015260800190565b6020808252602b908201527f496e697469616c697a61626c653a20636f6e7472616374206973206e6f74206960408201526a6e697469616c697a696e6760a81b606082015260800190565b7f416363657373436f6e74726f6c3a206163636f756e7420000000000000000000815260008351613aae816017850160208801612f5c565b7001034b99036b4b9b9b4b733903937b6329607d1b6017918401918201528351613adf816028840160208801612f5c565b01602801949350505050565b6001600160a01b0386811682528516602082015260a060408201819052600090613b179083018661328a565b8281036060840152613b29818661328a565b90508281036080840152613b3d8185612f80565b98975050505050505050565b600060208284031215613b5b57600080fd5b8151612af581612e27565b600060033d1115610f2a5760046000803e5060005160e01c90565b600060443d1015613b8f5790565b6040516003193d81016004833e81513d6001600160401b038160248401118184111715613bbe57505050505090565b8285019150815181811115613bd65750505050505090565b843d8701016020828501011115613bf05750505050505090565b613bff60208286010187612e70565b509095945050505050565b60208082526028908201527f455243313135353a204552433131353552656365697665722072656a656374656040820152676420746f6b656e7360c01b606082015260800190565b6001600160a01b03868116825285166020820152604081018490526060810183905260a06080820181905260009061303190830184612f80565b600081613c9b57613c9b613715565b506000190190565b60008251613cb5818460208701612f5c565b919091019291505056fe360894a13ba1a3210667c828492db98dca3e2076cc3735a920a3ca505d382bbc416464726573733a206c6f772d6c6576656c2064656c65676174652063616c6c206661696c6564a2646970667358221220e3635f17b78bd834dd8303d925f34eeddeb734679669621d04cef1a54b1113dd64736f6c63430008130033",
  "linkReferences": {},
  "deployedLinkReferences": {}
}