{
  "_format": "hh-sol-artifact-1",
  "contractName": "RadarEditions",
  "sourceName": "src/RadarEditions.sol",
  "abi": [
    {
      "inputs": [],
      "stateMutability": "nonpayable",
      "type": "constructor"
    },
    {
      "inputs": [],
      "name": "EditionFeeExceedsProtocolFee",
      "type": "error"
    },
    {
      "inputs": [],
      "name": "EditionNotCreated",
      "type": "error"
    },
    {
      "inputs": [],
      "name": "EditionNotEnoughBalance",
      "type": "error"
    },
    {
      "inputs": [],
      "name": "EditionNotLaunched",
      "type": "error"
    },
    {
      "inputs": [],
      "name": "EditionNotStopped",
      "type": "error"
    },
    {
      "inputs": [],
      "name": "NotEditionOwner",
      "type": "error"
    },
    {
      "inputs": [],
      "name": "NotEnoughFunds",
      "type": "error"
    },
    {
      "inputs": [],
      "name": "TransactionFailed",
      "type": "error"
    },
    {
      "anonymous": false,
      "inputs": [
        {
          "indexed": false,
          "internalType": "address",
          "name": "previousAdmin",
          "type": "address"
        },
        {
          "indexed": false,
          "internalType": "address",
          "name": "newAdmin",
          "type": "address"
        }
      ],
      "name": "AdminChanged",
      "type": "event"
    },
    {
      "anonymous": false,
      "inputs": [
        {
          "indexed": true,
          "internalType": "address",
          "name": "account",
          "type": "address"
        },
        {
          "indexed": true,
          "internalType": "address",
          "name": "operator",
          "type": "address"
        },
        {
          "indexed": false,
          "internalType": "bool",
          "name": "approved",
          "type": "bool"
        }
      ],
      "name": "ApprovalForAll",
      "type": "event"
    },
    {
      "anonymous": false,
      "inputs": [
        {
          "indexed": true,
          "internalType": "address",
          "name": "beacon",
          "type": "address"
        }
      ],
      "name": "BeaconUpgraded",
      "type": "event"
    },
    {
      "anonymous": false,
      "inputs": [
        {
          "indexed": false,
          "internalType": "uint256",
          "name": "editionId",
          "type": "uint256"
        }
      ],
      "name": "EditionApproved",
      "type": "event"
    },
    {
      "anonymous": false,
      "inputs": [
        {
          "indexed": false,
          "internalType": "uint256",
          "name": "editionId",
          "type": "uint256"
        },
        {
          "indexed": false,
          "internalType": "uint256",
          "name": "amount",
          "type": "uint256"
        },
        {
          "indexed": false,
          "internalType": "address",
          "name": "owner",
          "type": "address"
        }
      ],
      "name": "EditionBalanceWithdrawn",
      "type": "event"
    },
    {
      "anonymous": false,
      "inputs": [
        {
          "indexed": false,
          "internalType": "uint256",
          "name": "editionId",
          "type": "uint256"
        },
        {
          "indexed": false,
          "internalType": "uint256",
          "name": "fee",
          "type": "uint256"
        },
        {
          "indexed": false,
          "internalType": "address",
          "name": "owner",
          "type": "address"
        }
      ],
      "name": "EditionCreated",
      "type": "event"
    },
    {
      "anonymous": false,
      "inputs": [
        {
          "indexed": false,
          "internalType": "uint256",
          "name": "editionId",
          "type": "uint256"
        }
      ],
      "name": "EditionResumed",
      "type": "event"
    },
    {
      "anonymous": false,
      "inputs": [
        {
          "indexed": false,
          "internalType": "uint256",
          "name": "editionId",
          "type": "uint256"
        }
      ],
      "name": "EditionStopped",
      "type": "event"
    },
    {
      "anonymous": false,
      "inputs": [
        {
          "indexed": false,
          "internalType": "uint8",
          "name": "version",
          "type": "uint8"
        }
      ],
      "name": "Initialized",
      "type": "event"
    },
    {
      "anonymous": false,
      "inputs": [
        {
          "indexed": false,
          "internalType": "address",
          "name": "account",
          "type": "address"
        }
      ],
      "name": "Paused",
      "type": "event"
    },
    {
      "anonymous": false,
      "inputs": [
        {
          "indexed": true,
          "internalType": "bytes32",
          "name": "role",
          "type": "bytes32"
        },
        {
          "indexed": true,
          "internalType": "bytes32",
          "name": "previousAdminRole",
          "type": "bytes32"
        },
        {
          "indexed": true,
          "internalType": "bytes32",
          "name": "newAdminRole",
          "type": "bytes32"
        }
      ],
      "name": "RoleAdminChanged",
      "type": "event"
    },
    {
      "anonymous": false,
      "inputs": [
        {
          "indexed": true,
          "internalType": "bytes32",
          "name": "role",
          "type": "bytes32"
        },
        {
          "indexed": true,
          "internalType": "address",
          "name": "account",
          "type": "address"
        },
        {
          "indexed": true,
          "internalType": "address",
          "name": "sender",
          "type": "address"
        }
      ],
      "name": "RoleGranted",
      "type": "event"
    },
    {
      "anonymous": false,
      "inputs": [
        {
          "indexed": true,
          "internalType": "bytes32",
          "name": "role",
          "type": "bytes32"
        },
        {
          "indexed": true,
          "internalType": "address",
          "name": "account",
          "type": "address"
        },
        {
          "indexed": true,
          "internalType": "address",
          "name": "sender",
          "type": "address"
        }
      ],
      "name": "RoleRevoked",
      "type": "event"
    },
    {
      "anonymous": false,
      "inputs": [
        {
          "indexed": true,
          "internalType": "address",
          "name": "operator",
          "type": "address"
        },
        {
          "indexed": true,
          "internalType": "address",
          "name": "from",
          "type": "address"
        },
        {
          "indexed": true,
          "internalType": "address",
          "name": "to",
          "type": "address"
        },
        {
          "indexed": false,
          "internalType": "uint256[]",
          "name": "ids",
          "type": "uint256[]"
        },
        {
          "indexed": false,
          "internalType": "uint256[]",
          "name": "values",
          "type": "uint256[]"
        }
      ],
      "name": "TransferBatch",
      "type": "event"
    },
    {
      "anonymous": false,
      "inputs": [
        {
          "indexed": true,
          "internalType": "address",
          "name": "operator",
          "type": "address"
        },
        {
          "indexed": true,
          "internalType": "address",
          "name": "from",
          "type": "address"
        },
        {
          "indexed": true,
          "internalType": "address",
          "name": "to",
          "type": "address"
        },
        {
          "indexed": false,
          "internalType": "uint256",
          "name": "id",
          "type": "uint256"
        },
        {
          "indexed": false,
          "internalType": "uint256",
          "name": "value",
          "type": "uint256"
        }
      ],
      "name": "TransferSingle",
      "type": "event"
    },
    {
      "anonymous": false,
      "inputs": [
        {
          "indexed": false,
          "internalType": "string",
          "name": "value",
          "type": "string"
        },
        {
          "indexed": true,
          "internalType": "uint256",
          "name": "id",
          "type": "uint256"
        }
      ],
      "name": "URI",
      "type": "event"
    },
    {
      "anonymous": false,
      "inputs": [
        {
          "indexed": false,
          "internalType": "address",
          "name": "account",
          "type": "address"
        }
      ],
      "name": "Unpaused",
      "type": "event"
    },
    {
      "anonymous": false,
      "inputs": [
        {
          "indexed": true,
          "internalType": "address",
          "name": "implementation",
          "type": "address"
        }
      ],
      "name": "Upgraded",
      "type": "event"
    },
    {
      "stateMutability": "payable",
      "type": "fallback"
    },
    {
      "inputs": [],
      "name": "DEFAULT_ADMIN_ROLE",
      "outputs": [
        {
          "internalType": "bytes32",
          "name": "",
          "type": "bytes32"
        }
      ],
      "stateMutability": "view",
      "type": "function"
    },
    {
      "inputs": [
        {
          "internalType": "uint256",
          "name": "editionId",
          "type": "uint256"
        }
      ],
      "name": "approveEdition",
      "outputs": [],
      "stateMutability": "nonpayable",
      "type": "function"
    },
    {
      "inputs": [
        {
          "internalType": "address",
          "name": "account",
          "type": "address"
        },
        {
          "internalType": "uint256",
          "name": "id",
          "type": "uint256"
        }
      ],
      "name": "balanceOf",
      "outputs": [
        {
          "internalType": "uint256",
          "name": "",
          "type": "uint256"
        }
      ],
      "stateMutability": "view",
      "type": "function"
    },
    {
      "inputs": [
        {
          "internalType": "address[]",
          "name": "accounts",
          "type": "address[]"
        },
        {
          "internalType": "uint256[]",
          "name": "ids",
          "type": "uint256[]"
        }
      ],
      "name": "balanceOfBatch",
      "outputs": [
        {
          "internalType": "uint256[]",
          "name": "",
          "type": "uint256[]"
        }
      ],
      "stateMutability": "view",
      "type": "function"
    },
    {
      "inputs": [
        {
          "internalType": "address",
          "name": "account",
          "type": "address"
        },
        {
          "internalType": "uint256",
          "name": "id",
          "type": "uint256"
        },
        {
          "internalType": "uint256",
          "name": "value",
          "type": "uint256"
        }
      ],
      "name": "burn",
      "outputs": [],
      "stateMutability": "nonpayable",
      "type": "function"
    },
    {
      "inputs": [
        {
          "internalType": "address",
          "name": "account",
          "type": "address"
        },
        {
          "internalType": "uint256[]",
          "name": "ids",
          "type": "uint256[]"
        },
        {
          "internalType": "uint256[]",
          "name": "values",
          "type": "uint256[]"
        }
      ],
      "name": "burnBatch",
      "outputs": [],
      "stateMutability": "nonpayable",
      "type": "function"
    },
    {
      "inputs": [
        {
          "internalType": "uint256",
          "name": "fee",
          "type": "uint256"
        },
        {
          "internalType": "address",
          "name": "owner",
          "type": "address"
        },
        {
          "internalType": "address",
          "name": "payer",
          "type": "address"
        },
        {
          "internalType": "string",
          "name": "id",
          "type": "string"
        }
      ],
      "name": "createEdition",
      "outputs": [
        {
          "internalType": "uint256",
          "name": "editionId",
          "type": "uint256"
        }
      ],
      "stateMutability": "nonpayable",
      "type": "function"
    },
    {
      "inputs": [],
      "name": "editionCounter",
      "outputs": [
        {
          "internalType": "uint256",
          "name": "",
          "type": "uint256"
        }
      ],
      "stateMutability": "view",
      "type": "function"
    },
    {
      "inputs": [
        {
          "internalType": "uint256",
          "name": "",
          "type": "uint256"
        }
      ],
      "name": "editions",
      "outputs": [
        {
          "internalType": "enum EditionsStructs.EditionStatus",
          "name": "status",
          "type": "uint8"
        },
        {
          "internalType": "uint256",
          "name": "fee",
          "type": "uint256"
        },
        {
          "internalType": "uint256",
          "name": "balance",
          "type": "uint256"
        },
        {
          "internalType": "address",
          "name": "owner",
          "type": "address"
        },
        {
          "internalType": "string",
          "name": "id",
          "type": "string"
        }
      ],
      "stateMutability": "view",
      "type": "function"
    },
    {
      "inputs": [
        {
          "internalType": "uint256",
          "name": "id",
          "type": "uint256"
        }
      ],
      "name": "exists",
      "outputs": [
        {
          "internalType": "bool",
          "name": "",
          "type": "bool"
        }
      ],
      "stateMutability": "view",
      "type": "function"
    },
    {
      "inputs": [
        {
          "internalType": "address",
          "name": "owner",
          "type": "address"
        }
      ],
      "name": "getBalances",
      "outputs": [
        {
          "components": [
            {
              "internalType": "string",
              "name": "id",
              "type": "string"
            },
            {
              "internalType": "uint256",
              "name": "amount",
              "type": "uint256"
            }
          ],
          "internalType": "struct EditionsStructs.EditionIdWithAmount[]",
          "name": "",
          "type": "tuple[]"
        }
      ],
      "stateMutability": "view",
      "type": "function"
    },
    {
      "inputs": [],
      "name": "getEditions",
      "outputs": [
        {
          "components": [
            {
              "internalType": "enum EditionsStructs.EditionStatus",
              "name": "status",
              "type": "uint8"
            },
            {
              "internalType": "uint256",
              "name": "fee",
              "type": "uint256"
            },
            {
              "internalType": "uint256",
              "name": "balance",
              "type": "uint256"
            },
            {
              "internalType": "address",
              "name": "owner",
              "type": "address"
            },
            {
              "internalType": "string",
              "name": "id",
              "type": "string"
            }
          ],
          "internalType": "struct EditionsStructs.Edition[]",
          "name": "",
          "type": "tuple[]"
        }
      ],
      "stateMutability": "view",
      "type": "function"
    },
    {
      "inputs": [
        {
          "internalType": "bytes32",
          "name": "role",
          "type": "bytes32"
        }
      ],
      "name": "getRoleAdmin",
      "outputs": [
        {
          "internalType": "bytes32",
          "name": "",
          "type": "bytes32"
        }
      ],
      "stateMutability": "view",
      "type": "function"
    },
    {
      "inputs": [
        {
          "internalType": "bytes32",
          "name": "role",
          "type": "bytes32"
        },
        {
          "internalType": "address",
          "name": "account",
          "type": "address"
        }
      ],
      "name": "grantRole",
      "outputs": [],
      "stateMutability": "nonpayable",
      "type": "function"
    },
    {
      "inputs": [
        {
          "internalType": "bytes32",
          "name": "role",
          "type": "bytes32"
        },
        {
          "internalType": "address",
          "name": "account",
          "type": "address"
        }
      ],
      "name": "hasRole",
      "outputs": [
        {
          "internalType": "bool",
          "name": "",
          "type": "bool"
        }
      ],
      "stateMutability": "view",
      "type": "function"
    },
    {
      "inputs": [],
      "name": "initialize",
      "outputs": [],
      "stateMutability": "nonpayable",
      "type": "function"
    },
    {
      "inputs": [
        {
          "internalType": "address",
          "name": "account",
          "type": "address"
        },
        {
          "internalType": "address",
          "name": "operator",
          "type": "address"
        }
      ],
      "name": "isApprovedForAll",
      "outputs": [
        {
          "internalType": "bool",
          "name": "",
          "type": "bool"
        }
      ],
      "stateMutability": "view",
      "type": "function"
    },
    {
      "inputs": [
        {
          "internalType": "uint256",
          "name": "editionId",
          "type": "uint256"
        },
        {
          "internalType": "uint256",
          "name": "amount",
          "type": "uint256"
        },
        {
          "internalType": "address",
          "name": "buyer",
          "type": "address"
        },
        {
          "internalType": "bytes",
          "name": "data",
          "type": "bytes"
        }
      ],
      "name": "mintEdition",
      "outputs": [],
      "stateMutability": "payable",
      "type": "function"
    },
    {
      "inputs": [],
      "name": "pause",
      "outputs": [],
      "stateMutability": "nonpayable",
      "type": "function"
    },
    {
      "inputs": [],
      "name": "paused",
      "outputs": [
        {
          "internalType": "bool",
          "name": "",
          "type": "bool"
        }
      ],
      "stateMutability": "view",
      "type": "function"
    },
    {
      "inputs": [],
      "name": "protocolFee",
      "outputs": [
        {
          "internalType": "uint256",
          "name": "",
          "type": "uint256"
        }
      ],
      "stateMutability": "view",
      "type": "function"
    },
    {
      "inputs": [],
      "name": "proxiableUUID",
      "outputs": [
        {
          "internalType": "bytes32",
          "name": "",
          "type": "bytes32"
        }
      ],
      "stateMutability": "view",
      "type": "function"
    },
    {
      "inputs": [
        {
          "internalType": "bytes32",
          "name": "role",
          "type": "bytes32"
        },
        {
          "internalType": "address",
          "name": "account",
          "type": "address"
        }
      ],
      "name": "renounceRole",
      "outputs": [],
      "stateMutability": "nonpayable",
      "type": "function"
    },
    {
      "inputs": [
        {
          "internalType": "uint256",
          "name": "editionId",
          "type": "uint256"
        }
      ],
      "name": "resumeEdition",
      "outputs": [],
      "stateMutability": "nonpayable",
      "type": "function"
    },
    {
      "inputs": [
        {
          "internalType": "bytes32",
          "name": "role",
          "type": "bytes32"
        },
        {
          "internalType": "address",
          "name": "account",
          "type": "address"
        }
      ],
      "name": "revokeRole",
      "outputs": [],
      "stateMutability": "nonpayable",
      "type": "function"
    },
    {
      "inputs": [
        {
          "internalType": "address",
          "name": "from",
          "type": "address"
        },
        {
          "internalType": "address",
          "name": "to",
          "type": "address"
        },
        {
          "internalType": "uint256[]",
          "name": "ids",
          "type": "uint256[]"
        },
        {
          "internalType": "uint256[]",
          "name": "amounts",
          "type": "uint256[]"
        },
        {
          "internalType": "bytes",
          "name": "data",
          "type": "bytes"
        }
      ],
      "name": "safeBatchTransferFrom",
      "outputs": [],
      "stateMutability": "nonpayable",
      "type": "function"
    },
    {
      "inputs": [
        {
          "internalType": "address",
          "name": "from",
          "type": "address"
        },
        {
          "internalType": "address",
          "name": "to",
          "type": "address"
        },
        {
          "internalType": "uint256",
          "name": "id",
          "type": "uint256"
        },
        {
          "internalType": "uint256",
          "name": "amount",
          "type": "uint256"
        },
        {
          "internalType": "bytes",
          "name": "data",
          "type": "bytes"
        }
      ],
      "name": "safeTransferFrom",
      "outputs": [],
      "stateMutability": "nonpayable",
      "type": "function"
    },
    {
      "inputs": [
        {
          "internalType": "address",
          "name": "operator",
          "type": "address"
        },
        {
          "internalType": "bool",
          "name": "approved",
          "type": "bool"
        }
      ],
      "name": "setApprovalForAll",
      "outputs": [],
      "stateMutability": "nonpayable",
      "type": "function"
    },
    {
      "inputs": [
        {
          "internalType": "uint256",
          "name": "_protocolFee",
          "type": "uint256"
        }
      ],
      "name": "setProtocolFee",
      "outputs": [],
      "stateMutability": "nonpayable",
      "type": "function"
    },
    {
      "inputs": [
        {
          "internalType": "string",
          "name": "newuri",
          "type": "string"
        }
      ],
      "name": "setURI",
      "outputs": [],
      "stateMutability": "nonpayable",
      "type": "function"
    },
    {
      "inputs": [
        {
          "internalType": "uint256",
          "name": "editionId",
          "type": "uint256"
        }
      ],
      "name": "stopEdition",
      "outputs": [],
      "stateMutability": "nonpayable",
      "type": "function"
    },
    {
      "inputs": [
        {
          "internalType": "bytes4",
          "name": "interfaceId",
          "type": "bytes4"
        }
      ],
      "name": "supportsInterface",
      "outputs": [
        {
          "internalType": "bool",
          "name": "",
          "type": "bool"
        }
      ],
      "stateMutability": "view",
      "type": "function"
    },
    {
      "inputs": [
        {
          "internalType": "uint256",
          "name": "id",
          "type": "uint256"
        }
      ],
      "name": "totalSupply",
      "outputs": [
        {
          "internalType": "uint256",
          "name": "",
          "type": "uint256"
        }
      ],
      "stateMutability": "view",
      "type": "function"
    },
    {
      "inputs": [],
      "name": "unpause",
      "outputs": [],
      "stateMutability": "nonpayable",
      "type": "function"
    },
    {
      "inputs": [
        {
          "internalType": "address",
          "name": "newImplementation",
          "type": "address"
        }
      ],
      "name": "upgradeTo",
      "outputs": [],
      "stateMutability": "nonpayable",
      "type": "function"
    },
    {
      "inputs": [
        {
          "internalType": "address",
          "name": "newImplementation",
          "type": "address"
        },
        {
          "internalType": "bytes",
          "name": "data",
          "type": "bytes"
        }
      ],
      "name": "upgradeToAndCall",
      "outputs": [],
      "stateMutability": "payable",
      "type": "function"
    },
    {
      "inputs": [
        {
          "internalType": "uint256",
          "name": "",
          "type": "uint256"
        }
      ],
      "name": "uri",
      "outputs": [
        {
          "internalType": "string",
          "name": "",
          "type": "string"
        }
      ],
      "stateMutability": "view",
      "type": "function"
    },
    {
      "inputs": [
        {
          "internalType": "uint256",
          "name": "editionId",
          "type": "uint256"
        },
        {
          "internalType": "uint256",
          "name": "amount",
          "type": "uint256"
        }
      ],
      "name": "withdrawEditionBalance",
      "outputs": [],
      "stateMutability": "nonpayable",
      "type": "function"
    },
    {
      "inputs": [
        {
          "internalType": "uint256",
          "name": "amount",
          "type": "uint256"
        }
      ],
      "name": "withdrawFunds",
      "outputs": [],
      "stateMutability": "nonpayable",
      "type": "function"
    },
    {
      "stateMutability": "payable",
      "type": "receive"
    }
  ],
  "bytecode": "0x60a0604052306080523480156200001557600080fd5b506200002062000026565b620000e7565b600054610100900460ff1615620000935760405162461bcd60e51b815260206004820152602760248201527f496e697469616c697a61626c653a20636f6e747261637420697320696e697469604482015266616c697a696e6760c81b606482015260840160405180910390fd5b60005460ff90811614620000e5576000805460ff191660ff9081179091556040519081527f7f26b83ff96e1f2b6a682f133852f6798a09c465da95921460cefb38474024989060200160405180910390a15b565b608051613f466200011f60003960008181610bb501528181610bf501528181610def01528181610e2f0152610ebe0152613f466000f3fe60806040526004361061021b5760003560e01c80637357628c11610122578063bd85b039116100a5578063df6efc6c1161006c578063df6efc6c14610682578063e985e9c5146106a4578063f242432a146106ed578063f5298aca1461070d578063fc74efa21461072d57005b8063bd85b039146105d0578063c6fbb712146105fe578063c84aae1714610615578063d547741f14610642578063d667c9ce1461066257005b806391fc02f1116100e957806391fc02f114610551578063940123da14610571578063a217fddf14610584578063a22cb46514610599578063b0e21e8a146105b957005b80637357628c146104c7578063787dce3d146104e75780638129fc1c146105075780638456cb591461051c57806391d148541461053157005b80632f2ff15d116101aa5780634f1ef286116101715780634f1ef286146104375780634f558e791461044a57806352d1902d1461047a5780635c975abb1461048f5780636b20c454146104a757005b80632f2ff15d1461039557806336568abe146103b55780633659cfe6146103d55780633f4ba83a146103f55780634e1273f41461040a57005b80630e89341c116101ee5780630e89341c146102c7578063155dd5ee146102f4578063248a9ca314610314578063279c806e146103445780632eb2c2d61461037557005b8062fdd58e1461022457806301ffc9a71461025757806302fe5305146102875780630a579eca146102a757005b3661022257005b005b34801561023057600080fd5b5061024461023f366004612f9f565b61074d565b6040519081526020015b60405180910390f35b34801561026357600080fd5b50610277610272366004612fdf565b6107e8565b604051901515815260200161024e565b34801561029357600080fd5b506102226102a23660046130b1565b6107f3565b3480156102b357600080fd5b506102226102c23660046130e5565b61082a565b3480156102d357600080fd5b506102e76102e23660046130e5565b6108fb565b60405161024e919061314e565b34801561030057600080fd5b5061022261030f3660046130e5565b61098f565b34801561032057600080fd5b5061024461032f3660046130e5565b60009081526097602052604090206001015490565b34801561035057600080fd5b5061036461035f3660046130e5565b610a08565b60405161024e959493929190613199565b34801561038157600080fd5b50610222610390366004613272565b610ad0565b3480156103a157600080fd5b506102226103b036600461331b565b610b1c565b3480156103c157600080fd5b506102226103d036600461331b565b610b31565b3480156103e157600080fd5b506102226103f0366004613347565b610bab565b34801561040157600080fd5b50610222610c8a565b34801561041657600080fd5b5061042a610425366004613362565b610cbc565b60405161024e9190613467565b61022261044536600461347a565b610de5565b34801561045657600080fd5b506102776104653660046130e5565b600090815261012d6020526040902054151590565b34801561048657600080fd5b50610244610eb1565b34801561049b57600080fd5b5060c95460ff16610277565b3480156104b357600080fd5b506102226104c23660046134bd565b610f65565b3480156104d357600080fd5b506102226104e23660046130e5565b610fa8565b3480156104f357600080fd5b506102226105023660046130e5565b611049565b34801561051357600080fd5b5061022261105b565b34801561052857600080fd5b50610222611226565b34801561053d57600080fd5b5061027761054c36600461331b565b611258565b34801561055d57600080fd5b5061024461056c366004613530565b611283565b61022261057f366004613597565b6113cb565b34801561059057600080fd5b50610244600081565b3480156105a557600080fd5b506102226105b43660046135c4565b611494565b3480156105c557600080fd5b506102446101c35481565b3480156105dc57600080fd5b506102446105eb3660046130e5565b600090815261012d602052604090205490565b34801561060a57600080fd5b506102446101c55481565b34801561062157600080fd5b50610635610630366004613347565b61149f565b60405161024e9190613600565b34801561064e57600080fd5b5061022261065d36600461331b565b611609565b34801561066e57600080fd5b5061022261067d366004613676565b61162e565b34801561068e57600080fd5b50610697611770565b60405161024e9190613698565b3480156106b057600080fd5b506102776106bf36600461372e565b6001600160a01b03918216600090815260666020908152604080832093909416825291909152205460ff1690565b3480156106f957600080fd5b50610222610708366004613758565b611946565b34801561071957600080fd5b506102226107283660046137bc565b61198b565b34801561073957600080fd5b506102226107483660046130e5565b6119ce565b60006001600160a01b0383166107bd5760405162461bcd60e51b815260206004820152602a60248201527f455243313135353a2061646472657373207a65726f206973206e6f742061207660448201526930b634b21037bbb732b960b11b60648201526084015b60405180910390fd5b5060008181526065602090815260408083206001600160a01b03861684529091529020545b92915050565b60006107e282611a98565b7f7804d923f43a17d325d77e781528e0793b2edd9890ab45fc64efd7b4b427744c61081d81611abd565b61082682611ac7565b5050565b60008181526101c460205260409020600301546001600160a01b031633146108655760405163388f811f60e01b815260040160405180910390fd5b600260008281526101c4602052604090205460ff16600381111561088b5761088b613161565b146108a957604051631f0fb6fd60e11b815260040160405180910390fd5b60008181526101c46020908152604091829020805460ff1916600317905590518281527f591913f977ab242c5871f116f36be231ff67df5e8e0bac1efd91fa8a723aca2b91015b60405180910390a150565b60606067805461090a906137ef565b80601f0160208091040260200160405190810160405280929190818152602001828054610936906137ef565b80156109835780601f1061095857610100808354040283529160200191610983565b820191906000526020600020905b81548152906001019060200180831161096657829003601f168201915b50505050509050919050565b600061099a81611abd565b604051600090339084908381818185875af1925050503d80600081146109dc576040519150601f19603f3d011682016040523d82523d6000602084013e6109e1565b606091505b5050905080610a03576040516317f2c34560e31b815260040160405180910390fd5b505050565b6101c4602052600090815260409020805460018201546002830154600384015460048501805460ff90951695939492936001600160a01b0390921692610a4d906137ef565b80601f0160208091040260200160405190810160405280929190818152602001828054610a79906137ef565b8015610ac65780601f10610a9b57610100808354040283529160200191610ac6565b820191906000526020600020905b815481529060010190602001808311610aa957829003601f168201915b5050505050905085565b6001600160a01b038516331480610aec5750610aec85336106bf565b610b085760405162461bcd60e51b81526004016107b490613823565b610b158585858585611ad3565b5050505050565b6000610b2781611abd565b610a038383611c80565b6001600160a01b0381163314610ba15760405162461bcd60e51b815260206004820152602f60248201527f416363657373436f6e74726f6c3a2063616e206f6e6c792072656e6f756e636560448201526e103937b632b9903337b91039b2b63360891b60648201526084016107b4565b6108268282611d06565b6001600160a01b037f0000000000000000000000000000000000000000000000000000000000000000163003610bf35760405162461bcd60e51b81526004016107b490613871565b7f00000000000000000000000000000000000000000000000000000000000000006001600160a01b0316610c3c600080516020613eca833981519152546001600160a01b031690565b6001600160a01b031614610c625760405162461bcd60e51b81526004016107b4906138bd565b610c6b81611d6d565b60408051600080825260208201909252610c8791839190611d97565b50565b7f65d7a28e3265b37a6474929f336521b332c1681b933f6cb9f3376673440d862a610cb481611abd565b610c87611f02565b60608151835114610d215760405162461bcd60e51b815260206004820152602960248201527f455243313135353a206163636f756e747320616e6420696473206c656e677468604482015268040dad2e6dac2e8c6d60bb1b60648201526084016107b4565b600083516001600160401b03811115610d3c57610d3c612ffc565b604051908082528060200260200182016040528015610d65578160200160208202803683370190505b50905060005b8451811015610ddd57610db0858281518110610d8957610d89613909565b6020026020010151858381518110610da357610da3613909565b602002602001015161074d565b828281518110610dc257610dc2613909565b6020908102919091010152610dd681613935565b9050610d6b565b509392505050565b6001600160a01b037f0000000000000000000000000000000000000000000000000000000000000000163003610e2d5760405162461bcd60e51b81526004016107b490613871565b7f00000000000000000000000000000000000000000000000000000000000000006001600160a01b0316610e76600080516020613eca833981519152546001600160a01b031690565b6001600160a01b031614610e9c5760405162461bcd60e51b81526004016107b4906138bd565b610ea582611d6d565b61082682826001611d97565b6000306001600160a01b037f00000000000000000000000000000000000000000000000000000000000000001614610f515760405162461bcd60e51b815260206004820152603860248201527f555550535570677261646561626c653a206d757374206e6f742062652063616c60448201527f6c6564207468726f7567682064656c656761746563616c6c000000000000000060648201526084016107b4565b50600080516020613eca8339815191525b90565b6001600160a01b038316331480610f815750610f8183336106bf565b610f9d5760405162461bcd60e51b81526004016107b490613823565b610a03838383611f54565b6000610fb381611abd565b600160008381526101c4602052604090205460ff166003811115610fd957610fd9613161565b14610ff75760405163137c9c1f60e31b815260040160405180910390fd5b60008281526101c46020908152604091829020805460ff1916600217905590518381527f8f4352ac8b4aefdd2333162306bbe09dd4f4ff6661e89ccc4e4dcced8794e8f7910160405180910390a15050565b600061105481611abd565b506101c355565b600054610100900460ff161580801561107b5750600054600160ff909116105b806110955750303b158015611095575060005460ff166001145b6110f85760405162461bcd60e51b815260206004820152602e60248201527f496e697469616c697a61626c653a20636f6e747261637420697320616c72656160448201526d191e481a5b9a5d1a585b1a5e995960921b60648201526084016107b4565b6000805460ff19166001179055801561111b576000805461ff0019166101001790555b611133604051806020016040528060008152506120f5565b61113b612125565b61114361214e565b61114b612125565b611153612125565b61115b612125565b611166600033611c80565b6111907f7804d923f43a17d325d77e781528e0793b2edd9890ab45fc64efd7b4b427744c33611c80565b6111ba7f65d7a28e3265b37a6474929f336521b332c1681b933f6cb9f3376673440d862a33611c80565b6111e47f189ab7a9244df0848122154315af71fe140f3db0fe014031783b0946b8c9d2e333611c80565b8015610c87576000805461ff0019169055604051600181527f7f26b83ff96e1f2b6a682f133852f6798a09c465da95921460cefb3847402498906020016108f0565b7f65d7a28e3265b37a6474929f336521b332c1681b933f6cb9f3376673440d862a61125081611abd565b610c8761217d565b60009182526097602090815260408084206001600160a01b0393909316845291905290205460ff1690565b60006101c3548511156112a957604051636a61a41960e11b815260040160405180910390fd5b506101c5546040805160a0810190915280600181526020808201889052600060408084018290526001600160a01b038916606085015260809093018690528481526101c49091522081518154829060ff1916600183600381111561130f5761130f613161565b0217905550602082015160018201556040820151600282015560608201516003820180546001600160a01b0319166001600160a01b03909216919091179055608082015160048201906113629082613994565b50506101c580549150600061137683613935565b909155505060408051828152602081018790526001600160a01b0386168183015290517f7fe7f72f14a53255f3c9e225ab1d40fdb21335b87a7912726a196fb816866ae09181900360600190a1949350505050565b600260008581526101c4602052604090205460ff1660038111156113f1576113f1613161565b1461140f57604051631f0fb6fd60e11b815260040160405180910390fd5b60008481526101c4602052604090206001015461142d908490613a53565b34101561144d57604051631036b5ad60e31b815260040160405180910390fd5b611459828585846121ba565b6101c3546114679034613a6a565b60008581526101c4602052604081206002018054909190611489908490613a7d565b909155505050505050565b6108263383836122df565b606060006101c5546001600160401b038111156114be576114be612ffc565b60405190808252806020026020018201604052801561150457816020015b6040805180820190915260608152600060208201528152602001906001900390816114dc5790505b50905060005b6101c5548110156116025760405180604001604052806101c460008481526020019081526020016000206004018054611542906137ef565b80601f016020809104026020016040519081016040528092919081815260200182805461156e906137ef565b80156115bb5780601f10611590576101008083540402835291602001916115bb565b820191906000526020600020905b81548152906001019060200180831161159e57829003601f168201915b505050505081526020016115cf868461074d565b8152508282815181106115e4576115e4613909565b602002602001018190525080806115fa90613935565b91505061150a565b5092915050565b60008281526097602052604090206001015461162481611abd565b610a038383611d06565b60008281526101c460205260409020600301546001600160a01b031633146116695760405163388f811f60e01b815260040160405180910390fd5b60008281526101c4602052604090206002015481111561169c57604051637eafab7d60e01b815260040160405180910390fd5b604051600090339083908381818185875af1925050503d80600081146116de576040519150601f19603f3d011682016040523d82523d6000602084013e6116e3565b606091505b5050905080611705576040516317f2c34560e31b815260040160405180910390fd5b60008381526101c4602052604081206002018054849290611727908490613a6a565b90915550506040805184815260208101849052338183015290517ff1090e9d5138cd4909542e10e1da576730b07eb291a71a151e63160dde345b949181900360600190a1505050565b606060006101c5546001600160401b0381111561178f5761178f612ffc565b6040519080825280602002602001820160405280156117fc57816020015b6117e96040805160a081019091528060008152602001600081526020016000815260200160006001600160a01b03168152602001606081525090565b8152602001906001900390816117ad5790505b50905060005b6101c5548110156119405760008181526101c4602052604090819020815160a081019092528054829060ff16600381111561183f5761183f613161565b600381111561185057611850613161565b8152600182015460208201526002820154604082015260038201546001600160a01b0316606082015260048201805460809092019161188e906137ef565b80601f01602080910402602001604051908101604052809291908181526020018280546118ba906137ef565b80156119075780601f106118dc57610100808354040283529160200191611907565b820191906000526020600020905b8154815290600101906020018083116118ea57829003601f168201915b50505050508152505082828151811061192257611922613909565b6020026020010181905250808061193890613935565b915050611802565b50919050565b6001600160a01b038516331480611962575061196285336106bf565b61197e5760405162461bcd60e51b81526004016107b490613823565b610b1585858585856123bf565b6001600160a01b0383163314806119a757506119a783336106bf565b6119c35760405162461bcd60e51b81526004016107b490613823565b610a038383836124fb565b60008181526101c460205260409020600301546001600160a01b03163314611a095760405163388f811f60e01b815260040160405180910390fd5b600360008281526101c4602052604090205460ff166003811115611a2f57611a2f613161565b14611a4d5760405163968807a560e01b815260040160405180910390fd5b60008181526101c46020908152604091829020805460ff1916600217905590518281527f63bb17c9645a29322601b4fe88d8f3fa84f32229368294f903084be8f5d813ba91016108f0565b60006001600160e01b03198216637965db0b60e01b14806107e257506107e282612617565b610c878133612667565b60676108268282613994565b8151835114611af45760405162461bcd60e51b81526004016107b490613a90565b6001600160a01b038416611b1a5760405162461bcd60e51b81526004016107b490613ad8565b33611b298187878787876126c0565b60005b8451811015611c12576000858281518110611b4957611b49613909565b602002602001015190506000858381518110611b6757611b67613909565b60209081029190910181015160008481526065835260408082206001600160a01b038e168352909352919091205490915081811015611bb85760405162461bcd60e51b81526004016107b490613b1d565b60008381526065602090815260408083206001600160a01b038e8116855292528083208585039055908b16825281208054849290611bf7908490613a7d565b9250508190555050505080611c0b90613935565b9050611b2c565b50846001600160a01b0316866001600160a01b0316826001600160a01b03167f4a39dc06d4c0dbc64b70af90fd698a233a518aa5d07e595d983b8c0526c8f7fb8787604051611c62929190613b67565b60405180910390a4611c788187878787876126d6565b505050505050565b611c8a8282611258565b6108265760008281526097602090815260408083206001600160a01b03851684529091529020805460ff19166001179055611cc23390565b6001600160a01b0316816001600160a01b0316837f2f8788117e7eff1d82e926ec794901d17c78024a50270940304540a733656f0d60405160405180910390a45050565b611d108282611258565b156108265760008281526097602090815260408083206001600160a01b0385168085529252808320805460ff1916905551339285917ff6391f5c32d9c69d2a47ea670b442974b53935d1edc7fd64eb21e047a839171b9190a45050565b7f189ab7a9244df0848122154315af71fe140f3db0fe014031783b0946b8c9d2e361082681611abd565b7f4910fdfa16fed3260ed0e7147f7cc6da11a60208b5b9406d12a635614ffd91435460ff1615611dca57610a0383612831565b826001600160a01b03166352d1902d6040518163ffffffff1660e01b8152600401602060405180830381865afa925050508015611e24575060408051601f3d908101601f19168201909252611e2191810190613b95565b60015b611e875760405162461bcd60e51b815260206004820152602e60248201527f45524331393637557067726164653a206e657720696d706c656d656e7461746960448201526d6f6e206973206e6f74205555505360901b60648201526084016107b4565b600080516020613eca8339815191528114611ef65760405162461bcd60e51b815260206004820152602960248201527f45524331393637557067726164653a20756e737570706f727465642070726f786044820152681a58589b195555525160ba1b60648201526084016107b4565b50610a038383836128cd565b611f0a6128f2565b60c9805460ff191690557f5db9ee0a495bf2e6ff9c91a7834c1ba4fdd244a5e8aa4e537bd38aeae4b073aa335b6040516001600160a01b03909116815260200160405180910390a1565b6001600160a01b038316611f7a5760405162461bcd60e51b81526004016107b490613bae565b8051825114611f9b5760405162461bcd60e51b81526004016107b490613a90565b6000339050611fbe818560008686604051806020016040528060008152506126c0565b60005b8351811015612086576000848281518110611fde57611fde613909565b602002602001015190506000848381518110611ffc57611ffc613909565b60209081029190910181015160008481526065835260408082206001600160a01b038c16835290935291909120549091508181101561204d5760405162461bcd60e51b81526004016107b490613bf1565b60009283526065602090815260408085206001600160a01b038b168652909152909220910390558061207e81613935565b915050611fc1565b5060006001600160a01b0316846001600160a01b0316826001600160a01b03167f4a39dc06d4c0dbc64b70af90fd698a233a518aa5d07e595d983b8c0526c8f7fb86866040516120d7929190613b67565b60405180910390a46040805160208101909152600090525b50505050565b600054610100900460ff1661211c5760405162461bcd60e51b81526004016107b490613c35565b610c878161293b565b600054610100900460ff1661214c5760405162461bcd60e51b81526004016107b490613c35565b565b600054610100900460ff166121755760405162461bcd60e51b81526004016107b490613c35565b61214c61296b565b61218561299e565b60c9805460ff191660011790557f62e78cea01bee320cd4e420270b5ea74000d11b0c9f74754ebdbfc544b05a258611f373390565b6001600160a01b03841661221a5760405162461bcd60e51b815260206004820152602160248201527f455243313135353a206d696e7420746f20746865207a65726f206164647265736044820152607360f81b60648201526084016107b4565b336000612226856129e4565b90506000612233856129e4565b9050612244836000898585896126c0565b60008681526065602090815260408083206001600160a01b038b16845290915281208054879290612276908490613a7d565b909155505060408051878152602081018790526001600160a01b03808a1692600092918716917fc3d58168c5ae7397731d063d5bbf3d657854427343f4c083240f7aacaa2d0f62910160405180910390a46122d683600089898989612a2f565b50505050505050565b816001600160a01b0316836001600160a01b0316036123525760405162461bcd60e51b815260206004820152602960248201527f455243313135353a2073657474696e6720617070726f76616c20737461747573604482015268103337b91039b2b63360b91b60648201526084016107b4565b6001600160a01b03838116600081815260666020908152604080832094871680845294825291829020805460ff191686151590811790915591519182527f17307eab39ab6107e8899845ad3d59bd9653f200f220920489ca2b5937696c31910160405180910390a3505050565b6001600160a01b0384166123e55760405162461bcd60e51b81526004016107b490613ad8565b3360006123f1856129e4565b905060006123fe856129e4565b905061240e8389898585896126c0565b60008681526065602090815260408083206001600160a01b038c168452909152902054858110156124515760405162461bcd60e51b81526004016107b490613b1d565b60008781526065602090815260408083206001600160a01b038d8116855292528083208985039055908a16825281208054889290612490908490613a7d565b909155505060408051888152602081018890526001600160a01b03808b16928c821692918816917fc3d58168c5ae7397731d063d5bbf3d657854427343f4c083240f7aacaa2d0f62910160405180910390a46124f0848a8a8a8a8a612a2f565b505050505050505050565b6001600160a01b0383166125215760405162461bcd60e51b81526004016107b490613bae565b33600061252d846129e4565b9050600061253a846129e4565b905061255a838760008585604051806020016040528060008152506126c0565b60008581526065602090815260408083206001600160a01b038a1684529091529020548481101561259d5760405162461bcd60e51b81526004016107b490613bf1565b60008681526065602090815260408083206001600160a01b038b81168086529184528285208a8703905582518b81529384018a90529092908816917fc3d58168c5ae7397731d063d5bbf3d657854427343f4c083240f7aacaa2d0f62910160405180910390a46040805160208101909152600090526122d6565b60006001600160e01b03198216636cdb3d1360e11b148061264857506001600160e01b031982166303a24d0760e21b145b806107e257506301ffc9a760e01b6001600160e01b03198316146107e2565b6126718282611258565b6108265761267e81612aea565b612689836020612afc565b60405160200161269a929190613c80565b60408051601f198184030181529082905262461bcd60e51b82526107b49160040161314e565b6126c861299e565b611c78868686868686612c9e565b6001600160a01b0384163b15611c785760405163bc197c8160e01b81526001600160a01b0385169063bc197c819061271a9089908990889088908890600401613cf5565b6020604051808303816000875af1925050508015612755575060408051601f3d908101601f1916820190925261275291810190613d53565b60015b61280157612761613d70565b806308c379a00361279a5750612775613d8b565b80612780575061279c565b8060405162461bcd60e51b81526004016107b4919061314e565b505b60405162461bcd60e51b815260206004820152603460248201527f455243313135353a207472616e7366657220746f206e6f6e2d455243313135356044820152732932b1b2b4bb32b91034b6b83632b6b2b73a32b960611b60648201526084016107b4565b6001600160e01b0319811663bc197c8160e01b146122d65760405162461bcd60e51b81526004016107b490613e14565b6001600160a01b0381163b61289e5760405162461bcd60e51b815260206004820152602d60248201527f455243313936373a206e657720696d706c656d656e746174696f6e206973206e60448201526c1bdd08184818dbdb9d1c9858dd609a1b60648201526084016107b4565b600080516020613eca83398151915280546001600160a01b0319166001600160a01b0392909216919091179055565b6128d683612e1a565b6000825111806128e35750805b15610a03576120ef8383612e5a565b60c95460ff1661214c5760405162461bcd60e51b815260206004820152601460248201527314185d5cd8589b194e881b9bdd081c185d5cd95960621b60448201526064016107b4565b600054610100900460ff166129625760405162461bcd60e51b81526004016107b490613c35565b610c8781611ac7565b600054610100900460ff166129925760405162461bcd60e51b81526004016107b490613c35565b60c9805460ff19169055565b60c95460ff161561214c5760405162461bcd60e51b815260206004820152601060248201526f14185d5cd8589b194e881c185d5cd95960821b60448201526064016107b4565b60408051600180825281830190925260609160009190602080830190803683370190505090508281600081518110612a1e57612a1e613909565b602090810291909101015292915050565b6001600160a01b0384163b15611c785760405163f23a6e6160e01b81526001600160a01b0385169063f23a6e6190612a739089908990889088908890600401613e5c565b6020604051808303816000875af1925050508015612aae575060408051601f3d908101601f19168201909252612aab91810190613d53565b60015b612aba57612761613d70565b6001600160e01b0319811663f23a6e6160e01b146122d65760405162461bcd60e51b81526004016107b490613e14565b60606107e26001600160a01b03831660145b60606000612b0b836002613a53565b612b16906002613a7d565b6001600160401b03811115612b2d57612b2d612ffc565b6040519080825280601f01601f191660200182016040528015612b57576020820181803683370190505b509050600360fc1b81600081518110612b7257612b72613909565b60200101906001600160f81b031916908160001a905350600f60fb1b81600181518110612ba157612ba1613909565b60200101906001600160f81b031916908160001a9053506000612bc5846002613a53565b612bd0906001613a7d565b90505b6001811115612c48576f181899199a1a9b1b9c1cb0b131b232b360811b85600f1660108110612c0457612c04613909565b1a60f81b828281518110612c1a57612c1a613909565b60200101906001600160f81b031916908160001a90535060049490941c93612c4181613e96565b9050612bd3565b508315612c975760405162461bcd60e51b815260206004820181905260248201527f537472696e67733a20686578206c656e67746820696e73756666696369656e7460448201526064016107b4565b9392505050565b6001600160a01b038516612d265760005b8351811015612d2457828181518110612cca57612cca613909565b602002602001015161012d6000868481518110612ce957612ce9613909565b602002602001015181526020019081526020016000206000828254612d0e9190613a7d565b90915550612d1d905081613935565b9050612caf565b505b6001600160a01b038416611c785760005b83518110156122d6576000848281518110612d5457612d54613909565b602002602001015190506000848381518110612d7257612d72613909565b60200260200101519050600061012d600084815260200190815260200160002054905081811015612df65760405162461bcd60e51b815260206004820152602860248201527f455243313135353a206275726e20616d6f756e74206578636565647320746f74604482015267616c537570706c7960c01b60648201526084016107b4565b600092835261012d602052604090922091039055612e1381613935565b9050612d37565b612e2381612831565b6040516001600160a01b038216907fbc7cd75a20ee27fd9adebab32041f755214dbc6bffa90cc0225b39da2e5c2d3b90600090a250565b6060612c978383604051806060016040528060278152602001613eea602791396060600080856001600160a01b031685604051612e979190613ead565b600060405180830381855af49150503d8060008114612ed2576040519150601f19603f3d011682016040523d82523d6000602084013e612ed7565b606091505b5091509150612ee886838387612ef2565b9695505050505050565b60608315612f61578251600003612f5a576001600160a01b0385163b612f5a5760405162461bcd60e51b815260206004820152601d60248201527f416464726573733a2063616c6c20746f206e6f6e2d636f6e747261637400000060448201526064016107b4565b5081612f6b565b612f6b8383612f73565b949350505050565b8151156127805781518083602001fd5b80356001600160a01b0381168114612f9a57600080fd5b919050565b60008060408385031215612fb257600080fd5b612fbb83612f83565b946020939093013593505050565b6001600160e01b031981168114610c8757600080fd5b600060208284031215612ff157600080fd5b8135612c9781612fc9565b634e487b7160e01b600052604160045260246000fd5b601f8201601f191681016001600160401b038111828210171561303757613037612ffc565b6040525050565b600082601f83011261304f57600080fd5b81356001600160401b0381111561306857613068612ffc565b60405161307f601f8301601f191660200182613012565b81815284602083860101111561309457600080fd5b816020850160208301376000918101602001919091529392505050565b6000602082840312156130c357600080fd5b81356001600160401b038111156130d957600080fd5b612f6b8482850161303e565b6000602082840312156130f757600080fd5b5035919050565b60005b83811015613119578181015183820152602001613101565b50506000910152565b6000815180845261313a8160208601602086016130fe565b601f01601f19169290920160200192915050565b602081526000612c976020830184613122565b634e487b7160e01b600052602160045260246000fd5b6004811061319557634e487b7160e01b600052602160045260246000fd5b9052565b6131a38187613177565b84602082015283604082015260018060a01b038316606082015260a0608082015260006131d360a0830184613122565b979650505050505050565b60006001600160401b038211156131f7576131f7612ffc565b5060051b60200190565b600082601f83011261321257600080fd5b8135602061321f826131de565b60405161322c8282613012565b83815260059390931b850182019282810191508684111561324c57600080fd5b8286015b848110156132675780358352918301918301613250565b509695505050505050565b600080600080600060a0868803121561328a57600080fd5b61329386612f83565b94506132a160208701612f83565b935060408601356001600160401b03808211156132bd57600080fd5b6132c989838a01613201565b945060608801359150808211156132df57600080fd5b6132eb89838a01613201565b9350608088013591508082111561330157600080fd5b5061330e8882890161303e565b9150509295509295909350565b6000806040838503121561332e57600080fd5b8235915061333e60208401612f83565b90509250929050565b60006020828403121561335957600080fd5b612c9782612f83565b6000806040838503121561337557600080fd5b82356001600160401b038082111561338c57600080fd5b818501915085601f8301126133a057600080fd5b813560206133ad826131de565b6040516133ba8282613012565b83815260059390931b85018201928281019150898411156133da57600080fd5b948201945b838610156133ff576133f086612f83565b825294820194908201906133df565b9650508601359250508082111561341557600080fd5b5061342285828601613201565b9150509250929050565b600081518084526020808501945080840160005b8381101561345c57815187529582019590820190600101613440565b509495945050505050565b602081526000612c97602083018461342c565b6000806040838503121561348d57600080fd5b61349683612f83565b915060208301356001600160401b038111156134b157600080fd5b6134228582860161303e565b6000806000606084860312156134d257600080fd5b6134db84612f83565b925060208401356001600160401b03808211156134f757600080fd5b61350387838801613201565b9350604086013591508082111561351957600080fd5b5061352686828701613201565b9150509250925092565b6000806000806080858703121561354657600080fd5b8435935061355660208601612f83565b925061356460408601612f83565b915060608501356001600160401b0381111561357f57600080fd5b61358b8782880161303e565b91505092959194509250565b600080600080608085870312156135ad57600080fd5b843593506020850135925061356460408601612f83565b600080604083850312156135d757600080fd5b6135e083612f83565b9150602083013580151581146135f557600080fd5b809150509250929050565b60006020808301818452808551808352604092508286019150828160051b87010184880160005b8381101561366857888303603f190185528151805187855261364b88860182613122565b918901519489019490945294870194925090860190600101613627565b509098975050505050505050565b6000806040838503121561368957600080fd5b50508035926020909101359150565b60006020808301818452808551808352604092508286019150828160051b87010184880160005b8381101561366857603f19898403018552815160a06136df858351613177565b81890151858a015287820151888601526060808301516001600160a01b03169086015260809182015191850181905261371a81860183613122565b9689019694505050908601906001016136bf565b6000806040838503121561374157600080fd5b61374a83612f83565b915061333e60208401612f83565b600080600080600060a0868803121561377057600080fd5b61377986612f83565b945061378760208701612f83565b9350604086013592506060860135915060808601356001600160401b038111156137b057600080fd5b61330e8882890161303e565b6000806000606084860312156137d157600080fd5b6137da84612f83565b95602085013595506040909401359392505050565b600181811c9082168061380357607f821691505b60208210810361194057634e487b7160e01b600052602260045260246000fd5b6020808252602e908201527f455243313135353a2063616c6c6572206973206e6f7420746f6b656e206f776e60408201526d195c881bdc88185c1c1c9bdd995960921b606082015260800190565b6020808252602c908201527f46756e6374696f6e206d7573742062652063616c6c6564207468726f7567682060408201526b19195b1959d85d1958d85b1b60a21b606082015260800190565b6020808252602c908201527f46756e6374696f6e206d7573742062652063616c6c6564207468726f7567682060408201526b6163746976652070726f787960a01b606082015260800190565b634e487b7160e01b600052603260045260246000fd5b634e487b7160e01b600052601160045260246000fd5b6000600182016139475761394761391f565b5060010190565b601f821115610a0357600081815260208120601f850160051c810160208610156139755750805b601f850160051c820191505b81811015611c7857828155600101613981565b81516001600160401b038111156139ad576139ad612ffc565b6139c1816139bb84546137ef565b8461394e565b602080601f8311600181146139f657600084156139de5750858301515b600019600386901b1c1916600185901b178555611c78565b600085815260208120601f198616915b82811015613a2557888601518255948401946001909101908401613a06565b5085821015613a435787850151600019600388901b60f8161c191681555b5050505050600190811b01905550565b80820281158282048414176107e2576107e261391f565b818103818111156107e2576107e261391f565b808201808211156107e2576107e261391f565b60208082526028908201527f455243313135353a2069647320616e6420616d6f756e7473206c656e677468206040820152670dad2e6dac2e8c6d60c31b606082015260800190565b60208082526025908201527f455243313135353a207472616e7366657220746f20746865207a65726f206164604082015264647265737360d81b606082015260800190565b6020808252602a908201527f455243313135353a20696e73756666696369656e742062616c616e636520666f60408201526939103a3930b739b332b960b11b606082015260800190565b604081526000613b7a604083018561342c565b8281036020840152613b8c818561342c565b95945050505050565b600060208284031215613ba757600080fd5b5051919050565b60208082526023908201527f455243313135353a206275726e2066726f6d20746865207a65726f206164647260408201526265737360e81b606082015260800190565b60208082526024908201527f455243313135353a206275726e20616d6f756e7420657863656564732062616c604082015263616e636560e01b606082015260800190565b6020808252602b908201527f496e697469616c697a61626c653a20636f6e7472616374206973206e6f74206960408201526a6e697469616c697a696e6760a81b606082015260800190565b7f416363657373436f6e74726f6c3a206163636f756e7420000000000000000000815260008351613cb88160178501602088016130fe565b7001034b99036b4b9b9b4b733903937b6329607d1b6017918401918201528351613ce98160288401602088016130fe565b01602801949350505050565b6001600160a01b0386811682528516602082015260a060408201819052600090613d219083018661342c565b8281036060840152613d33818661342c565b90508281036080840152613d478185613122565b98975050505050505050565b600060208284031215613d6557600080fd5b8151612c9781612fc9565b600060033d1115610f625760046000803e5060005160e01c90565b600060443d1015613d995790565b6040516003193d81016004833e81513d6001600160401b038160248401118184111715613dc857505050505090565b8285019150815181811115613de05750505050505090565b843d8701016020828501011115613dfa5750505050505090565b613e0960208286010187613012565b509095945050505050565b60208082526028908201527f455243313135353a204552433131353552656365697665722072656a656374656040820152676420746f6b656e7360c01b606082015260800190565b6001600160a01b03868116825285166020820152604081018490526060810183905260a0608082018190526000906131d390830184613122565b600081613ea557613ea561391f565b506000190190565b60008251613ebf8184602087016130fe565b919091019291505056fe360894a13ba1a3210667c828492db98dca3e2076cc3735a920a3ca505d382bbc416464726573733a206c6f772d6c6576656c2064656c65676174652063616c6c206661696c6564a2646970667358221220fa1d4cebc06d1b53613a64f16fb9f0d3dd9e627de95867b4335b92e7f5904a4464736f6c63430008130033",
  "linkReferences": {},
  "deployedLinkReferences": {}
}